{"abi":[{"type":"constructor","inputs":[{"name":"didManagerAddress","type":"address","internalType":"address"}],"stateMutability":"nonpayable"},{"type":"function","name":"CREDENTIAL_TYPEHASH","inputs":[],"outputs":[{"name":"","type":"bytes32","internalType":"bytes32"}],"stateMutability":"view"},{"type":"function","name":"DEFAULT_ADMIN_ROLE","inputs":[],"outputs":[{"name":"","type":"bytes32","internalType":"bytes32"}],"stateMutability":"view"},{"type":"function","name":"GOVERNMENT_ROLE","inputs":[],"outputs":[{"name":"","type":"bytes32","internalType":"bytes32"}],"stateMutability":"view"},{"type":"function","name":"addVerifiedIPFSHash","inputs":[{"name":"ipfsHash","type":"bytes","internalType":"bytes"},{"name":"dualHashCombination","type":"bytes32","internalType":"bytes32"}],"outputs":[],"stateMutability":"nonpayable"},{"type":"function","name":"dualHash","inputs":[{"name":"data","type":"bytes","internalType":"bytes"}],"outputs":[{"name":"keccakHash","type":"bytes32","internalType":"bytes32"},{"name":"sha256Hash","type":"bytes32","internalType":"bytes32"}],"stateMutability":"pure"},{"type":"function","name":"eip712Domain","inputs":[],"outputs":[{"name":"fields","type":"bytes1","internalType":"bytes1"},{"name":"name","type":"string","internalType":"string"},{"name":"version","type":"string","internalType":"string"},{"name":"chainId","type":"uint256","internalType":"uint256"},{"name":"verifyingContract","type":"address","internalType":"address"},{"name":"salt","type":"bytes32","internalType":"bytes32"},{"name":"extensions","type":"uint256[]","internalType":"uint256[]"}],"stateMutability":"view"},{"type":"function","name":"getIssuedTimestamp","inputs":[{"name":"id","type":"string","internalType":"string"}],"outputs":[{"name":"","type":"uint256","internalType":"uint256"}],"stateMutability":"view"},{"type":"function","name":"getRoleAdmin","inputs":[{"name":"role","type":"bytes32","internalType":"bytes32"}],"outputs":[{"name":"","type":"bytes32","internalType":"bytes32"}],"stateMutability":"view"},{"type":"function","name":"grantRole","inputs":[{"name":"role","type":"bytes32","internalType":"bytes32"},{"name":"account","type":"address","internalType":"address"}],"outputs":[],"stateMutability":"nonpayable"},{"type":"function","name":"hasRole","inputs":[{"name":"role","type":"bytes32","internalType":"bytes32"},{"name":"account","type":"address","internalType":"address"}],"outputs":[{"name":"","type":"bool","internalType":"bool"}],"stateMutability":"view"},{"type":"function","name":"issueVerifiableCredential","inputs":[{"name":"id","type":"string","internalType":"string"},{"name":"subject","type":"string","internalType":"string"},{"name":"data","type":"string","internalType":"string"},{"name":"expiresAt","type":"uint256","internalType":"uint256"},{"name":"context","type":"string[]","internalType":"string[]"},{"name":"credentialType","type":"string[]","internalType":"string[]"},{"name":"proofType","type":"string","internalType":"string"},{"name":"proofCreator","type":"string","internalType":"string"}],"outputs":[],"stateMutability":"nonpayable"},{"type":"function","name":"renounceRole","inputs":[{"name":"role","type":"bytes32","internalType":"bytes32"},{"name":"callerConfirmation","type":"address","internalType":"address"}],"outputs":[],"stateMutability":"nonpayable"},{"type":"function","name":"revokeCredential","inputs":[{"name":"id","type":"string","internalType":"string"}],"outputs":[],"stateMutability":"nonpayable"},{"type":"function","name":"revokeRole","inputs":[{"name":"role","type":"bytes32","internalType":"bytes32"},{"name":"account","type":"address","internalType":"address"}],"outputs":[],"stateMutability":"nonpayable"},{"type":"function","name":"revokedCredentials","inputs":[{"name":"","type":"string","internalType":"string"}],"outputs":[{"name":"","type":"bool","internalType":"bool"}],"stateMutability":"view"},{"type":"function","name":"signCredential","inputs":[{"name":"id","type":"string","internalType":"string"},{"name":"signature","type":"bytes","internalType":"bytes"}],"outputs":[],"stateMutability":"nonpayable"},{"type":"function","name":"supportsInterface","inputs":[{"name":"interfaceId","type":"bytes4","internalType":"bytes4"}],"outputs":[{"name":"","type":"bool","internalType":"bool"}],"stateMutability":"view"},{"type":"function","name":"validateDIDCredential","inputs":[{"name":"credentialId","type":"string","internalType":"string"},{"name":"requiredRole","type":"string","internalType":"string"}],"outputs":[{"name":"isValid","type":"bool","internalType":"bool"}],"stateMutability":"view"},{"type":"function","name":"validateVerifiableCredential","inputs":[{"name":"id","type":"string","internalType":"string"}],"outputs":[{"name":"","type":"bool","internalType":"bool"}],"stateMutability":"view"},{"type":"function","name":"verifiableCredentials","inputs":[{"name":"","type":"string","internalType":"string"}],"outputs":[{"name":"id","type":"string","internalType":"string"},{"name":"issuer","type":"address","internalType":"address"},{"name":"subject","type":"string","internalType":"string"},{"name":"data","type":"string","internalType":"string"},{"name":"issuedAt","type":"uint256","internalType":"uint256"},{"name":"expiresAt","type":"uint256","internalType":"uint256"},{"name":"proof","type":"tuple","internalType":"struct CredentialManager.Proof","components":[{"name":"proofType","type":"string","internalType":"string"},{"name":"creator","type":"string","internalType":"string"},{"name":"signatureValue","type":"bytes","internalType":"bytes"},{"name":"created","type":"uint256","internalType":"uint256"}]}],"stateMutability":"view"},{"type":"function","name":"verifiedHashes","inputs":[{"name":"","type":"bytes32","internalType":"bytes32"}],"outputs":[{"name":"","type":"bool","internalType":"bool"}],"stateMutability":"view"},{"type":"function","name":"verifyIPFSHash","inputs":[{"name":"ipfsHash","type":"bytes","internalType":"bytes"},{"name":"dualHashCombination","type":"bytes32","internalType":"bytes32"}],"outputs":[{"name":"isValid","type":"bool","internalType":"bool"}],"stateMutability":"pure"},{"type":"event","name":"CredentialRevoked","inputs":[{"name":"id","type":"string","indexed":true,"internalType":"string"}],"anonymous":false},{"type":"event","name":"CredentialSigned","inputs":[{"name":"id","type":"string","indexed":true,"internalType":"string"},{"name":"signer","type":"address","indexed":false,"internalType":"address"}],"anonymous":false},{"type":"event","name":"EIP712DomainChanged","inputs":[],"anonymous":false},{"type":"event","name":"RoleAdminChanged","inputs":[{"name":"role","type":"bytes32","indexed":true,"internalType":"bytes32"},{"name":"previousAdminRole","type":"bytes32","indexed":true,"internalType":"bytes32"},{"name":"newAdminRole","type":"bytes32","indexed":true,"internalType":"bytes32"}],"anonymous":false},{"type":"event","name":"RoleGranted","inputs":[{"name":"role","type":"bytes32","indexed":true,"internalType":"bytes32"},{"name":"account","type":"address","indexed":true,"internalType":"address"},{"name":"sender","type":"address","indexed":true,"internalType":"address"}],"anonymous":false},{"type":"event","name":"RoleRevoked","inputs":[{"name":"role","type":"bytes32","indexed":true,"internalType":"bytes32"},{"name":"account","type":"address","indexed":true,"internalType":"address"},{"name":"sender","type":"address","indexed":true,"internalType":"address"}],"anonymous":false},{"type":"event","name":"VCIssued","inputs":[{"name":"id","type":"string","indexed":true,"internalType":"string"},{"name":"issuer","type":"address","indexed":false,"internalType":"address"},{"name":"subject","type":"string","indexed":false,"internalType":"string"}],"anonymous":false},{"type":"error","name":"AccessControlBadConfirmation","inputs":[]},{"type":"error","name":"AccessControlUnauthorizedAccount","inputs":[{"name":"account","type":"address","internalType":"address"},{"name":"neededRole","type":"bytes32","internalType":"bytes32"}]},{"type":"error","name":"CredentialExpired","inputs":[]},{"type":"error","name":"ECDSAInvalidSignature","inputs":[]},{"type":"error","name":"ECDSAInvalidSignatureLength","inputs":[{"name":"length","type":"uint256","internalType":"uint256"}]},{"type":"error","name":"ECDSAInvalidSignatureS","inputs":[{"name":"s","type":"bytes32","internalType":"bytes32"}]},{"type":"error","name":"InvalidShortString","inputs":[]},{"type":"error","name":"StringTooLong","inputs":[{"name":"str","type":"string","internalType":"string"}]}],"bytecode":{"object":"0x610160346200021b576001600160401b0390601f62002def38819003918201601f1916830192919084841183851017620002075781602092849260409687528339810103126200021b57516001600160a01b03811691908290036200021b578051906200006c826200021f565b6011825260208201927021b932b232b73a34b0b626b0b730b3b2b960791b84528151946200009a866200021f565b6001865260208601603160f81b8152620000b48562000359565b95610120968752620000c68862000522565b95610140968752519020968760e052519020610100968188524660a05284519160208301917f8b73c3c69bb8fe3d512ecc4cf759cc79239f7b179b0ffacaa9a75d522b39400f83528684015260608301524660808301523060a083015260a0825260c0820192828410908411176200020757828552815190206080523060c0528215620001c3575050600680546001600160a01b0319169190911790556200016e336200023b565b506200017a33620002b9565b5051916126ff9384620006d08539608051846125d8015260a051846126a3015260c051846125a2015260e051846126270152518361264d015251826112f60152518161131f0152f35b62461bcd60e51b8252602060c4820152601a60e48201527f496e76616c6964204449444d616e61676572206164647265737300000000000061010490910152606490fd5b634e487b7160e01b5f52604160045260245ffd5b5f80fd5b604081019081106001600160401b038211176200020757604052565b6001600160a01b03165f8181527fad3228b676f7d3cd4284a5443f17f1962b36e491b30a40b2405849e597ba5fb5602052604081205490919060ff16620002b557818052816020526040822081835260205260408220600160ff1982541617905533915f8051602062002dcf8339815191528180a4600190565b5090565b6001600160a01b03165f8181527f7fce187fe653c3999987939460c2f3aae14502864308dc12f1155791d80cf4ab60205260408120549091907fd9d062b29c8756d894f301c5167d214c34d627724cd7fc859ab9329c9330cf519060ff166200035457808352826020526040832082845260205260408320600160ff198254161790555f8051602062002dcf833981519152339380a4600190565b505090565b805160209081811015620003f35750601f8251116200039457808251920151908083106200038657501790565b825f19910360031b1b161790565b90604051809263305a27a960e01b82528060048301528251908160248401525f935b828510620003d9575050604492505f838284010152601f80199101168101030190fd5b8481018201518686016044015293810193859350620003b6565b9192916001600160401b038111620002075760019182548381811c9116801562000517575b828210146200050357601f8111620004cd575b5080601f8311600114620004695750819293945f926200045d575b50505f19600383901b1c191690821b17905560ff90565b015190505f8062000446565b90601f19831695845f52825f20925f905b888210620004b557505083859697106200049c575b505050811b01905560ff90565b01515f1960f88460031b161c191690555f80806200048f565b8087859682949686015181550195019301906200047a565b835f5283601f835f20920160051c820191601f850160051c015b828110620004f75750506200042b565b5f8155018490620004e7565b634e487b7160e01b5f52602260045260245ffd5b90607f169062000418565b805160209081811015620005ae5750601f8251116200054f57808251920151908083106200038657501790565b90604051809263305a27a960e01b82528060048301528251908160248401525f935b82851062000594575050604492505f838284010152601f80199101168101030190fd5b848101820151868601604401529381019385935062000571565b906001600160401b0382116200020757600254926001938481811c91168015620006c4575b838210146200050357601f81116200068d575b5081601f84116001146200062557509282939183925f9462000619575b50501b915f199060031b1c19161760025560ff90565b015192505f8062000603565b919083601f19811660025f52845f20945f905b8883831062000672575050501062000659575b505050811b0160025560ff90565b01515f1960f88460031b161c191690555f80806200064b565b85870151885590960195948501948793509081019062000638565b60025f5284601f845f20920160051c820191601f860160051c015b828110620006b8575050620005e6565b5f8155018590620006a8565b90607f1690620005d356fe6080806040526004361015610012575f80fd5b5f3560e01c90816301ffc9a714611a835750806318671cfa14611a385780631a1949be146119f2578063248a9ca3146119c657806327d350001461198c57806328d3253a146117175780632f2ff15d146116e9578063341459d51461150057806336568abe146114c7578063374146e2146114985780635e9a2d28146113d357806384b0196e146112de5780638be103f31461066957806391d148541461062e5780639cbed582146105f4578063a217fddf146105da578063ac7ac60414610579578063ae76a8d314610388578063b1b9e89514610214578063c15f802414610165578063d547741f146101355763ec27c9c61461010e575f80fd5b3461013157602061012761012136611dff565b90612199565b6040519015158152f35b5f80fd5b346101315761016361014636611bd4565b90805f525f60205261015e600160405f200154611ea9565b611f46565b005b346101315761018761017636611dff565b610181929192611e30565b82612199565b156101cf5761019590612169565b60405190602082019283526040820152604081526101b281611b28565b5190205f908152600560205260409020805460ff19166001179055005b60405162461bcd60e51b815260206004820152601960248201527f496e76616c6964206861736820766572696669636174696f6e000000000000006044820152606490fd5b3461013157602080600319360112610131576004356001600160401b0381116101315781809136906004019061024991611b7f565b604051928382819351928391019161026092611bfa565b8101600381520301902090604051908161027a8185611d0f565b036102859083611b5e565b60018301546040516001600160a01b03909116939091826102a98160028501611d0f565b036102b49084611b5e565b60405191826102c68160038401611d0f565b036102d19084611b5e565b6004810154926005820154916008016102e990611da0565b9460405197889760e0895260e0890161030191611c1b565b9085890152878103604089015261031791611c1b565b868103606088015261032891611c1b565b92608086015260a085015283820360c08501528251608083526080830161034e91611c1b565b81840151918382039084015261036391611c1b565b604083015190828103604084015261037a91611c1b565b916060015190606001520390f35b3461013157602080600319360112610131576004356001600160401b03811161013157816103bd6103fd923690600401611b7f565b604051906103ec60ff8251938581818601966103da81838a611bfa565b81016004815203019020541615612241565b604051938492839251928391611bfa565b810160038152030190206040519061041482611ad6565b60405161042c816104258185611d0f565b0382611b5e565b825260018101546001600160a01b0390811684840190815260405191929161045b816104258160028701611d0f565b6040850152604051610474816104258160038701611d0f565b6060850152600482015460808501526104bd600860058401549360a087019485526104a16006820161228d565b60c08801526104b26007820161228d565b60e088015201611da0565b9161010085019283526104d385515115156122ef565b51421015610567576105088260406104fe610511976104f983899851015151151561233b565b6124d2565b9151015190612387565b9095919561244f565b51169116036105235760405160018152f35b6064906040519062461bcd60e51b82526004820152601960248201527f5265636f7665726564207369676e6572206d69736d61746368000000000000006044820152fd5b60405163f6f992e760e01b8152600490fd5b34610131576020366003190112610131576004356001600160401b0381116101315760ff6105c460206105b181943690600401611b7f565b8160405193828580945193849201611bfa565b8101600481520301902054166040519015158152f35b34610131575f3660031901126101315760206040515f8152f35b34610131575f3660031901126101315760206040517fd9d062b29c8756d894f301c5167d214c34d627724cd7fc859ab9329c9330cf518152f35b346101315761063c36611bd4565b905f525f60205260405f209060018060a01b03165f52602052602060ff60405f2054166040519015158152f35b3461013157610100366003190112610131576004356001600160401b0381116101315761069a903690600401611b7f565b6024356001600160401b038111610131576106b9903690600401611b7f565b906044356001600160401b038111610131576106d9903690600401611b7f565b6084356001600160401b038111610131576106f8903690600401611c57565b60a4356001600160401b03811161013157610717903690600401611c57565b60c4356001600160401b03811161013157610736903690600401611b7f565b9160e4356001600160401b03811161013157610756903690600401611b7f565b61075e611e30565b855115611299578651156112545784511561120f574260643511156111cb5760065460405163234c76d560e01b8152602060048201819052909182906001600160a01b031681806107b2602482018e611c1b565b03915afa9081156111c0575f91611185575b501561114057604051906107d782611b0d565b5f8252604051946107e786611af2565b8552602085015260408401524260608401526040519361080685611ad6565b858552336020860152866040860152606085015242608085015260643560a085015260c084015260e0830152610100820152604051602081845161084d8183858901611bfa565b810160038152030190209080518051906001600160401b038211610c395781906108818261087b8754611cd7565b876121dc565b602090601f83116001146110d8575f926110cd575b50508160011b915f199060031b1c19161782555b6001820160018060a01b036020830151166bffffffffffffffffffffffff60a01b82541617905560408101518051906001600160401b038211610c39578190610903826108fa6002880154611cd7565b600288016121dc565b602090601f831160011461105f575f92611054575b50508160011b915f199060031b1c19161760028301555b60608101518051906001600160401b038211610c39578190610961826109586003880154611cd7565b600388016121dc565b602090601f8311600114610fe6575f92610fdb575b50508160011b915f199060031b1c19161760038301555b6080810151600483015560a0810151600583015560c0810151805190600160401b8211610c39576006840154826006860155808310610f67575b5060200190600684015f5260205f20915f905b828210610e90575050505060e0810151805190600160401b8211610c39576007840154826007860155808310610e1c575b5060200190600784015f5260205f20915f905b828210610d3f5750505050610100015180518051906001600160401b038211610c39578190610a5d82610a546008880154611cd7565b600888016121dc565b602090601f8311600114610cd1575f92610cc6575b50508160011b915f199060031b1c19161760088301555b60208101518051906001600160401b038211610c39578190610abb82610ab26009880154611cd7565b600988016121dc565b602090601f8311600114610c58575f92610c4d575b50508160011b915f199060031b1c19161760098301555b600a820160408201518051906001600160401b038211610c3957610b1582610b0f8554611cd7565b856121dc565b602090601f8311600114610ba657610b7b947f711312583a392d65179bf949665a44f0e2c18f41e42330eae5d9103df6b7918d979484610b969895600b956060955f92610b9b575b50508160011b915f199060031b1c19161790555b0151910155612221565b92604051918291338352604060208401526040830190611c1b565b0390a2005b015190508c80610b5d565b90601f19831691845f5260205f20925f5b818110610c21575094600185600b95606095610b7b9a95610b969c997f711312583a392d65179bf949665a44f0e2c18f41e42330eae5d9103df6b7918d9e9b10610c09575b505050811b019055610b71565b01515f1960f88460031b161c191690558c8080610bfc565b92936020600181928786015181550195019301610bb7565b634e487b7160e01b5f52604160045260245ffd5b015190508680610ad0565b9250600985015f5260205f20905f935b601f1984168510610cab576001945083601f19811610610c93575b505050811b016009830155610ae7565b01515f1960f88460031b161c19169055868080610c83565b81810151835560209485019460019093019290910190610c68565b015190508680610a72565b9250600885015f5260205f20905f935b601f1984168510610d24576001945083601f19811610610d0c575b505050811b016008830155610a89565b01515f1960f88460031b161c19169055868080610cfc565b81810151835560209485019460019093019290910190610ce1565b80518051906001600160401b038211610c3957610d6682610d608854611cd7565b886121dc565b602090601f8311600114610db05792826001949360209386955f92610da5575b50505f19600383901b1c191690841b1787555b01940191019092610a1e565b015190508d80610d86565b90865f5260205f20915f5b601f1985168110610e04575083602093600196938796938794601f19811610610dec575b505050811b018755610d99565b01515f1960f88460031b161c191690558d8080610ddf565b91926020600181928685015181550194019201610dbb565b600785015f5260205f20908382015b8183018110610e3b575050610a0b565b80610e4860019254611cd7565b80610e55575b5001610e2b565b601f81118314610e6a57505f81555b8a610e4e565b5f90828252610e87601f60208420920160051c82018583016121c6565b81835555610e64565b80518051906001600160401b038211610c3957610eb182610d608854611cd7565b602090601f8311600114610efb5792826001949360209386955f92610ef0575b50505f19600383901b1c191690841b1787555b019401910190926109da565b015190508d80610ed1565b90865f5260205f20915f5b601f1985168110610f4f575083602093600196938796938794601f19811610610f37575b505050811b018755610ee4565b01515f1960f88460031b161c191690558d8080610f2a565b91926020600181928685015181550194019201610f06565b600685015f5260205f20908382015b8183018110610f865750506109c7565b80610f9360019254611cd7565b80610fa0575b5001610f76565b601f81118314610fb557505f81555b8a610f99565b5f90828252610fd2601f60208420920160051c82018583016121c6565b81835555610faf565b015190508680610976565b9250600385015f5260205f20905f935b601f1984168510611039576001945083601f19811610611021575b505050811b01600383015561098d565b01515f1960f88460031b161c19169055868080611011565b81810151835560209485019460019093019290910190610ff6565b015190508680610918565b9250600285015f5260205f20905f935b601f19841685106110b2576001945083601f1981161061109a575b505050811b01600283015561092f565b01515f1960f88460031b161c1916905586808061108a565b8181015183556020948501946001909301929091019061106f565b015190508680610896565b9250845f5260205f20905f935b601f1984168510611125576001945083601f1981161061110d575b505050811b0182556108aa565b01515f1960f88460031b161c19169055868080611100565b818101518355602094850194600190930192909101906110e5565b60405162461bcd60e51b815260206004820152601b60248201527f5375626a65637420444944206973206e6f7420766572696669656400000000006044820152606490fd5b90506020813d6020116111b8575b816111a060209383611b5e565b810103126101315751801515810361013157886107c4565b3d9150611193565b6040513d5f823e3d90fd5b606460405162461bcd60e51b815260206004820152602060248201527f45787069726174696f6e206d75737420626520696e20746865206675747572656044820152fd5b60405162461bcd60e51b815260206004820152601f60248201527f43726564656e7469616c20646174612063616e6e6f7420626520656d707479006044820152606490fd5b60405162461bcd60e51b815260206004820152601b60248201527f5375626a656374204449442063616e6e6f7420626520656d70747900000000006044820152606490fd5b60405162461bcd60e51b815260206004820152601d60248201527f43726564656e7469616c2049442063616e6e6f7420626520656d7074790000006044820152606490fd5b34610131575f3660031901126101315761138561131a7f0000000000000000000000000000000000000000000000000000000000000000611fb9565b6113437f00000000000000000000000000000000000000000000000000000000000000006120b1565b906040519061135182611b0d565b5f8252604051938493600f60f81b855261137760209360e08588015260e0870190611c1b565b908582036040870152611c1b565b4660608501523060808501525f60a085015283810360c08501528180845192838152019301915f5b8281106113bc57505050500390f35b8351855286955093810193928101926001016113ad565b34610131576020366003190112610131576004356001600160401b03811161013157611406611472913690600401611b7f565b61140e611e30565b6114586020604051611447611440855192848181890195611430818389611bfa565b8101600381520301902054611cd7565b15156122ef565b604051809381928651928391611bfa565b81016004815203019020600160ff19825416179055612221565b7f19d981dae71c0e172d789c8bef41062792bc14fa2e555bba0bae3c104d2b2a415f80a2005b34610131576020366003190112610131576004355f526005602052602060ff60405f2054166040519015158152f35b34610131576114d536611bd4565b336001600160a01b038216036114ee5761016391611f46565b60405163334bd91960e11b8152600490fd5b34610131576040366003190112610131576001600160401b0360043581811161013157611531903690600401611b7f565b60243582811161013157611549903690600401611b7f565b90611552611e30565b60405192600a8483516020968161156d899383858a01611bfa565b810160038152030190206115846114408254611cd7565b0190815461159181611cd7565b6116a4578451918211610c3957816115ab6115b192611cd7565b846121dc565b8493601f821160011461161c5790807f3df780efa5c609b553af1a385e8b7388625514bfaf1c51a21649a26414a886e1956116079594935f92611611575b50508160011b915f199060031b1c1916179055612221565b91604051338152a2005b0151905087806115ef565b601f19821694835f52865f20915f5b8888821061168e5750509183916001936116079796957f3df780efa5c609b553af1a385e8b7388625514bfaf1c51a21649a26414a886e19910611676575b505050811b019055612221565b01515f1960f88460031b161c19169055878080611669565b600184958293958501518155019401920161162b565b60405162461bcd60e51b815260048101879052601960248201527f43726564656e7469616c20616c7265616479207369676e6564000000000000006044820152606490fd5b34610131576101636116fa36611bd4565b90805f525f602052611712600160405f200154611ea9565b611eca565b34610131576040366003190112610131576001600160401b0360043581811161013157611748903690600401611b7f565b6024359182116101315761178661176560ff933690600401611b7f565b91604051908051906103ec60209684888096818601966103da81838a611bfa565b810160038152030190206040519161179d83611ad6565b6040516117ae816104258186611d0f565b835260018060a01b039182600182015416938581019485526040516117da816104258160028701611d0f565b60408201526040516117f3816104258160038701611d0f565b60608201526004820154608082015261183c600860058401549360a084019485526118206006820161228d565b60c08501526118316007820161228d565b60e085015201611da0565b91610100820192835261185282515115156122ef565b51421015611952578160406104fe611877936104f9836118809751015151151561233b565b9092919261244f565b828085511691160361190d57838151910120915116905f525f825260405f20905f52815260ff60405f205416156118ba5760405160018152f35b6084906040519062461bcd60e51b82526004820152602660248201527f49737375657220646f6573206e6f7420686176652074686520726571756972656044820152656420726f6c6560d01b6064820152fd5b60405162461bcd60e51b815260048101859052601860248201527f496e76616c69642063726564656e7469616c2070726f6f6600000000000000006044820152606490fd5b60405162461bcd60e51b815260048101879052601260248201527110dc9959195b9d1a585b08195e1c1a5c995960721b6044820152606490fd5b34610131575f3660031901126101315760206040517fb0cb8bdac52adce51e309730bc71fbdb184591762e8ddac0d37a93e3f2c2c45d8152f35b34610131576020366003190112610131576004355f525f6020526020600160405f200154604051908152f35b34610131576020366003190112610131576004356001600160401b03811161013157611a2c611a276040923690600401611b7f565b612169565b82519182526020820152f35b34610131576020366003190112610131576004356001600160401b038111610131576004611a6f60206105b1819436908501611b7f565b810160038152030190200154604051908152f35b34610131576020366003190112610131576004359063ffffffff60e01b821680920361013157602091637965db0b60e01b8114908115611ac5575b5015158152f35b6301ffc9a760e01b14905083611abe565b61012081019081106001600160401b03821117610c3957604052565b608081019081106001600160401b03821117610c3957604052565b602081019081106001600160401b03821117610c3957604052565b606081019081106001600160401b03821117610c3957604052565b604081019081106001600160401b03821117610c3957604052565b90601f801991011681019081106001600160401b03821117610c3957604052565b81601f82011215610131578035906001600160401b038211610c395760405192611bb3601f8401601f191660200185611b5e565b8284526020838301011161013157815f926020809301838601378301015290565b604090600319011261013157600435906024356001600160a01b03811681036101315790565b5f5b838110611c0b5750505f910152565b8181015183820152602001611bfc565b90602091611c3481518092818552858086019101611bfa565b601f01601f1916010190565b6001600160401b038111610c395760051b60200190565b9080601f8301121561013157813590611c6f82611c40565b92611c7d6040519485611b5e565b828452602092838086019160051b8301019280841161013157848301915b848310611cab5750505050505090565b82356001600160401b038111610131578691611ccc84848094890101611b7f565b815201920191611c9b565b90600182811c92168015611d05575b6020831014611cf157565b634e487b7160e01b5f52602260045260245ffd5b91607f1691611ce6565b905f9291805491611d1f83611cd7565b9182825260019384811690815f14611d7d5750600114611d40575b50505050565b90919394505f52602092835f2092845f945b838610611d6957505050500101905f808080611d3a565b805485870183015294019385908201611d52565b9294505050602093945060ff191683830152151560051b0101905f808080611d3a565b90604051611dad81611af2565b606060038294604051611dc4816104258185611d0f565b8452604051611dda816104258160018601611d0f565b6020850152604051611df3816104258160028601611d0f565b60408501520154910152565b604060031982011261013157600435906001600160401b03821161013157611e2991600401611b7f565b9060243590565b335f9081527f7fce187fe653c3999987939460c2f3aae14502864308dc12f1155791d80cf4ab60205260409020547fd9d062b29c8756d894f301c5167d214c34d627724cd7fc859ab9329c9330cf519060ff1615611e8b5750565b6044906040519063e2517d3f60e01b82523360048301526024820152fd5b805f525f60205260405f20335f5260205260ff60405f20541615611e8b5750565b905f9180835282602052604083209160018060a01b03169182845260205260ff604084205416155f14611f4157808352826020526040832082845260205260408320600160ff198254161790557f2f8788117e7eff1d82e926ec794901d17c78024a50270940304540a733656f0d339380a4600190565b505090565b905f9180835282602052604083209160018060a01b03169182845260205260ff6040842054165f14611f415780835282602052604083208284526020526040832060ff1981541690557ff6391f5c32d9c69d2a47ea670b442974b53935d1edc7fd64eb21e047a839171b339380a4600190565b60ff8114611ff75760ff811690601f8211611fe55760405191611fdb83611b43565b8252602082015290565b604051632cd44ac360e21b8152600490fd5b506040515f8160019182549261200c84611cd7565b8084529381811690811561208f5750600114612033575b5061203092500382611b5e565b90565b5f81815291507fb10e2d527612073b26eecdfd717e6a320cf44b4afac2b0732d9fcbe2b7fa0cf65b848310612074575061203093505081016020015f612023565b8193509081602092548385890101520191019091849261205b565b90506020925061203094915060ff191682840152151560051b8201015f612023565b60ff81146120d35760ff811690601f8211611fe55760405191611fdb83611b43565b50604051600254815f6120e583611cd7565b8083529260019081811690811561208f575060011461210b575061203092500382611b5e565b60025f90815291507f405787fa12a823e0f2b7631cc41b3ba8828b3321ca811111fa75cd3aa3bb5ace5b84831061214e575061203093505081016020015f612023565b81935090816020925483858901015201910190918492612135565b9060205f818451940193808520948161218760405193848094611bfa565b8101039060025afa156111c0575f5190565b6121a290612169565b60405190602082019283526040820152604081526121bf81611b28565b5190201490565b8181106121d1575050565b5f81556001016121c6565b9190601f81116121eb57505050565b612215925f5260205f20906020601f840160051c83019310612217575b601f0160051c01906121c6565b565b9091508190612208565b61223990602060405192828480945193849201611bfa565b810103902090565b1561224857565b60405162461bcd60e51b815260206004820152601b60248201527f43726564656e7469616c20686173206265656e207265766f6b656400000000006044820152606490fd5b90815461229981611c40565b926040936122a985519182611b5e565b82815280946020809201925f52815f20905f935b8585106122cc57505050505050565b600184819284516122e181610425818a611d0f565b8152019301940193916122bd565b156122f657565b60405162461bcd60e51b815260206004820152601960248201527f43726564656e7469616c20646f6573206e6f74206578697374000000000000006044820152606490fd5b1561234257565b60405162461bcd60e51b815260206004820152601860248201527f43726564656e7469616c206973206e6f74207369676e656400000000000000006044820152606490fd5b81519190604183036123b7576123b09250602082015190606060408401519301515f1a906123c1565b9192909190565b50505f9160029190565b91907f7fffffffffffffffffffffffffffffff5d576e7357a4501ddfe92f46681b20a0841161244457926020929160ff6080956040519485521684840152604083015260608201525f92839182805260015afa156124385780516001600160a01b0381161561242f57918190565b50809160019190565b604051903d90823e3d90fd5b5050505f9160039190565b60048110156124be5780612461575050565b6001810361247b5760405163f645eedf60e01b8152600490fd5b6002810361249c5760405163fce698f760e01b815260048101839052602490fd5b6003146124a65750565b602490604051906335e2f38360e21b82526004820152fd5b634e487b7160e01b5f52602160045260245ffd5b80516020815191012060018060a01b03602083015116916040810151602081519101209060608101516020815191012060a06080830151920151926040519560208701957fb0cb8bdac52adce51e309730bc71fbdb184591762e8ddac0d37a93e3f2c2c45d875260408801526060870152608086015260a085015260c084015260e083015260e082526101008201918083106001600160401b03841117610c395760429260405251902061258461259f565b906040519161190160f01b8352600283015260228201522090565b307f00000000000000000000000000000000000000000000000000000000000000006001600160a01b031614806126a0575b156125fa577f000000000000000000000000000000000000000000000000000000000000000090565b60405160208101907f8b73c3c69bb8fe3d512ecc4cf759cc79239f7b179b0ffacaa9a75d522b39400f82527f000000000000000000000000000000000000000000000000000000000000000060408201527f000000000000000000000000000000000000000000000000000000000000000060608201524660808201523060a082015260a0815260c081018181106001600160401b03821117610c395760405251902090565b507f000000000000000000000000000000000000000000000000000000000000000046146125d156fea2646970667358221220f2a29941b3f5a80c02e9a9d8762462ff76888557904474cfbc1e82c4c714d28964736f6c634300081400332f8788117e7eff1d82e926ec794901d17c78024a50270940304540a733656f0d","linkReferences":{}},"methodIdentifiers":{"CREDENTIAL_TYPEHASH()":"27d35000","DEFAULT_ADMIN_ROLE()":"a217fddf","GOVERNMENT_ROLE()":"9cbed582","addVerifiedIPFSHash(bytes,bytes32)":"c15f8024","dualHash(bytes)":"1a1949be","eip712Domain()":"84b0196e","getIssuedTimestamp(string)":"18671cfa","getRoleAdmin(bytes32)":"248a9ca3","grantRole(bytes32,address)":"2f2ff15d","hasRole(bytes32,address)":"91d14854","issueVerifiableCredential(string,string,string,uint256,string[],string[],string,string)":"8be103f3","renounceRole(bytes32,address)":"36568abe","revokeCredential(string)":"5e9a2d28","revokeRole(bytes32,address)":"d547741f","revokedCredentials(string)":"ac7ac604","signCredential(string,bytes)":"341459d5","supportsInterface(bytes4)":"01ffc9a7","validateDIDCredential(string,string)":"28d3253a","validateVerifiableCredential(string)":"ae76a8d3","verifiableCredentials(string)":"b1b9e895","verifiedHashes(bytes32)":"374146e2","verifyIPFSHash(bytes,bytes32)":"ec27c9c6"},"id":66}