{"abi":[{"type":"constructor","inputs":[{"name":"didManagerAddress","type":"address","internalType":"address"},{"name":"signatureManagerAddress","type":"address","internalType":"address"}],"stateMutability":"nonpayable"},{"type":"function","name":"DEFAULT_ADMIN_ROLE","inputs":[],"outputs":[{"name":"","type":"bytes32","internalType":"bytes32"}],"stateMutability":"view"},{"type":"function","name":"GOVERNMENT_ROLE","inputs":[],"outputs":[{"name":"","type":"bytes32","internalType":"bytes32"}],"stateMutability":"view"},{"type":"function","name":"RECYCLER_ROLE","inputs":[],"outputs":[{"name":"","type":"bytes32","internalType":"bytes32"}],"stateMutability":"view"},{"type":"function","name":"getRoleAdmin","inputs":[{"name":"role","type":"bytes32","internalType":"bytes32"}],"outputs":[{"name":"","type":"bytes32","internalType":"bytes32"}],"stateMutability":"view"},{"type":"function","name":"grantRole","inputs":[{"name":"role","type":"bytes32","internalType":"bytes32"},{"name":"account","type":"address","internalType":"address"}],"outputs":[],"stateMutability":"nonpayable"},{"type":"function","name":"hasRole","inputs":[{"name":"role","type":"bytes32","internalType":"bytes32"},{"name":"account","type":"address","internalType":"address"}],"outputs":[{"name":"","type":"bool","internalType":"bool"}],"stateMutability":"view"},{"type":"function","name":"renounceRole","inputs":[{"name":"role","type":"bytes32","internalType":"bytes32"},{"name":"callerConfirmation","type":"address","internalType":"address"}],"outputs":[],"stateMutability":"nonpayable"},{"type":"function","name":"reportDiscrepancy","inputs":[{"name":"tokenId","type":"uint256","internalType":"uint256"},{"name":"didHash","type":"bytes32","internalType":"bytes32"},{"name":"description","type":"string","internalType":"string"},{"name":"signature","type":"bytes","internalType":"bytes"}],"outputs":[],"stateMutability":"nonpayable"},{"type":"function","name":"revokeRole","inputs":[{"name":"role","type":"bytes32","internalType":"bytes32"},{"name":"account","type":"address","internalType":"address"}],"outputs":[],"stateMutability":"nonpayable"},{"type":"function","name":"supportsInterface","inputs":[{"name":"interfaceId","type":"bytes4","internalType":"bytes4"}],"outputs":[{"name":"","type":"bool","internalType":"bool"}],"stateMutability":"view"},{"type":"function","name":"viewDiscrepancies","inputs":[{"name":"tokenId","type":"uint256","internalType":"uint256"}],"outputs":[{"name":"","type":"tuple[]","internalType":"struct IDiscrepancyManager.Discrepancy[]","components":[{"name":"tokenId","type":"uint256","internalType":"uint256"},{"name":"didHash","type":"bytes32","internalType":"bytes32"},{"name":"description","type":"string","internalType":"string"},{"name":"signature","type":"bytes","internalType":"bytes"},{"name":"reporter","type":"address","internalType":"address"},{"name":"timestamp","type":"uint256","internalType":"uint256"}]}],"stateMutability":"view"},{"type":"event","name":"DiscrepancyReported","inputs":[{"name":"tokenId","type":"uint256","indexed":true,"internalType":"uint256"},{"name":"description","type":"string","indexed":false,"internalType":"string"},{"name":"reporter","type":"address","indexed":false,"internalType":"address"},{"name":"reportedAt","type":"uint256","indexed":false,"internalType":"uint256"}],"anonymous":false},{"type":"event","name":"RoleAdminChanged","inputs":[{"name":"role","type":"bytes32","indexed":true,"internalType":"bytes32"},{"name":"previousAdminRole","type":"bytes32","indexed":true,"internalType":"bytes32"},{"name":"newAdminRole","type":"bytes32","indexed":true,"internalType":"bytes32"}],"anonymous":false},{"type":"event","name":"RoleGranted","inputs":[{"name":"role","type":"bytes32","indexed":true,"internalType":"bytes32"},{"name":"account","type":"address","indexed":true,"internalType":"address"},{"name":"sender","type":"address","indexed":true,"internalType":"address"}],"anonymous":false},{"type":"event","name":"RoleRevoked","inputs":[{"name":"role","type":"bytes32","indexed":true,"internalType":"bytes32"},{"name":"account","type":"address","indexed":true,"internalType":"address"},{"name":"sender","type":"address","indexed":true,"internalType":"address"}],"anonymous":false},{"type":"error","name":"AccessControlBadConfirmation","inputs":[]},{"type":"error","name":"AccessControlUnauthorizedAccount","inputs":[{"name":"account","type":"address","internalType":"address"},{"name":"neededRole","type":"bytes32","internalType":"bytes32"}]}],"bytecode":{"object":"0x6080346200014e57601f6200136638819003918201601f19168301916001600160401b03831184841017620001525780849260409485528339810103126200014e576200005a6020620000528362000166565b920162000166565b6001600160a01b0391821691908215620001095716908115620000c55760018060a01b03199081600254161760025560035416176003556200009c336200017b565b50620000a833620001f9565b50620000b43362000299565b506040516110119081620003358239f35b606460405162461bcd60e51b815260206004820152602060248201527f496e76616c6964205369676e61747572654d616e6167657220616464726573736044820152fd5b60405162461bcd60e51b815260206004820152601a60248201527f496e76616c6964204449444d616e6167657220616464726573730000000000006044820152606490fd5b5f80fd5b634e487b7160e01b5f52604160045260245ffd5b51906001600160a01b03821682036200014e57565b6001600160a01b03165f8181527fad3228b676f7d3cd4284a5443f17f1962b36e491b30a40b2405849e597ba5fb5602052604081205490919060ff16620001f557818052816020526040822081835260205260408220600160ff1982541617905533915f80516020620013468339815191528180a4600190565b5090565b6001600160a01b03165f8181527f7fce187fe653c3999987939460c2f3aae14502864308dc12f1155791d80cf4ab60205260408120549091907fd9d062b29c8756d894f301c5167d214c34d627724cd7fc859ab9329c9330cf519060ff166200029457808352826020526040832082845260205260408320600160ff198254161790555f8051602062001346833981519152339380a4600190565b505090565b6001600160a01b03165f8181527f49dd2aaa43a6b74424c2b8eb8f9c72976992a382f1eba24b5d982708e81bcdf660205260408120549091907f11d2c681bc9c10ed61f9a422c0dbaaddc4054ce58ec726aca73e7e4d31bcd1549060ff166200029457808352826020526040832082845260205260408320600160ff198254161790555f8051602062001346833981519152339380a460019056fe6080806040526004361015610012575f80fd5b5f3560e01c90816301ffc9a714610c3c57508063248a9ca314610c1057806325c9b879146103af5780632f2ff15d1461038157806336568abe146103485780636303d57f1461019257806391d14854146101575780639cbed5821461011d578063a217fddf14610103578063bf313778146100c95763d547741f14610095575f80fd5b346100c5576100c36100a636610d13565b90805f525f6020526100be600160405f200154610d77565b610e34565b005b5f80fd5b346100c5575f3660031901126100c55760206040517f11d2c681bc9c10ed61f9a422c0dbaaddc4054ce58ec726aca73e7e4d31bcd1548152f35b346100c5575f3660031901126100c55760206040515f8152f35b346100c5575f3660031901126100c55760206040517fd9d062b29c8756d894f301c5167d214c34d627724cd7fc859ab9329c9330cf518152f35b346100c55761016536610d13565b905f525f60205260405f209060018060a01b03165f52602052602060ff60405f2054166040519015158152f35b346100c5576020806003193601126100c5576004355f52600180825260405f209081549267ffffffffffffffff8411610334578284604051936005916101dc8582851b0187610cab565b80865284860180945f52855f205f915b8383106102a557505050506040519484869586019181875251809252604082818801951b87010194935f905b8382106102255787870388f35b918496819592949698508190603f198b8203018552895190815181528282015183820152610277610264604084015160c0806040860152840190610d39565b6060808501519084830390850152610d39565b91608060018060a01b0381830151169083015260a08091015191015298019201920187969593919492610218565b936006888298999660409b989b516102bc81610c8f565b8554815284860154838201526040516102e3816102dc8160028b01610f4a565b0382610cab565b60408201526040516102fc816102dc8160038b01610f4a565b606082015260048601546001600160a01b031660808201528c86015460a08201528152979a96999896979290940193920191016101ec565b634e487b7160e01b5f52604160045260245ffd5b346100c55761035636610d13565b336001600160a01b0382160361036f576100c391610e34565b60405163334bd91960e11b8152600490fd5b346100c5576100c361039236610d13565b90805f525f6020526103aa600160405f200154610d77565b610db8565b346100c55760803660031901126100c55760443567ffffffffffffffff81116100c557366023820112156100c5576103f1903690602481600401359101610ccd565b60643567ffffffffffffffff81116100c557366023820112156100c557610422903690602481600401359101610ccd565b335f9081527f7fce187fe653c3999987939460c2f3aae14502864308dc12f1155791d80cf4ab602052604090205460ff168015610bd9575b15610b8857335f9081527f49dd2aaa43a6b74424c2b8eb8f9c72976992a382f1eba24b5d982708e81bcdf6602052604090205460ff1615610abc576002546040516398e5c41760e01b815260248035600483015260809082015260086084820152672922a1aca1a622a960c11b60a48201526003604482015233606482015290602090829060c49082906001600160a01b03165afa9081156109bf575f91610a9d575b5015610a61575b8151602083012060405190600435602083015260408201523360601b60608201526054815280608081011067ffffffffffffffff6080830111176103345760808101604052805160208201209060018060a01b0360035416916388dd23db60e01b60808301526084820152606060a4820152602061058560e4830185610d39565b3360c48401526080830190839003607f190181855afa9081156109bf575f91610a2a575b50156109f157335f9081527f49dd2aaa43a6b74424c2b8eb8f9c72976992a382f1eba24b5d982708e81bcdf6602090815260409091205461063b929060ff16156109ca577f11d2c681bc9c10ed61f9a422c0dbaaddc4054ce58ec726aca73e7e4d31bcd154905b6040516306624bf560e21b815233600482015260248101929092529092839190829081906044820190565b03915afa9081156109bf575f91610990575b5015610955576004355f52600160205260405f20906040519061066f82610c8f565b6004358252602435602083015283604083015260608201523360808201524260a0820152815491680100000000000000008310156103345760018301808255831015610941575f5260205f2090805160068402830155602081015160016006850284010155604081015180519067ffffffffffffffff821161033457819061071182610703600260068a0289010154610ebf565b600260068a02890101610ef7565b602090601f83116001146108c9575f926108be575b50508160011b915f199060031b1c191617600260068502840101555b606081015180519067ffffffffffffffff82116103345761077d8261076f60036006890288010154610ebf565b600360068902880101610ef7565b602090601f831160011461084157928260069360a093600597965f92610836575b50508160011b915f199060031b1c1916176003848802860101555b6004838702850101600180841b036080830151166bffffffffffffffffffffffff841b825416179055015193020101557f0b1fb912a63e37f9e6762408bc963106578754fd35b6b155005560169614b92361081f60405192606084526060840190610d39565b9133602082015242604082015280600435930390a2005b01519050898061079e565b906003600687028601015f5260205f20915f5b601f19851681106108a657508360a0936005979693600193600697601f1981161061088e575b505050811b016003848802860101556107b9565b01515f1960f88460031b161c1916905589808061087a565b91926020600181928685015181550194019201610854565b015190508680610726565b92506002600687028601015f5260205f20905f935b601f1984168510610926576001945083601f1981161061090e575b505050811b0160026006850284010155610742565b01515f1960f88460031b161c191690558680806108f9565b818101518355602094850194600190930192909101906108de565b634e487b7160e01b5f52603260045260245ffd5b60405162461bcd60e51b81526020600482015260136024820152722ab730baba3437b934bd32b21039b4b3b732b960691b6044820152606490fd5b6109b2915060203d6020116109b8575b6109aa8183610cab565b810190610ea7565b8361064d565b503d6109a0565b6040513d5f823e3d90fd5b7fd9d062b29c8756d894f301c5167d214c34d627724cd7fc859ab9329c9330cf5190610610565b60405162461bcd60e51b8152602060048201526011602482015270496e76616c6964207369676e617475726560781b6044820152606490fd5b610a54915060203d602011610a5a575b608081610a4a8293838601610cab565b8301019101610ea7565b846105a9565b503d610a3a565b60405162461bcd60e51b8152602060048201526014602482015273125b9d985b1a59081c9958de58db195c8811125160621b6044820152606490fd5b610ab6915060203d6020116109b8576109aa8183610cab565b836104fd565b6002546040516398e5c41760e01b8152602480356004830152608090820152600a60848201526911d3d59154939351539560b21b60a48201526005604482015233606482015290602090829060c49082906001600160a01b03165afa9081156109bf575f91610b69575b506105045760405162461bcd60e51b8152602060048201526016602482015275125b9d985b1a590819dbdd995c9b9b595b9d0811125160521b6044820152606490fd5b610b82915060203d6020116109b8576109aa8183610cab565b83610b26565b60405162461bcd60e51b8152602060048201526024808201527f4e6f7420617574686f72697a656420746f207265706f72742064697363726570604482015263616e637960e01b6064820152608490fd5b50335f9081527f49dd2aaa43a6b74424c2b8eb8f9c72976992a382f1eba24b5d982708e81bcdf6602052604090205460ff1661045a565b346100c55760203660031901126100c5576004355f525f6020526020600160405f200154604051908152f35b346100c55760203660031901126100c5576004359063ffffffff60e01b82168092036100c557602091637965db0b60e01b8114908115610c7e575b5015158152f35b6301ffc9a760e01b14905083610c77565b60c0810190811067ffffffffffffffff82111761033457604052565b90601f8019910116810190811067ffffffffffffffff82111761033457604052565b92919267ffffffffffffffff82116103345760405191610cf7601f8201601f191660200184610cab565b8294818452818301116100c5578281602093845f960137010152565b60409060031901126100c557600435906024356001600160a01b03811681036100c55790565b91908251928382525f5b848110610d63575050825f602080949584010152601f8019910116010190565b602081830181015184830182015201610d43565b805f525f60205260405f20335f5260205260ff60405f20541615610d985750565b60405163e2517d3f60e01b81523360048201526024810191909152604490fd5b905f9180835282602052604083209160018060a01b03169182845260205260ff604084205416155f14610e2f57808352826020526040832082845260205260408320600160ff198254161790557f2f8788117e7eff1d82e926ec794901d17c78024a50270940304540a733656f0d339380a4600190565b505090565b905f9180835282602052604083209160018060a01b03169182845260205260ff6040842054165f14610e2f5780835282602052604083208284526020526040832060ff1981541690557ff6391f5c32d9c69d2a47ea670b442974b53935d1edc7fd64eb21e047a839171b339380a4600190565b908160209103126100c5575180151581036100c55790565b90600182811c92168015610eed575b6020831014610ed957565b634e487b7160e01b5f52602260045260245ffd5b91607f1691610ece565b90601f8111610f0557505050565b5f91825260208220906020601f850160051c83019410610f40575b601f0160051c01915b828110610f3557505050565b818155600101610f29565b9092508290610f20565b905f9291805491610f5a83610ebf565b9182825260019384811690815f14610fb85750600114610f7b575b50505050565b90919394505f52602092835f2092845f945b838610610fa457505050500101905f808080610f75565b805485870183015294019385908201610f8d565b9294505050602093945060ff191683830152151560051b0101905f808080610f7556fea26469706673582212208d40900dab431e20e05cf75176873b4a77981b3755d310802be3f64f51c1f6e464736f6c634300081400332f8788117e7eff1d82e926ec794901d17c78024a50270940304540a733656f0d","linkReferences":{}},"methodIdentifiers":{"DEFAULT_ADMIN_ROLE()":"a217fddf","GOVERNMENT_ROLE()":"9cbed582","RECYCLER_ROLE()":"bf313778","getRoleAdmin(bytes32)":"248a9ca3","grantRole(bytes32,address)":"2f2ff15d","hasRole(bytes32,address)":"91d14854","renounceRole(bytes32,address)":"36568abe","reportDiscrepancy(uint256,bytes32,string,bytes)":"25c9b879","revokeRole(bytes32,address)":"d547741f","supportsInterface(bytes4)":"01ffc9a7","viewDiscrepancies(uint256)":"6303d57f"},"id":63}