{"abi":[{"type":"constructor","inputs":[{"name":"_passportCore","type":"address","internalType":"address"},{"name":"_queries","type":"address","internalType":"address"},{"name":"_didManager","type":"address","internalType":"address"},{"name":"_credentialManager","type":"address","internalType":"address"},{"name":"_signatureManager","type":"address","internalType":"address"}],"stateMutability":"nonpayable"},{"type":"function","name":"LIFECYCLE_STATUS_UPDATE_TYPEHASH","inputs":[],"outputs":[{"name":"","type":"bytes32","internalType":"bytes32"}],"stateMutability":"view"},{"type":"function","name":"UPDATE_TYPEHASH","inputs":[],"outputs":[{"name":"","type":"bytes32","internalType":"bytes32"}],"stateMutability":"view"},{"type":"function","name":"computeCarbonFootprintDigest","inputs":[{"name":"tokenId","type":"uint256","internalType":"uint256"},{"name":"carbonFootprintHash","type":"bytes32","internalType":"bytes32"}],"outputs":[{"name":"","type":"bytes32","internalType":"bytes32"}],"stateMutability":"view"},{"type":"function","name":"computeMaterialCompositionDigest","inputs":[{"name":"tokenId","type":"uint256","internalType":"uint256"},{"name":"materialCompositionHash","type":"bytes32","internalType":"bytes32"}],"outputs":[{"name":"","type":"bytes32","internalType":"bytes32"}],"stateMutability":"view"},{"type":"function","name":"credentialManager","inputs":[],"outputs":[{"name":"","type":"address","internalType":"contract ICredentialManager"}],"stateMutability":"view"},{"type":"function","name":"didManager","inputs":[],"outputs":[{"name":"","type":"address","internalType":"contract IDIDManager"}],"stateMutability":"view"},{"type":"function","name":"passportCore","inputs":[],"outputs":[{"name":"","type":"address","internalType":"contract EVBatteryPassportCore"}],"stateMutability":"view"},{"type":"function","name":"queries","inputs":[],"outputs":[{"name":"","type":"address","internalType":"contract IBatteryPassportQueries"}],"stateMutability":"view"},{"type":"function","name":"signatureManager","inputs":[],"outputs":[{"name":"","type":"address","internalType":"contract ISignatureManager"}],"stateMutability":"view"},{"type":"function","name":"updateBatteryPassport","inputs":[{"name":"tokenId","type":"uint256","internalType":"uint256"},{"name":"didHash","type":"bytes32","internalType":"bytes32"},{"name":"materialCompositionHash","type":"bytes32","internalType":"bytes32"},{"name":"carbonFootprintHash","type":"bytes32","internalType":"bytes32"},{"name":"performanceDataHash","type":"bytes32","internalType":"bytes32"},{"name":"circularityDataHash","type":"bytes32","internalType":"bytes32"},{"name":"labelsDataHash","type":"bytes32","internalType":"bytes32"},{"name":"dueDiligenceHash","type":"bytes32","internalType":"bytes32"},{"name":"generalProductInfoHash","type":"bytes32","internalType":"bytes32"},{"name":"credentialId","type":"string","internalType":"string"},{"name":"signature","type":"bytes","internalType":"bytes"}],"outputs":[],"stateMutability":"nonpayable"},{"type":"function","name":"updateBatteryStatus","inputs":[{"name":"tokenId","type":"uint256","internalType":"uint256"},{"name":"didHash","type":"bytes32","internalType":"bytes32"},{"name":"newStatus","type":"uint8","internalType":"uint8"},{"name":"signature","type":"bytes","internalType":"bytes"}],"outputs":[],"stateMutability":"nonpayable"},{"type":"function","name":"updateCarbonFootprint","inputs":[{"name":"tokenId","type":"uint256","internalType":"uint256"},{"name":"didHash","type":"bytes32","internalType":"bytes32"},{"name":"carbonFootprintHash","type":"bytes32","internalType":"bytes32"},{"name":"credentialId","type":"string","internalType":"string"},{"name":"signature","type":"bytes","internalType":"bytes"},{"name":"roleSourceType","type":"uint8","internalType":"uint8"}],"outputs":[],"stateMutability":"nonpayable"},{"type":"function","name":"updateLifecycleStatus","inputs":[{"name":"passportId","type":"bytes32","internalType":"bytes32"},{"name":"newLifecycleStatus","type":"uint8","internalType":"uint8"},{"name":"signature","type":"bytes","internalType":"bytes"},{"name":"nonce","type":"uint256","internalType":"uint256"}],"outputs":[],"stateMutability":"nonpayable"},{"type":"function","name":"updateMaterialAndDueDiligence","inputs":[{"name":"tokenId","type":"uint256","internalType":"uint256"},{"name":"didHash","type":"bytes32","internalType":"bytes32"},{"name":"materialCompositionHash","type":"bytes32","internalType":"bytes32"},{"name":"dueDiligenceHash","type":"bytes32","internalType":"bytes32"},{"name":"credentialId","type":"string","internalType":"string"},{"name":"signature","type":"bytes","internalType":"bytes"}],"outputs":[],"stateMutability":"nonpayable"},{"type":"event","name":"CarbonFootprintUpdated","inputs":[{"name":"tokenId","type":"uint256","indexed":true,"internalType":"uint256"},{"name":"newCarbonFootprint","type":"bytes32","indexed":false,"internalType":"bytes32"},{"name":"updater","type":"address","indexed":false,"internalType":"address"}],"anonymous":false},{"type":"event","name":"LifecycleStatusUpdated","inputs":[{"name":"passportId","type":"bytes32","indexed":true,"internalType":"bytes32"},{"name":"newStatus","type":"uint8","indexed":false,"internalType":"enum EVBatteryPassportCore.LifecycleStatus"},{"name":"updater","type":"address","indexed":true,"internalType":"address"}],"anonymous":false},{"type":"event","name":"MaterialAndDueDiligenceUpdated","inputs":[{"name":"tokenId","type":"uint256","indexed":true,"internalType":"uint256"},{"name":"newMaterialComposition","type":"bytes32","indexed":false,"internalType":"bytes32"},{"name":"newDueDiligence","type":"bytes32","indexed":false,"internalType":"bytes32"},{"name":"updater","type":"address","indexed":false,"internalType":"address"}],"anonymous":false},{"type":"event","name":"PassportUpdated","inputs":[{"name":"tokenId","type":"uint256","indexed":true,"internalType":"uint256"},{"name":"uniqueIdentifier","type":"string","indexed":false,"internalType":"string"}],"anonymous":false},{"type":"event","name":"StatusChanged","inputs":[{"name":"tokenId","type":"uint256","indexed":true,"internalType":"uint256"},{"name":"oldStatus","type":"uint8","indexed":false,"internalType":"uint8"},{"name":"newStatus","type":"uint8","indexed":false,"internalType":"uint8"}],"anonymous":false},{"type":"error","name":"ECDSAInvalidSignature","inputs":[]},{"type":"error","name":"ECDSAInvalidSignatureLength","inputs":[{"name":"length","type":"uint256","internalType":"uint256"}]},{"type":"error","name":"ECDSAInvalidSignatureS","inputs":[{"name":"s","type":"bytes32","internalType":"bytes32"}]}],"bytecode":{"object":"0x608034620000df57601f62002b3e38819003918201601f19168301916001600160401b03831184841017620000e35780849260a094604052833981010312620000df576200004d81620000f7565b906200005c60208201620000f7565b906200006b60408201620000f7565b916200008860806200008060608501620000f7565b9301620000f7565b9160018060a01b0380948180948160018060a01b03199916895f5416175f5516876001541617600155168560025416176002551683600354161760035516906004541617600455604051612a3190816200010d8239f35b5f80fd5b634e487b7160e01b5f52604160045260245ffd5b51906001600160a01b0382168203620000df5756fe60406080815260049081361015610014575f80fd5b5f90813560e01c8063149745ce14611e7e578063217d82f914611dd257806324bc6b9114611d985780632b0c1a1e14611d70578063359c679214611d485780633a31a1f814611c1c5780633e66eca014611bf45780634fe2fd8114611bcc57806367ec42371461161f57806371661e9b146115f857806395bdbc6b14610ea9578063d3fdd87d14610e6f578063e1a05e32146109005763ea48305e146100b8575f80fd5b346108fc5760c03660031901126108fc5767ffffffffffffffff6084358181116104ab576100e990369086016125d0565b9060a4359081116104ab5761010190369086016125d0565b83548351634f558e7960e01b815286358188018190526001600160a01b039283169790949093602093909260249290858185818e5afa9081156108f2579086918b916108b3575b509161015661017a93612611565b83600354168a51808095819463ae76a8d360e01b8352868d840152898301906126ff565b03915afa801561087357899061087d575b6101959150612724565b8651631c3b7edd60e21b8152848187818d5afa908115610873578991610846575b5087519085820190815287898301526044918235958660608301528c888c888c6064978835978860808201523360a082015260a081526101f581612540565b519020925194859384926309301e5160e31b84528301525afa90811561077c578c8a928f928d939161080f575b509361024894898454169251958694859384936388dd23db60e01b855233928501612765565b03915afa8015610805578c906107cb575b6102639150612793565b8360025416908a51916398e5c41760e01b90818452873593848c820152608089820152600560848201526426a4a722a960d91b60a482015260028782015233868201528a8160c481855afa9081156107bf578f91610786575b501561054a575050508a9b50838b9798999a9b5416958b516331ca7b7360e11b815289818c818b5afa90811561054057899161050b575b5096803b15610507578b858c8f8c94859151968795869463566b95a160e11b86528501528c8401525af19081156104fd5788916104e5575b50508360025416803b156104e1578988608492745570646174654d6174657269616c284d494e45522960581b8f9796601584988a519a8b998a98635e094c8d60e11b8a528901528d8801528601528401525af180156104d757869186916104c0575b50506103c2935b87548a516306624bf560e21b815233818b019081526020810193909352958692918516918391829160400190565b03915afa80156104b65787938591610477575b506103df906127d3565b835416948751958693849263a757ffc760e01b84528301525afa91821561046d57937fd1eff831ab7c9a2f08b5050a7f516d13974bebd5d8810b81566969ce1651dfb893948693610445575b5061043f90519282849384528301906126ff565b0390a280f35b61043f919350610466903d8089833e61045e818361255c565b810190612857565b929061042b565b84513d87823e3d90fd5b809450868092503d83116104af575b610490818361255c565b810103126104ab576103df6104a58894612604565b906103d5565b8380fd5b503d610486565b88513d86823e3d90fd5b6104cb9192506124fc565b6104ab5784845f61038d565b89513d87823e3d90fd5b8780fd5b6104ee906124fc565b6104f957865f61032b565b8680fd5b8c513d8a823e3d90fd5b8880fd5b8099508a8092503d8311610539575b610524818361255c565b81010312610535578c97515f6102f3565b5f80fd5b503d61051a565b8d513d8b823e3d90fd5b8a60c485938f938d949c969c519586948593845283015260808c830152600860848301526729aaa8282624a2a960c11b60a483015260038a83015233898301525afa90811561077c578d91610743575b50156106f5578b9c8b9c98999a9b516328a5423f60e21b81528a818d81855afa9081156106eb578a916106ba575b5097813b156106b657848c8f8f93948d958692519788968795635b8929e360e11b87528601528d8501528a8401525af19081156104fd5788916106a2575b50508360025416803b156104e157898860a4927f5570646174654d6174657269616c416e6444756544696c6967656e63652853558f9796602784988a519a8b998a98635e094c8d60e11b8a528901528d8801528601528401526650504c4945522960c81b60848401525af180156104d7578691869161068b575b50506103c293610394565b6106969192506124fc565b6104ab5784845f610680565b6106ab906124fc565b6104f957865f610606565b8980fd5b809a508b8092503d83116106e4575b6106d3818361255c565b81010312610535578d98515f6105c8565b503d6106c9565b8e513d8c823e3d90fd5b8a5162461bcd60e51b8152808a018990526025818801527f416363657373207265737472696374656420746f20617574686f72697a6564208186015264726f6c657360d81b81850152608490fd5b90508881813d8311610775575b61075a818361255c565b810103126107715761076b90612604565b5f61059a565b8c80fd5b503d610750565b8c513d8f823e3d90fd5b90508a81813d83116107b8575b61079d818361255c565b810103126107b4576107ae90612604565b5f6102bc565b8e80fd5b503d610793565b8f8f51903d90823e3d90fd5b508781813d83116107fe575b6107e1818361255c565b810103126107fa576107f561026391612604565b610259565b8b80fd5b503d6107d7565b8b513d8e823e3d90fd5b939250505081813d831161083f575b610828818361255c565b81010312610535575188908a908d90610248610222565b503d61081e565b90508481813d831161086c575b61085d818361255c565b8101031261053557515f6101b6565b503d610853565b88513d8b823e3d90fd5b508481813d83116108ac575b610893818361255c565b81010312610507576108a761019591612604565b61018b565b503d610889565b82819392503d83116108eb575b6108ca818361255c565b810103126106b65761017a916101566108e38893612604565b919350610148565b503d6108c0565b89513d8c823e3d90fd5b5080fd5b50829034610e6b576080366003190112610e6b57813590602492833560ff81168091036105355785946044359267ffffffffffffffff8085116104e157366023860112156104e157848201359081116104e157368382870101116104e15787548651634f558e7960e01b8082528482018a90526020976001600160a01b039493851693919260643592908a818a81895afa8015610e5f578e90610e25575b6109a89150612611565b8a518a8101907f0539778651e99291d802b25e2e2243c40bbcb1165f1ea4a5190c7619fa27b4c882528d8d8201528a6060820152846080820152608081526109ef81612524565b5190208b51906309301e5160e31b8252888201528a818a81895afa9d8e15610e1a579d610de9575b509b610a2d610a3392610a3c9e8a36920161259a565b906128a8565b909c919c612970565b8851623f675f60e91b815233868201529088828881875afa918215610ddf578d92610db0575b5003610d7e578751908152888482015286818681855afa8015610c7f578b90610d48575b610a909150612611565b8651986366ad63f360e01b8a5288848b0152828116998a868201528781604481865afa908115610d3e578c91610d09575b5015610cc757835488516317e626ef60e31b81529084169188828781875afa918d8315610cbc57908a93929192610c89575b508a516306624bf560e21b81526001600160a01b039091168782019081526020810192909252928391829081906040015b03915afa8015610c7f578b90610c45575b610b3f91506127d3565b6005851015610c335790818a9493923b15610c2f5784809160448b8b519485938492636a7a080360e01b845289840152610b7b8a84018d61289b565b5af18015610c2557908591610c11575b505416803b156104ab578392839288519485938492633d5d0f1360e21b845233908401525af18015610c0757610bef575b5050610beb7f7c5582b8ce9aebcd141f133e1dcb845a742d6e5251209e3bd9714fbb9871f38a9351809261289b565ba380f35b610bf8906124fc565b610c03578587610bbc565b8580fd5b85513d84823e3d90fd5b610c1a906124fc565b6104ab57838b610b8b565b88513d87823e3d90fd5b8480fd5b634e487b7160e01b8a5260218352838afd5b508681813d8311610c78575b610c5b818361255c565b81010312610c7457610c6f610b3f91612604565b610b35565b8a80fd5b503d610c51565b88513d8d823e3d90fd5b8381949293503d8311610cb5575b610ca1818361255c565b810103126105355790518891610b24610af3565b503d610c97565b8b51903d90823e3d90fd5b875162461bcd60e51b8152808501889052601e818701527f556e617574686f72697a6564206c6966656379636c65207570646174657200006044820152606490fd5b90508781813d8311610d37575b610d20818361255c565b810103126107fa57610d3190612604565b8c610ac1565b503d610d16565b89513d8e823e3d90fd5b508681813d8311610d77575b610d5e818361255c565b81010312610c7457610d72610a9091612604565b610a86565b503d610d54565b875162461bcd60e51b8152808501889052600d818701526c496e76616c6964206e6f6e636560981b6044820152606490fd5b9091508881813d8311610dd8575b610dc8818361255c565b810103126107715751908d610a62565b503d610dbe565b8a513d8f823e3d90fd5b9c50898d813d8311610e13575b610e00818361255c565b81010312610535579b519b610a2d610a17565b503d610df6565b8c51903d90823e3d90fd5b508a81813d8311610e58575b610e3b818361255c565b81010312610e5457610e4f6109a891612604565b61099e565b8d80fd5b503d610e31565b8e8d51903d90823e3d90fd5b8280fd5b50346108fc57816003193601126108fc57602090517fbdaf57f0666825eb077b4746cc97954d4df573fd7dc37b8d4287eb2f831ff4158152f35b50829034610e6b57608090816003193601126104ab5782359260449283359060ff82168092036105355767ffffffffffffffff9460643586811161050757610ef490369086016125d0565b88548651634f558e7960e01b81528087018a90526020986001600160a01b03928316976024969093928d92908c818a818e5afa80156114bc5784906115c2575b610f3e9150612611565b8360025416958b516398e5c41760e01b81528d818b35998a8a830152868d83015281808d6005610f8960848401604090600a81526911d3d59154939351539560b21b60208201520190565b9183015233606483015203915afa9081156114fe578f8f918f918f95948f908f938b9161157d575b50610fbb906126a1565b835190858201927fbdaf57f0666825eb077b4746cc97954d4df573fd7dc37b8d4287eb2f831ff41584528583015260608201523389820152888152610fff81612524565b5190209151809581936309301e5160e31b83528c8301525afa9182156114fe57918e918e938792611546575b50885493516388dd23db60e01b815293881693929183918291611052913391848e01612765565b0381855afa9081156114fe578c8f918f90938a95948991611508575b5061107890612793565b51634e5f6ac160e11b815293849182905afa9182156114fe57908d8f939287936114c6575b50516306624bf560e21b81523389820190815260208101939093529291839190829081906040015b03915afa9081156114bc57849392918f918e969161147d575b50906110ea85926127d3565b8a8760015416965180978193631df02a9b60e01b83528b8301525afa928315610e1a57926112ff575b50506101a091500151966111268861287d565b61112f8861287d565b6111388761287d565b8851630e6a82f960e11b815261114d8961287d565b888482015261115b8861287d565b87878201528a818781855afa908115610ddf578d916112ca575b501561128957908b959493929161118b8861287d565b803b156104f9578688868e836111b5958f5196879586946343b3aecd60e11b86528b86015261287d565b8d8c8401525af1801561127f5790879161126b575b50506002541690813b15610c035785608492601382968c8051998a988997635e094c8d60e11b8952880152860152840152724368616e67654261747465727953746174757360681b60648401525af18015610c0757611257575b50507fd98efe2dd5b76c52df27ca251c889b2339e9f49fdd2e02e72abbae1136a1f0149360ff845193168352820152a280f35b611260906124fc565b610c03578587611224565b611274906124fc565b610c0357858d6111ca565b8a513d89823e3d90fd5b885162461bcd60e51b81528084018b90526019818801527f496e76616c696420737461747573207472616e736974696f6e0000000000000081870152606490fd5b90508a81813d83116112f8575b6112e1818361255c565b81010312610771576112f290612604565b8d611175565b503d6112d7565b9091503d808f853e611311818561255c565b8301928c818503126107b457805190828211611462570190610240928383860312611462578c519384018481108382111761146b578d528251828111611466578561135d918501612815565b84528d830151828111611466576113788f9187908601612815565b908501528c8301518d85015260608301516060850152808301519084015260a082015160a084015260c082015160c084015260e082015160e0840152610100808301519084015261012080830151908401526101408083015182811161146657856113e4918501612815565b908401526101608083015190840152610180611401818401612604565b908401526101a0808301519087821015611466578401526101c09081830151908111611462576101a094611436918401612815565b908301526101e08082015190830152610200808201519083015261022080910151908201528d80611113565b8f80fd5b508f80fd5b8a604189634e487b7160e01b5f52525ffd5b955050508c84813d83116114b5575b611496818361255c565b81010312610e6b57828e6110ea6114ad8f97612604565b9192506110de565b503d61148c565b8c513d86823e3d90fd5b93925050945081813d83116114f7575b6114e0818361255c565b8101031261053557518e938d91908d6110c561109d565b503d6114d6565b8d513d87823e3d90fd5b955050505082813d831161153f575b611521818361255c565b81010312610c2f578d8c8e6110786115398b96612604565b9061106e565b503d611517565b935095505081813d8311611576575b61155f818361255c565b8101031261053557518e938c918e9161105261102b565b503d611555565b9750505050505082813d83116115bb575b611598818361255c565b81010312610c2f578d8f8b8f918f958f906115b5610fbb91612604565b90610fb1565b503d61158e565b508c81813d83116115f1575b6115d8818361255c565b810103126104ab576115ec610f3e91612604565b610f34565b503d6115ce565b50346108fc57816003193601126108fc57905490516001600160a01b039091168152602090f35b508234610e6b57610160366003190112610e6b5780359067ffffffffffffffff6024803590610124358381116104e15761165c90369086016125d0565b92610144358181116105075761167590369087016125d0565b88548851634f558e7960e01b81528781018990526020966001600160a01b039492851693918c908c8a828a818a5afa918215611bc2578b918d918594611b82575b506116c36116e494612611565b8b8a6002541691518095819482936398e5c41760e01b84523391840161265d565b03915afa908115611b78578a9291611b39575b509161170561172c936126a1565b8c828c896003541692519586948593849363ae76a8d360e01b85528401528c8301906126ff565b03915afa8015610805578c90611b03575b6117479150612724565b895163cac626c360e01b81529087828a81875afa918215610805578c92611ad4575b508a51918883019081528a8c84015233606084015260608352608083019383851090851117611ac257838c52825190206309301e5160e31b845260848301528b96959493928b92909189838881885afa8015611ab8578b938b938b92611a80575b50506117ed87855416955194859384936388dd23db60e01b855233928501612765565b0381855afa8015611a40578790611a4a575b6118099150612793565b8951630965288b60e41b81529087828a81865afa908115611a405788928892611a09575b508b516306624bf560e21b815233818c0190815260208101939093529291839190829081906040015b03915afa80156119ff5786906119c9575b61187191506127d3565b803b15610c2f5784895180926337007afd60e21b82528a8a830152604435868301526064356044830152608435606483015260a435608483015260c43560a483015260e43560c4830152818361010492833560e48401525af19081156104d75785916119b5575b5050806002541692833b15610c2f578493608485928b519687938492635e094c8d60e11b84528c8401528d888401526015604484015274155c19185d1950985d1d195c9e54185cdcdc1bdc9d605a1b60648401525af180156104b6578793859161199c575b505416948751958693849263a757ffc760e01b84528301525afa91821561046d57937fd1eff831ab7c9a2f08b5050a7f516d13974bebd5d8810b81566969ce1651dfb893948693610445575061043f90519282849384528301906126ff565b6119a8919294506124fc565b610e6b578591838a61193d565b6119be906124fc565b6104ab57838a6118d8565b508681813d83116119f8575b6119df818361255c565b81010312610c03576119f361187191612604565b611867565b503d6119d5565b8a513d88823e3d90fd5b975091905086813d8311611a39575b611a22818361255c565b810103126105355786611856918c9751919261182d565b503d611a18565b8b513d89823e3d90fd5b508781813d8311611a79575b611a60818361255c565b810103126104f957611a7461180991612604565b6117ff565b503d611a56565b9394509450509750813d8311611ab1575b611a9b818561255c565b810103126105355787878c978c93518f806117ca565b503d611a91565b84513d8b823e3d90fd5b8660418b634e487b7160e01b5f52525ffd5b9091508781813d8311611afc575b611aec818361255c565b810103126105355751908c611769565b503d611ae2565b508781813d8311611b32575b611b19818361255c565b810103126107fa57611b2d61174791612604565b61173d565b503d611b0f565b82819392503d8311611b71575b611b50818361255c565b810103126107715761172c91611705611b698b93612604565b9193506116f7565b503d611b46565b8d513d84823e3d90fd5b9350505081813d8311611bbb575b611b9a818361255c565b810103126108fc57898b8e6116c3611bb46116e495612604565b94506116b6565b503d611b90565b81513d85823e3d90fd5b50346108fc57816003193601126108fc5760025490516001600160a01b039091168152602090f35b50346108fc57816003193601126108fc5760015490516001600160a01b039091168152602090f35b50346108fc57611c2b366125ee565b835483516310016a4160e31b81526020966001600160a01b03909216939087818481885afa908115611d3e5790889392918891611d09575b508651808501918252602082019290925260408101949094523360608501529192909160249190611ca181608084015b03601f19810183528261255c565b51902091855194859384926309301e5160e31b84528301525afa928315611cfe5792611ccf575b5051908152f35b9091508281813d8311611cf7575b611ce7818361255c565b810103126105355751905f611cc8565b503d611cdd565b8251903d90823e3d90fd5b8481949592503d8311611d37575b611d21818361255c565b8101031261053557905187929190611ca1611c63565b503d611d17565b86513d89823e3d90fd5b508234610e6b5782600319360112610e6b575490516001600160a01b03909116815260209150f35b50346108fc57816003193601126108fc5760035490516001600160a01b039091168152602090f35b50346108fc57816003193601126108fc57602090517f0539778651e99291d802b25e2e2243c40bbcb1165f1ea4a5190c7619fa27b4c88152f35b50346108fc57611de1366125ee565b9360018060a01b0384541691835190631c3b7edd60e21b825260209687838581885afa928315611d3e579088949392918893611e49575b5090602492918751918683019384528883015260608201525f60808201523360a082015260a08152611ca181612540565b809350859192953d8311611e77575b611e62818361255c565b81010312610535579051879390916024611e18565b503d611e58565b508234610e6b5760c0366003190112610e6b5780359067ffffffffffffffff6024803590604435876064358581116108fc57611ebd90369088016125d0565b946084359081116108fc57611ed590369088016125d0565b9160a4359560ff8716809703610e6b578960018060a01b039485855416928251634f558e7960e01b81528c8c82015260209a8b828b81895afa80156124f2578d9289916124b4575b50611f2790612611565b600181036123ab57508a611f569189600254168c87518095819482936398e5c41760e01b84523391840161265d565b03915afa9081156123a1578791612366575b50611f72906126a1565b89888c828a6003541691611f9d88519687958694859463ae76a8d360e01b86528501528301906126ff565b03915afa9081156122e257869161232b575b50611fb990612724565b81516310016a4160e31b815289818c81875afa80156122e2578a86918e9389916122ec575b5085519182019081526020810193909352604083019190915233606083015261200a8160808401611c93565b5190208251906309301e5160e31b82528b82015289818981875afa9182156122e2578b928b9288916122ae575b5061205989855416955194859384936388dd23db60e01b855233928501612765565b0381855afa80156122a457859061226e575b6120759150612793565b8a51630965288b60e41b8152908b9089838c81875afa908115612264578b8b93889361222d575b516306624bf560e21b81523391810191825260208201939093529193508391829081906040015b03915afa80156122235784906121ed575b6120de91506127d3565b803b15610e6b57604483928b51948593849263518fdfa160e11b84528d8d850152898401525af18015610873576121d6575b5090818893926002541692833b15610c2f578493608485928b519687938492635e094c8d60e11b84528c8401528d888401526015604484015274155c19185d1950d85c989bdb919bdbdd1c1c9a5b9d605a1b60648401525af180156104b6578793859161199c57505416948751958693849263a757ffc760e01b84528301525afa91821561046d57937fd1eff831ab7c9a2f08b5050a7f516d13974bebd5d8810b81566969ce1651dfb893948693610445575061043f90519282849384528301906126ff565b6121e49098919392986124fc565b96909188612110565b508781813d831161221c575b612203818361255c565b810103126104ab576122176120de91612604565b6120d4565b503d6121f9565b8b513d86823e3d90fd5b505091905082813d831161225d575b612246818361255c565b81010312610c2f578b89918b6120c394519261209c565b503d61223c565b82513d88823e3d90fd5b508881813d831161229d575b612284818361255c565b81010312610c2f5761229861207591612604565b61206b565b503d61227a565b8c513d87823e3d90fd5b945050915082813d83116122db575b6122c7818361255c565b81010312610c2f57888a918d93515f612037565b503d6122bd565b83513d88823e3d90fd5b9550508092508491503d8311612324575b612307818361255c565b81010312610c2f578a8461200a8b8f95611c939051919250611fde565b503d6122fd565b8093508a8092503d831161235f575b612344818361255c565b81010312610c2f57611fb96123598d93612604565b90611faf565b503d61233a565b8094508b8092503d831161239a575b61237f818361255c565b81010312610c0357611f726123948e94612604565b90611f68565b503d612375565b84513d89823e3d90fd5b9193509193949550145f14612472578b9392918b918a8a608089600254168b8d8851958694859384936398e5c41760e01b85528385015283015261240a60848301604090600a81526911d3d59154939351539560b21b60208201520190565b90604483015233606483015203915afa9081156123a1578791612437575b50612432906126a1565b611f72565b8094508b8092503d831161246b575b612450818361255c565b81010312610c03576124326124658e94612604565b90612428565b503d612446565b8a5162461bcd60e51b8152808a018990526018818801527f496e76616c696420726f6c6520736f75726365207479706500000000000000006044820152606490fd5b92505093508a81813d83116124eb575b6124ce818361255c565b810103126104f9578d93611f276124e58e93612604565b90611f1d565b503d6124c4565b85513d8a823e3d90fd5b67ffffffffffffffff811161251057604052565b634e487b7160e01b5f52604160045260245ffd5b60a0810190811067ffffffffffffffff82111761251057604052565b60c0810190811067ffffffffffffffff82111761251057604052565b90601f8019910116810190811067ffffffffffffffff82111761251057604052565b67ffffffffffffffff811161251057601f01601f191660200190565b9291926125a68261257e565b916125b4604051938461255c565b829481845281830111610535578281602093845f960137010152565b9080601f83011215610535578160206125eb9335910161259a565b90565b6040906003190112610535576004359060243590565b5190811515820361053557565b1561261857565b60405162461bcd60e51b815260206004820152601760248201527f546f6b656e20494420646f6573206e6f742065786973740000000000000000006044820152606490fd5b908152608060208201819052600c908201526b26a0a72aa320a1aa2aa922a960a11b60a0820152600460408201526001600160a01b03909116606082015260c00190565b156126a857565b60405162461bcd60e51b815260206004820152600e60248201526d139bdd08185d5d1a1bdc9a5e995960921b6044820152606490fd5b5f5b8381106126ef5750505f910152565b81810151838201526020016126e0565b90602091612718815180928185528580860191016126de565b601f01601f1916010190565b1561272b57565b60405162461bcd60e51b8152602060048201526012602482015271125b9d985b1a590818dc9959195b9d1a585b60721b6044820152606490fd5b916127839060409295949584526060602085015260608401906126ff565b6001600160a01b03909416910152565b1561279a57565b60405162461bcd60e51b8152602060048201526011602482015270496e76616c6964207369676e617475726560781b6044820152606490fd5b156127da57565b60405162461bcd60e51b81526020600482015260136024820152722ab730baba3437b934bd32b21039b4b3b732b960691b6044820152606490fd5b81601f8201121561053557805161282b8161257e565b92612839604051948561255c565b81845260208284010111610535576125eb91602080850191016126de565b9060208282031261053557815167ffffffffffffffff8111610535576125eb9201612815565b6004111561288757565b634e487b7160e01b5f52602160045260245ffd5b9060058210156128875752565b81519190604183036128d8576128d19250602082015190606060408401519301515f1a906128e2565b9192909190565b50505f9160029190565b91907f7fffffffffffffffffffffffffffffff5d576e7357a4501ddfe92f46681b20a0841161296557926020929160ff6080956040519485521684840152604083015260608201525f92839182805260015afa156129595780516001600160a01b0381161561295057918190565b50809160019190565b604051903d90823e3d90fd5b5050505f9160039190565b6129798161287d565b80612982575050565b61298b8161287d565b600181036129a55760405163f645eedf60e01b8152600490fd5b6129ae8161287d565b600281036129cf5760405163fce698f760e01b815260048101839052602490fd5b806129db60039261287d565b146129e35750565b602490604051906335e2f38360e21b82526004820152fdfea2646970667358221220155d2b4b5cfec56765e4ab3dfa7ce7fa25e6c43529981dbb640d43d600152ab864736f6c63430008140033","linkReferences":{}},"methodIdentifiers":{"LIFECYCLE_STATUS_UPDATE_TYPEHASH()":"24bc6b91","UPDATE_TYPEHASH()":"d3fdd87d","computeCarbonFootprintDigest(uint256,bytes32)":"3a31a1f8","computeMaterialCompositionDigest(uint256,bytes32)":"217d82f9","credentialManager()":"2b0c1a1e","didManager()":"4fe2fd81","passportCore()":"71661e9b","queries()":"3e66eca0","signatureManager()":"359c6792","updateBatteryPassport(uint256,bytes32,bytes32,bytes32,bytes32,bytes32,bytes32,bytes32,bytes32,string,bytes)":"67ec4237","updateBatteryStatus(uint256,bytes32,uint8,bytes)":"95bdbc6b","updateCarbonFootprint(uint256,bytes32,bytes32,string,bytes,uint8)":"149745ce","updateLifecycleStatus(bytes32,uint8,bytes,uint256)":"e1a05e32","updateMaterialAndDueDiligence(uint256,bytes32,bytes32,bytes32,string,bytes)":"ea48305e"},"id":47}