{"abi":[{"type":"constructor","inputs":[{"name":"evBatteryPassportCoreAddress","type":"address","internalType":"address"},{"name":"didManagerAddress","type":"address","internalType":"address"},{"name":"credentialManagerAddress","type":"address","internalType":"address"},{"name":"signatureManagerAddress","type":"address","internalType":"address"}],"stateMutability":"nonpayable"},{"type":"function","name":"exists","inputs":[{"name":"tokenId","type":"uint256","internalType":"uint256"}],"outputs":[{"name":"","type":"bool","internalType":"bool"}],"stateMutability":"view"},{"type":"function","name":"getPassportsByBatchPaginated","inputs":[{"name":"batchId","type":"uint256","internalType":"uint256"},{"name":"offset","type":"uint256","internalType":"uint256"},{"name":"limit","type":"uint256","internalType":"uint256"}],"outputs":[{"name":"","type":"uint256[]","internalType":"uint256[]"}],"stateMutability":"view"},{"type":"function","name":"getPassportsByStatus","inputs":[{"name":"status","type":"uint8","internalType":"enum BatteryPassportLib.BatteryStatus"}],"outputs":[{"name":"","type":"uint256[]","internalType":"uint256[]"}],"stateMutability":"view"},{"type":"function","name":"getTokenCounter","inputs":[],"outputs":[{"name":"","type":"uint256","internalType":"uint256"}],"stateMutability":"view"},{"type":"function","name":"getUserOrganization","inputs":[{"name":"user","type":"address","internalType":"address"}],"outputs":[{"name":"","type":"bytes32","internalType":"bytes32"}],"stateMutability":"view"},{"type":"function","name":"hashTypedDataV4","inputs":[{"name":"structHash","type":"bytes32","internalType":"bytes32"}],"outputs":[{"name":"","type":"bytes32","internalType":"bytes32"}],"stateMutability":"view"},{"type":"function","name":"queryCarbonFootprint","inputs":[{"name":"tokenId","type":"uint256","internalType":"uint256"},{"name":"didHash","type":"bytes32","internalType":"bytes32"},{"name":"signature","type":"bytes","internalType":"bytes"}],"outputs":[{"name":"","type":"bytes32","internalType":"bytes32"}],"stateMutability":"nonpayable"},{"type":"function","name":"queryDueDiligence","inputs":[{"name":"tokenId","type":"uint256","internalType":"uint256"},{"name":"didHash","type":"bytes32","internalType":"bytes32"},{"name":"signature","type":"bytes","internalType":"bytes"}],"outputs":[{"name":"","type":"bytes32","internalType":"bytes32"}],"stateMutability":"view"},{"type":"function","name":"queryGeneralProductInfo","inputs":[{"name":"tokenId","type":"uint256","internalType":"uint256"},{"name":"didHash","type":"bytes32","internalType":"bytes32"},{"name":"signature","type":"bytes","internalType":"bytes"}],"outputs":[{"name":"","type":"bytes32","internalType":"bytes32"}],"stateMutability":"view"},{"type":"function","name":"queryMaterialComposition","inputs":[{"name":"tokenId","type":"uint256","internalType":"uint256"},{"name":"didHash","type":"bytes32","internalType":"bytes32"},{"name":"signature","type":"bytes","internalType":"bytes"}],"outputs":[{"name":"","type":"bytes32","internalType":"bytes32"}],"stateMutability":"view"},{"type":"function","name":"queryPublicProductInfo","inputs":[{"name":"tokenId","type":"uint256","internalType":"uint256"},{"name":"didHash","type":"bytes32","internalType":"bytes32"}],"outputs":[{"name":"","type":"string","internalType":"string"}],"stateMutability":"view"},{"type":"function","name":"viewBatteryPassport","inputs":[{"name":"tokenId","type":"uint256","internalType":"uint256"}],"outputs":[{"name":"bp","type":"tuple","internalType":"struct BatteryPassportLib.BatteryPassport","components":[{"name":"uniqueIdentifier","type":"string","internalType":"string"},{"name":"externalURN","type":"string","internalType":"string"},{"name":"materialCompositionHash","type":"bytes32","internalType":"bytes32"},{"name":"carbonFootprintHash","type":"bytes32","internalType":"bytes32"},{"name":"performanceDataHash","type":"bytes32","internalType":"bytes32"},{"name":"circularityDataHash","type":"bytes32","internalType":"bytes32"},{"name":"labelsDataHash","type":"bytes32","internalType":"bytes32"},{"name":"dueDiligenceHash","type":"bytes32","internalType":"bytes32"},{"name":"generalProductInfoHash","type":"bytes32","internalType":"bytes32"},{"name":"batchId","type":"uint256","internalType":"uint256"},{"name":"qrCodeUrl","type":"string","internalType":"string"},{"name":"version","type":"uint256","internalType":"uint256"},{"name":"exists","type":"bool","internalType":"bool"},{"name":"status","type":"uint8","internalType":"enum BatteryPassportLib.BatteryStatus"},{"name":"offChainMultihash","type":"string","internalType":"string"},{"name":"offChainKeccak256","type":"bytes32","internalType":"bytes32"},{"name":"offChainSha256","type":"bytes32","internalType":"bytes32"},{"name":"organizationId","type":"bytes32","internalType":"bytes32"}]}],"stateMutability":"view"}],"bytecode":{"object":"0x608034620001b557601f62001ffe38819003918201601f191683019291906001600160401b03841183851017620001b9578160809284926040968752833981010312620001b5576200005181620001cd565b6200005f60208301620001cd565b906200007b606062000073868601620001cd565b9401620001cd565b926001600160a01b03918216928315620001635782169384156200011f578216938415620000dc5760018060a01b031993845f5416175f5583600154161760015516816003541617600355600254161760025551611e1b9081620001e38239f35b6064865162461bcd60e51b815260206004820152602060248201527f496e76616c6964205369676e61747572654d616e6167657220616464726573736044820152fd5b855162461bcd60e51b815260206004820152601a60248201527f496e76616c6964204449444d616e6167657220616464726573730000000000006044820152606490fd5b855162461bcd60e51b815260206004820152602560248201527f496e76616c69642045564261747465727950617373706f7274436f7265206164604482015264647265737360d81b6064820152608490fd5b5f80fd5b634e487b7160e01b5f52604160045260245ffd5b51906001600160a01b0382168203620001b55756fe604060808152600480361015610013575f80fd5b5f91823560e01c80631df02a9b146114135780632301fbe5146111bf5780632a003e71146111605780632ad550d31461112c578063307d4cc414610f28578063396720ed14610bb75780634980f28814610b235780634f558e7914610a9b5780636e02007d14610a19578063795b408714610614578063d5c49941146101465763e5707786146100a1575f80fd5b34610142576020366003190112610142578282358381101561013e5781548351635d716fcf60e01b815294859260249284926001600160a01b03909116916100eb91840190611589565b5afa918215610134578361010b949361010f575b505051918291826115aa565b0390f35b61012c9293503d8091833e6101248183611615565b810190611bcb565b905f806100ff565b81513d85823e3d90fd5b5080fd5b8280fd5b50346101425761015536611653565b8554845163bea51ad560e01b81528087018590529591926001600160a01b0391821691908888602481865afa9788156104435789986105f0575b506101a06101808901511515611868565b81600154168988516398e5c41760e01b9384825260209b828d8181956101ca8d87339184016118ab565b0381895afa8591816105b8575b506105b35750835b15610526575b508a518581528281806101fb33868e8401611a27565b0381885afa8491816104ea575b506104e4575082935b8b5195808752828a8801526080602488015260086084880152672922a1aca1a622a960c11b60a488015260036044880152336064880152838760c481855afa809786916104a5575b5061027a9761049f5750845b508c51809781948293835233908d84016118ab565b03915afa808c91610463575b6102a8945061045d57508a905b8215610455575b50811561044d575b506119db565b855163f45224c360e01b815287818581865afa908115610443579088918a91610410575b508751828101918252602082018890523360408301526102f981606084015b03601f198101835282611615565b51902060248851809581936309301e5160e31b8352888301525afa91821561040657908793929189926103cf575b509361034e9460025416918751958694859384936388dd23db60e01b855233928501611a67565b03915afa9081156103c5578584959692610380575b50509061037261037792611a95565b611ad5565b01519051908152f35b91509192508482813d83116103be575b61039a8183611615565b810103126103bb575082916103726103b46103779361170c565b9192610363565b80fd5b503d610390565b83513d87823e3d90fd5b8481959293503d83116103ff575b6103e78183611615565b810103126103fb579151869261034e610327565b8780fd5b503d6103dd565b86513d8a823e3d90fd5b82819392503d831161043c575b6104278183611615565b81010312610438578790515f6102cc565b8880fd5b503d61041d565b87513d8b823e3d90fd5b90505f6102a2565b91505f61029a565b90610293565b90508a84813d8311610498575b61047a8183611615565b810103126104945761048e6102a89461170c565b90610286565b8b80fd5b503d610470565b94610265565b85819692503d83116104dd575b6104bc8183611615565b810103126104d95761027a966104d28f9561170c565b9097610259565b8480fd5b503d6104b2565b93610211565b8481959293503d831161051f575b6105028183611615565b8101031261051b576105148d9361170c565b905f610208565b8380fd5b503d6104f8565b8b51632a003e7160e01b8152338a8201529192508c826024818b5afa9182156105a957908d9392918592610577575b5090610220610571926105698315156118ed565b015114611939565b5f6101e5565b8092508491943d83116105a2575b61058f8183611615565b8101031261051b57518c92610220610555565b503d610585565b8c513d86823e3d90fd5b6101df565b8581969293503d83116105e9575b6105d08183611615565b810103126104d9576105e28e9461170c565b905f6101d7565b503d6105c6565b61060d9198503d808b833e6106058183611615565b810190611719565b965f61018f565b5090346101425761062436611653565b8554855163bea51ad560e01b815280860185905296939492906001600160a01b039081168589602481845afa988915610a0f5786996109f3575b5061066f6101808a01511515611868565b60015488516398e5c41760e01b80825260209b928516969290918c8180610699338b8e84016118ab565b03818b5afa8a91816109b8575b506109b35750885b15610936575b5089519081528a81806106ca33898c840161199d565b0381895afa80156108f6578890610900575b6106e691506119db565b88516314407c3560e31b81528a818881865afa9081156108f6578b918a918a916108c1575b508b5183810191825260208201929092523360408201529061073081606084016102eb565b51902060248b51809581936309301e5160e31b83528b8301525afa9182156108b757908a92918892610881575b506107839360025416908a518095819482936388dd23db60e01b845233918c8501611a67565b03915afa8015610877578590610841575b61079e9150611a95565b813b1561051b578392916084849288519687938492635e094c8d60e11b8452878401528a60248401526014604484015273145d595c9e50d85c989bdb919bdbdd1c1c9a5b9d60621b60648401525af1801561083757610806575b505050610377606091611ad5565b67ffffffffffffffff8311610824575050825261037760605f6107f8565b634e487b7160e01b825260419052602490fd5b85513d84823e3d90fd5b508781813d8311610870575b6108578183611615565b810103126104d95761086b61079e9161170c565b610794565b503d61084d565b87513d87823e3d90fd5b8092508391933d83116108b0575b6108998183611615565b810103126108ac5751899161078361075d565b8680fd5b503d61088f565b89513d89823e3d90fd5b928092508391503d83116108ef575b6108da8183611615565b810103126103fb57518a90899061073061070b565b503d6108d0565b8a513d8a823e3d90fd5b508a81813d831161092f575b6109168183611615565b810103126103fb5761092a6106e69161170c565b6106dc565b503d61090c565b8a51632a003e7160e01b815233898201528c81602481885afa9081156109a9578a91610976575b50610220610970926105698315156118ed565b5f6106b4565b90508c81813d83116109a2575b61098d8183611615565b8101031261099e575161022061095d565b8980fd5b503d610983565b8c513d8c823e3d90fd5b6106ae565b9091508d81813d83116109ec575b6109d08183611615565b810103126109e8576109e19061170c565b905f6106a6565b8a80fd5b503d6109c6565b610a089199503d8088833e6106058183611615565b975f61065e565b88513d88823e3d90fd5b503461014257826003193601126101425782548151636e02007d60e01b81529260209184919082906001600160a01b03165afa918215610134578392610a64575b6020838351908152f35b9091506020813d8211610a93575b81610a7f60209383611615565b81010312610142576020925051905f610a5a565b3d9150610a72565b509034610142576020366003190112610142578254825163bea51ad560e01b81528235928101929092528390829060249082906001600160a01b03165afa908115610b175790610180918460209592610afc575b5050015115159051908152f35b610b1092503d8091833e6106058183611615565b5f80610aef565b505051903d90823e3d90fd5b5082903461013e576020928360031936011261014257825482516309301e5160e31b81528235928101929092528490829060249082906001600160a01b03165afa928315610bac578093610b7a575b505051908152f35b909192508382813d8311610ba5575b610b938183611615565b810103126103bb575051908380610b72565b503d610b89565b8251903d90823e3d90fd5b50903461014257610bc736611653565b8554855163bea51ad560e01b8152808601859052929693946001600160a01b0393909291841691908581602481865afa908115610a0f578691610f0e575b50610c166101808201511515611868565b60015488516398e5c41760e01b80825260209b8c9390929089169190848180610c4233888e84016118ab565b0381865afa8b9181610ecf575b50610eca5750895b15610e41575b610c7694508b51809581948293835233908b840161199d565b03915afa8015610a0f578690610e0b575b610c9191506119db565b865163034ecfd560e41b815288818581865afa908115610a0f579089918791610dd8575b50885182810191825260208201899052336040830152610cd881606084016102eb565b51902060248951809581936309301e5160e31b8352888301525afa9182156108775790889392918692610da0575b50610d2c9460025416918851958694859384936388dd23db60e01b855233928501611a67565b03915afa918215610d95578092610d50575b50506101009161037261037792611a95565b9091508482813d8311610d8e575b610d688183611615565b810103126103bb575061010091610372610d846103779361170c565b9250819350610d3e565b503d610d5e565b8451903d90823e3d90fd5b80925084919395943d8311610dd1575b610dba8183611615565b810103126104d95751919287929091610d2c610d06565b503d610db0565b82819392503d8311610e04575b610def8183611615565b81010312610e00578890515f610cb5565b8580fd5b503d610de5565b508881813d8311610e3a575b610e218183611615565b81010312610e0057610e35610c919161170c565b610c87565b503d610e17565b8b51632a003e7160e01b815233898201529492935090918c856024818a5afa9485156109a957908d949392918b96610e90575b5085610220610e8b92610569610c769915156118ed565b610c5d565b8092949650859193953d8311610ec3575b610eab8183611615565b8101031261099e5751938c9390929091610e8b610e74565b503d610ea1565b610c57565b8092508691939495963d8311610f07575b610eea8183611615565b810103126109e85790610f008e9594939261170c565b905f610c4f565b503d610ee0565b610f2291503d8088833e6106058183611615565b5f610c05565b50903461014257610f6d92610f3c36611653565b60018060a0969394961b0392836001541690875180926398e5c41760e01b8252818060209c8d9533908a8401611a27565b03915afa80156108775785906110f6575b610f8891506119db565b8284541690865163a89b35db60e01b815288818581865afa908115610a0f5790899187916110c7575b50885182810191825260208201899052336040830152610fd481606084016102eb565b51902060248951809581936309301e5160e31b8352888301525afa918215610877579088939291869261108f575b506110289460025416918851958694859384936388dd23db60e01b855233928501611a67565b03915afa918215610d9557809261104b575b505060e09161037261037792611a95565b9091508482813d8311611088575b6110638183611615565b810103126103bb575060e09161037261107e6103779361170c565b925081935061103a565b503d611059565b80925084919395943d83116110c0575b6110a98183611615565b810103126104d95751919287929091611028611002565b503d61109f565b82819392503d83116110ef575b6110de8183611615565b81010312610e00578890515f610fb1565b503d6110d4565b508781813d8311611125575b61110c8183611615565b810103126104d957611120610f889161170c565b610f7e565b503d611102565b5082346103bb5760603660031901126103bb575061115561010b92604435906024359035611c6d565b9051918291826115aa565b5082903461013e57602092836003193601126101425780356001600160a01b03818116918290036104d95790602486928654169385519485938492632a003e7160e01b84528301525afa928315610bac578093610b7a57505051908152f35b5082346103bb57816003193601126103bb5782356024359160018060a01b0394858254169385519663bea51ad560e01b885284838901528388602481895afa9788156114095784986113ed575b5061121d6101808901511515611868565b60015416908651976398e5c41760e01b90818a52602097888b8061124433888b84016118ab565b0381885afa8088916113ab575b8a9b9c5099979899155f146113a65750875b1561130c575b5050906112879493929189519586948593849384523391840161199d565b03915afa9182156113015780926112bc575b505061010b916103726112ab926119db565b519251928284938452830190611564565b9091508382813d83116112fa575b6112d48183611615565b810103126103bb575061010b916103726112f06112ab9361170c565b9250819350611299565b503d6112ca565b8551903d90823e3d90fd5b8a51632a003e7160e01b815233878201529690879060249082905afa95861561139c5790899594939291889761135f575b5086610220611354926105696112879a15156118ed565b90919293948a611269565b868193959792949698503d8311611395575b61137b8183611615565b810103126108ac575194889490939092909161135461133d565b503d611371565b8a513d89823e3d90fd5b611263565b9050898c813d83116113e6575b6113c28183611615565b810103126103fb576113d98a9b9c9a98999a61170c565b908c9b5099989799611251565b503d6113b8565b6114029198503d8086833e6106058183611615565b968861120c565b87513d86823e3d90fd5b5091346103bb5760203660031901126103bb57506114319035611ad5565b81519182916020835280519061152161145861024093846020880152610260870190611564565b93611474602084015195601f19968789830301848a0152611564565b90830151606087015260608301516080870152608083015160a087015260a083015160c087015260c083015160e08701526114e160e084015161010090818901528401516101209081890152840151610140908189015284015191610160928789830301848a0152611564565b90830151610180908188015283015115156101a0908188015283015161150d6101c09182890190611589565b8301516101e0958783030186880152611564565b9281015161020090818601528101519061022091828601520151908301520390f35b5f5b8381106115545750505f910152565b8181015183820152602001611545565b9060209161157d81518092818552858086019101611543565b601f01601f1916010190565b9060048210156115965752565b634e487b7160e01b5f52602160045260245ffd5b602090816040818301928281528551809452019301915f5b8281106115d0575050505090565b8351855293810193928101926001016115c2565b610240810190811067ffffffffffffffff82111761160157604052565b634e487b7160e01b5f52604160045260245ffd5b90601f8019910116810190811067ffffffffffffffff82111761160157604052565b67ffffffffffffffff811161160157601f01601f191660200190565b60606003198201126116c357600435916024359160443567ffffffffffffffff81116116c357816023820112156116c35780600401359061169382611637565b926116a16040519485611615565b828452602483830101116116c357815f92602460209301838601378301015290565b5f80fd5b81601f820112156116c35780516116dd81611637565b926116eb6040519485611615565b818452602082840101116116c3576117099160208085019101611543565b90565b519081151582036116c357565b906020828203126116c357815167ffffffffffffffff928382116116c3570190610240828203126116c35760405192611751846115e4565b82518181116116c357826117669185016116c7565b845260208301518181116116c357826117809185016116c7565b602085015260408301516040850152606083015160608501526080830151608085015260a083015160a085015260c083015160c085015260e083015160e085015261010080840151908501526101208084015190850152610140808401518281116116c357836117f19186016116c7565b90850152610160808401519085015261018061180e81850161170c565b908501526101a0808401519060048210156116c3578501526101c091828401519182116116c3576118409184016116c7565b908301526101e080820151908301526102008082015190830152610220809101519082015290565b1561186f57565b60405162461bcd60e51b8152602060048201526014602482015273151bdad95b88191bd95cc81b9bdd08195e1a5cdd60621b6044820152606490fd5b908152608060208201819052600a908201526911d3d59154939351539560b21b60a0820152600560408201526001600160a01b03909116606082015260c00190565b156118f457565b60405162461bcd60e51b815260206004820152601a60248201527f43616c6c657220686173206e6f2061737369676e6564206f72670000000000006044820152606490fd5b1561194057565b60405162461bcd60e51b815260206004820152602f60248201527f4e6f7420617574686f72697a656420666f722074686973206f7267616e697a6160448201526e1d1a5bdb89dcc81c185cdcdc1bdc9d608a1b6064820152608490fd5b908152608060208201819052600690820152655055424c494360d01b60a0820152600260408201526001600160a01b03909116606082015260c00190565b156119e257565b60405162461bcd60e51b815260206004820152601960248201527f496e73756666696369656e7420616363657373206c6576656c000000000000006044820152606490fd5b9081526080602082018190526008908201526729aaa8282624a2a960c11b60a0820152600360408201526001600160a01b03909116606082015260c00190565b91611a85906040929594958452606060208501526060840190611564565b6001600160a01b03909416910152565b15611a9c57565b60405162461bcd60e51b8152602060048201526011602482015270496e76616c6964207369676e617475726560781b6044820152606490fd5b61022090604051611ae5816115e4565b60608152606060208201525f9281846040819401528260608201528260808201528260a08201528260c08201528260e0820152826101008201528261012082015260606101408201528261016082015282610180820152826101a082015260606101c0820152826101e08201528261020082015201528160018060a01b038154169160246040518094819363bea51ad560e01b835260048301525afa918215611ba7578092611b9357505090565b61170992503d8091833e6106058183611615565b604051903d90823e3d90fd5b67ffffffffffffffff81116116015760051b60200190565b60209081818403126116c35780519067ffffffffffffffff82116116c357019180601f840112156116c3578251611c0181611bb3565b93611c0f6040519586611615565b818552838086019260051b8201019283116116c3578301905b828210611c36575050505090565b81518152908301908301611c28565b8051821015611c595760209160051b010190565b634e487b7160e01b5f52603260045260245ffd5b5f8054604051636118acd360e01b815260048082019490945294602494939183908790879082906001600160a01b03165afa958615611dda578396611dbe575b5085519081851015611d7c57848203918211611d6a5780821015611d625750925b611cd784611bb3565b95611ce56040519788611615565b848752601f19611cf486611bb3565b01366020890137835b858110611d0e575050505050505090565b808301808411611d5057611d229083611c45565b51611d2d828a611c45565b525f198114611d3e57600101611cfd565b634e487b7160e01b8552601184528685fd5b634e487b7160e01b8652601185528786fd5b905092611cce565b634e487b7160e01b8452601183528584fd5b5050915091925060405192602084019184831067ffffffffffffffff841117611dad57505060405280825236813790565b634e487b7160e01b84526041905282fd5b611dd39196503d8085833e6101248183611615565b945f611cad565b6040513d85823e3d90fdfea2646970667358221220334d0bdcbc7b735ab9674f3d5a4c555f5e1e15f2cc68a4a2176a9b5e6cf7623164736f6c63430008140033","linkReferences":{}},"methodIdentifiers":{"exists(uint256)":"4f558e79","getPassportsByBatchPaginated(uint256,uint256,uint256)":"2ad550d3","getPassportsByStatus(uint8)":"e5707786","getTokenCounter()":"6e02007d","getUserOrganization(address)":"2a003e71","hashTypedDataV4(bytes32)":"4980f288","queryCarbonFootprint(uint256,bytes32,bytes)":"795b4087","queryDueDiligence(uint256,bytes32,bytes)":"307d4cc4","queryGeneralProductInfo(uint256,bytes32,bytes)":"396720ed","queryMaterialComposition(uint256,bytes32,bytes)":"d5c49941","queryPublicProductInfo(uint256,bytes32)":"2301fbe5","viewBatteryPassport(uint256)":"1df02a9b"},"id":46}