{"abi":[{"type":"constructor","inputs":[{"name":"_passportCore","type":"address","internalType":"address"},{"name":"_lzEndpoint","type":"address","internalType":"address"}],"stateMutability":"nonpayable"},{"type":"function","name":"BACKUP_PROVIDER_ROLE","inputs":[],"outputs":[{"name":"","type":"bytes32","internalType":"bytes32"}],"stateMutability":"view"},{"type":"function","name":"DEFAULT_ADMIN_ROLE","inputs":[],"outputs":[{"name":"","type":"bytes32","internalType":"bytes32"}],"stateMutability":"view"},{"type":"function","name":"authorizeBackupProvider","inputs":[{"name":"provider","type":"address","internalType":"address"}],"outputs":[],"stateMutability":"nonpayable"},{"type":"function","name":"getRoleAdmin","inputs":[{"name":"role","type":"bytes32","internalType":"bytes32"}],"outputs":[{"name":"","type":"bytes32","internalType":"bytes32"}],"stateMutability":"view"},{"type":"function","name":"grantRole","inputs":[{"name":"role","type":"bytes32","internalType":"bytes32"},{"name":"account","type":"address","internalType":"address"}],"outputs":[],"stateMutability":"nonpayable"},{"type":"function","name":"hasRole","inputs":[{"name":"role","type":"bytes32","internalType":"bytes32"},{"name":"account","type":"address","internalType":"address"}],"outputs":[{"name":"","type":"bool","internalType":"bool"}],"stateMutability":"view"},{"type":"function","name":"lzEndpoint","inputs":[],"outputs":[{"name":"","type":"address","internalType":"contract ILayerZeroEndpoint"}],"stateMutability":"view"},{"type":"function","name":"passportCore","inputs":[],"outputs":[{"name":"","type":"address","internalType":"contract EVBatteryPassportCore"}],"stateMutability":"view"},{"type":"function","name":"pause","inputs":[],"outputs":[],"stateMutability":"nonpayable"},{"type":"function","name":"paused","inputs":[],"outputs":[{"name":"","type":"bool","internalType":"bool"}],"stateMutability":"view"},{"type":"function","name":"renounceRole","inputs":[{"name":"role","type":"bytes32","internalType":"bytes32"},{"name":"callerConfirmation","type":"address","internalType":"address"}],"outputs":[],"stateMutability":"nonpayable"},{"type":"function","name":"revokeRole","inputs":[{"name":"role","type":"bytes32","internalType":"bytes32"},{"name":"account","type":"address","internalType":"address"}],"outputs":[],"stateMutability":"nonpayable"},{"type":"function","name":"sendCrossChainBackup","inputs":[{"name":"tokenId","type":"uint256","internalType":"uint256"},{"name":"destinationChain","type":"uint16","internalType":"uint16"},{"name":"destinationContract","type":"address","internalType":"address"},{"name":"payload","type":"bytes","internalType":"bytes"}],"outputs":[],"stateMutability":"payable"},{"type":"function","name":"supportsInterface","inputs":[{"name":"interfaceId","type":"bytes4","internalType":"bytes4"}],"outputs":[{"name":"","type":"bool","internalType":"bool"}],"stateMutability":"view"},{"type":"function","name":"triggerBackup","inputs":[{"name":"tokenId","type":"uint256","internalType":"uint256"}],"outputs":[],"stateMutability":"nonpayable"},{"type":"function","name":"unpause","inputs":[],"outputs":[],"stateMutability":"nonpayable"},{"type":"event","name":"BackupRequested","inputs":[{"name":"tokenId","type":"uint256","indexed":true,"internalType":"uint256"},{"name":"timestamp","type":"uint256","indexed":false,"internalType":"uint256"},{"name":"requester","type":"address","indexed":false,"internalType":"address"}],"anonymous":false},{"type":"event","name":"CrossChainBackup","inputs":[{"name":"tokenId","type":"uint256","indexed":true,"internalType":"uint256"},{"name":"destinationChain","type":"uint16","indexed":false,"internalType":"uint16"},{"name":"requester","type":"address","indexed":false,"internalType":"address"}],"anonymous":false},{"type":"event","name":"Paused","inputs":[{"name":"account","type":"address","indexed":false,"internalType":"address"}],"anonymous":false},{"type":"event","name":"RoleAdminChanged","inputs":[{"name":"role","type":"bytes32","indexed":true,"internalType":"bytes32"},{"name":"previousAdminRole","type":"bytes32","indexed":true,"internalType":"bytes32"},{"name":"newAdminRole","type":"bytes32","indexed":true,"internalType":"bytes32"}],"anonymous":false},{"type":"event","name":"RoleGranted","inputs":[{"name":"role","type":"bytes32","indexed":true,"internalType":"bytes32"},{"name":"account","type":"address","indexed":true,"internalType":"address"},{"name":"sender","type":"address","indexed":true,"internalType":"address"}],"anonymous":false},{"type":"event","name":"RoleRevoked","inputs":[{"name":"role","type":"bytes32","indexed":true,"internalType":"bytes32"},{"name":"account","type":"address","indexed":true,"internalType":"address"},{"name":"sender","type":"address","indexed":true,"internalType":"address"}],"anonymous":false},{"type":"event","name":"Unpaused","inputs":[{"name":"account","type":"address","indexed":false,"internalType":"address"}],"anonymous":false},{"type":"error","name":"AccessControlBadConfirmation","inputs":[]},{"type":"error","name":"AccessControlUnauthorizedAccount","inputs":[{"name":"account","type":"address","internalType":"address"},{"name":"neededRole","type":"bytes32","internalType":"bytes32"}]},{"type":"error","name":"EnforcedPause","inputs":[]},{"type":"error","name":"ExpectedPause","inputs":[]}],"bytecode":{"object":"0x60803461014757601f610e1638819003918201601f19168301916001600160401b0383118484101761014b57808492604094855283398101031261014757610052602061004b8361015f565b920161015f565b6001600160a01b03908282161561010257169081156100bd5760018054610100600160a81b03191660089290921b610100600160a81b0316919091179055600280546001600160a01b0319169190911790556100ad33610173565b50604051610c1390816102038239f35b60405162461bcd60e51b815260206004820152601a60248201527f496e76616c6964204c617965725a65726f20656e64706f696e740000000000006044820152606490fd5b60405162461bcd60e51b815260206004820152601c60248201527f496e76616c69642050617373706f7274436f72652061646472657373000000006044820152606490fd5b5f80fd5b634e487b7160e01b5f52604160045260245ffd5b51906001600160a01b038216820361014757565b6001600160a01b03165f8181527fad3228b676f7d3cd4284a5443f17f1962b36e491b30a40b2405849e597ba5fb5602052604081205490919060ff166101fe57818052816020526040822081835260205260408220600160ff1982541617905533917f2f8788117e7eff1d82e926ec794901d17c78024a50270940304540a733656f0d8180a4600190565b509056fe6080604081815260049081361015610015575f80fd5b5f92833560e01c90816301ffc9a71461085d5750806316237ead1461052f578063248a9ca3146105055780632f2ff15d146104dd57806336568abe146104965780633f4ba83a1461042c5780635c975abb14610408578063618260bb1461038357806371661e9b146103565780638456cb59146102fc5780638c89499d146101c457806391d1485414610181578063a217fddf14610166578063b353aaa71461013d578063cc321a73146101115763d547741f146100d1575f80fd5b3461010d578060031936011261010d57610109913561010460016100f36108b1565b938387528660205286200154610954565b610a8a565b5080f35b8280fd5b838234610139578160031936011261013957602090515f80516020610bbe8339815191528152f35b5080fd5b83823461013957816003193601126101395760025490516001600160a01b039091168152602090f35b83823461013957816003193601126101395751908152602090f35b50903461010d578160031936011261010d578160209361019f6108b1565b92358152808552209060018060a01b03165f52825260ff815f20541690519015158152f35b503461010d57602090816003193601126102f8578235916101e3610b61565b5f80516020610bbe8339815191528552848152818520335f52815260ff825f205416156102b7576001548251634f558e7960e01b815294850184905281908590602490829060081c6001600160a01b03165afa9384156102ad577f5d394c19c68a1f7f725fcc081a44520ff99fcf092cdd0e3d1aaf7bd56817b96b9394610271918791610280575b50610b15565b8151904282523390820152a280f35b6102a09150833d85116102a6575b61029881836108c7565b810190610afd565b5f61026b565b503d61028e565b82513d87823e3d90fd5b808491606493519262461bcd60e51b845283015260248201527f4e6f7420617574686f72697a656420746f2074726967676572206261636b75706044820152fd5b8380fd5b83823461013957816003193601126101395760207f62e78cea01bee320cd4e420270b5ea74000d11b0c9f74754ebdbfc544b05a2589161033a6108fd565b610342610b61565b600160ff198154161760015551338152a180f35b838234610139578160031936011261013957600154905160089190911c6001600160a01b03168152602090f35b50903461010d57602036600319011261010d578035916001600160a01b038316808403610404576103b26108fd565b156103c1578361010984610975565b906020606492519162461bcd60e51b8352820152601860248201527f496e76616c69642070726f7669646572206164647265737300000000000000006044820152fd5b5f80fd5b83823461013957816003193601126101395760209060ff6001541690519015158152f35b50903461010d578260031936011261010d576104466108fd565b6001549060ff821615610488575060ff1916600155513381527f5db9ee0a495bf2e6ff9c91a7834c1ba4fdd244a5e8aa4e537bd38aeae4b073aa90602090a180f35b8251638dfc202b60e01b8152fd5b508290346101395780600319360112610139576104b16108b1565b90336001600160a01b038316036104ce5750610109919235610a8a565b5163334bd91960e11b81528390fd5b503461010d578060031936011261010d57610109913561050060016100f36108b1565b610a13565b50903461010d57602036600319011261010d57816020936001923581528085522001549051908152f35b50829060803660031901126101395782359060249384359061ffff821680920361085957604435906001600160a01b0390818316808403610855576064359367ffffffffffffffff93848611610851573660238701121561085157858401359285841161083f578851936020976105af89601f19601f85011601876108c7565b818652368183018f011161083b57818d928f8b930183890137860101526105d4610b61565b5f80516020610bbe8339815191528b528a8752888b20338c52875260ff898c205416156107e7578b878b8460015460081c16928c5180948193634f558e7960e01b83528b8301525afa9081156107dd5790610635918d916107c05750610b15565b1561077e578751908682018281108782111761076c5789528a825260025416918851906bffffffffffffffffffffffff199060601b16878201526014815288810195861193818710851761076c57868a52833b156107685786928c94926106f0859362c5803160e81b85528c604484015260c060648401526106d16106be610104850185610b7f565b6043199283868303016084870152610b7f565b903360a48501528860c48501528382030160e4840152603f1993610b7f565b03019134905af1801561075e57610736575b505083519283525033908201527f655bccc2f3a2d1a69fa38852369b684bb6cb96b929bcb24c9467e2ec6430949c9190a280f35b96929661074c5750835293945084868080610702565b634e487b7160e01b8352604190528682fd5b86513d8a823e3d90fd5b8b80fd5b634e487b7160e01b8c52604186528c8cfd5b875162461bcd60e51b8152808501879052601c818d01527f496e76616c69642064657374696e6174696f6e20636f6e7472616374000000006044820152606490fd5b6107d79150893d8b116102a65761029881836108c7565b8e61026b565b8a513d8e823e3d90fd5b885162461bcd60e51b81528086018890526029818e01527f4e6f7420617574686f72697a656420746f2073656e642063726f73732d6368616044820152680696e206261636b75760bc1b6064820152608490fd5b8c80fd5b634e487b7160e01b8b52604185528b8bfd5b8980fd5b8780fd5b8480fd5b8490843461010d57602036600319011261010d573563ffffffff60e01b811680910361010d5760209250637965db0b60e01b81149081156108a0575b5015158152f35b6301ffc9a760e01b14905083610899565b602435906001600160a01b038216820361040457565b90601f8019910116810190811067ffffffffffffffff8211176108e957604052565b634e487b7160e01b5f52604160045260245ffd5b335f9081527fad3228b676f7d3cd4284a5443f17f1962b36e491b30a40b2405849e597ba5fb5602052604081205460ff16156109365750565b6044906040519063e2517d3f60e01b82523360048301526024820152fd5b805f525f60205260405f20335f5260205260ff60405f205416156109365750565b6001600160a01b03165f8181527f3ebaabad9468966bc808f67278a02755f200d1ebd7480d027ac48a66c4b6e4c060205260408120549091905f80516020610bbe8339815191529060ff16610a0e57808352826020526040832082845260205260408320600160ff198254161790557f2f8788117e7eff1d82e926ec794901d17c78024a50270940304540a733656f0d339380a4600190565b505090565b905f9180835282602052604083209160018060a01b03169182845260205260ff604084205416155f14610a0e57808352826020526040832082845260205260408320600160ff198254161790557f2f8788117e7eff1d82e926ec794901d17c78024a50270940304540a733656f0d339380a4600190565b905f9180835282602052604083209160018060a01b03169182845260205260ff6040842054165f14610a0e5780835282602052604083208284526020526040832060ff1981541690557ff6391f5c32d9c69d2a47ea670b442974b53935d1edc7fd64eb21e047a839171b339380a4600190565b90816020910312610404575180151581036104045790565b15610b1c57565b60405162461bcd60e51b815260206004820152601760248201527f50617373706f727420646f6573206e6f742065786973740000000000000000006044820152606490fd5b60ff60015416610b6d57565b60405163d93c066560e01b8152600490fd5b91908251928382525f5b848110610ba9575050825f602080949584010152601f8019910116010190565b602081830181015184830182015201610b8956fec1fb743199ec4276188cc405419bcc8092d61dcfb100ba1c679ad33d318bbcdaa264697066735822122030b914a5a6beef6157509d53d144a4f4c1b45f36ff90eef36cef877c1f65be4564736f6c63430008140033","linkReferences":{}},"methodIdentifiers":{"BACKUP_PROVIDER_ROLE()":"cc321a73","DEFAULT_ADMIN_ROLE()":"a217fddf","authorizeBackupProvider(address)":"618260bb","getRoleAdmin(bytes32)":"248a9ca3","grantRole(bytes32,address)":"2f2ff15d","hasRole(bytes32,address)":"91d14854","lzEndpoint()":"b353aaa7","passportCore()":"71661e9b","pause()":"8456cb59","paused()":"5c975abb","renounceRole(bytes32,address)":"36568abe","revokeRole(bytes32,address)":"d547741f","sendCrossChainBackup(uint256,uint16,address,bytes)":"16237ead","supportsInterface(bytes4)":"01ffc9a7","triggerBackup(uint256)":"8c89499d","unpause()":"3f4ba83a"},"id":60}