{"abi":[{"type":"constructor","inputs":[],"stateMutability":"nonpayable"},{"type":"function","name":"DEFAULT_ADMIN_ROLE","inputs":[],"outputs":[{"name":"","type":"bytes32","internalType":"bytes32"}],"stateMutability":"view"},{"type":"function","name":"GOVERNMENT_ROLE","inputs":[],"outputs":[{"name":"","type":"bytes32","internalType":"bytes32"}],"stateMutability":"view"},{"type":"function","name":"MANUFACTURER_ROLE","inputs":[],"outputs":[{"name":"","type":"bytes32","internalType":"bytes32"}],"stateMutability":"view"},{"type":"function","name":"MINER_ROLE","inputs":[],"outputs":[{"name":"","type":"bytes32","internalType":"bytes32"}],"stateMutability":"view"},{"type":"function","name":"RECYCLER_ROLE","inputs":[],"outputs":[{"name":"","type":"bytes32","internalType":"bytes32"}],"stateMutability":"view"},{"type":"function","name":"SUPPLIER_ROLE","inputs":[],"outputs":[{"name":"","type":"bytes32","internalType":"bytes32"}],"stateMutability":"view"},{"type":"function","name":"createAndValidateSignature","inputs":[{"name":"hash","type":"bytes32","internalType":"bytes32"},{"name":"signature","type":"bytes","internalType":"bytes"},{"name":"signer","type":"address","internalType":"address"}],"outputs":[{"name":"isValid","type":"bool","internalType":"bool"}],"stateMutability":"view"},{"type":"function","name":"getRoleAdmin","inputs":[{"name":"role","type":"bytes32","internalType":"bytes32"}],"outputs":[{"name":"","type":"bytes32","internalType":"bytes32"}],"stateMutability":"view"},{"type":"function","name":"grantRole","inputs":[{"name":"role","type":"bytes32","internalType":"bytes32"},{"name":"account","type":"address","internalType":"address"}],"outputs":[],"stateMutability":"nonpayable"},{"type":"function","name":"hasRole","inputs":[{"name":"role","type":"bytes32","internalType":"bytes32"},{"name":"account","type":"address","internalType":"address"}],"outputs":[{"name":"","type":"bool","internalType":"bool"}],"stateMutability":"view"},{"type":"function","name":"isAuthorizedSigner","inputs":[{"name":"signer","type":"address","internalType":"address"},{"name":"requiredRole","type":"bytes32","internalType":"bytes32"}],"outputs":[{"name":"","type":"bool","internalType":"bool"}],"stateMutability":"view"},{"type":"function","name":"recoverSigner","inputs":[{"name":"messageHash","type":"bytes32","internalType":"bytes32"},{"name":"signature","type":"bytes","internalType":"bytes"}],"outputs":[{"name":"","type":"address","internalType":"address"}],"stateMutability":"pure"},{"type":"function","name":"renounceRole","inputs":[{"name":"role","type":"bytes32","internalType":"bytes32"},{"name":"callerConfirmation","type":"address","internalType":"address"}],"outputs":[],"stateMutability":"nonpayable"},{"type":"function","name":"revokeRole","inputs":[{"name":"role","type":"bytes32","internalType":"bytes32"},{"name":"account","type":"address","internalType":"address"}],"outputs":[],"stateMutability":"nonpayable"},{"type":"function","name":"supportsInterface","inputs":[{"name":"interfaceId","type":"bytes4","internalType":"bytes4"}],"outputs":[{"name":"","type":"bool","internalType":"bool"}],"stateMutability":"view"},{"type":"event","name":"AdminRoleAssigned","inputs":[{"name":"account","type":"address","indexed":true,"internalType":"address"}],"anonymous":false},{"type":"event","name":"RoleAdminChanged","inputs":[{"name":"role","type":"bytes32","indexed":true,"internalType":"bytes32"},{"name":"previousAdminRole","type":"bytes32","indexed":true,"internalType":"bytes32"},{"name":"newAdminRole","type":"bytes32","indexed":true,"internalType":"bytes32"}],"anonymous":false},{"type":"event","name":"RoleGranted","inputs":[{"name":"role","type":"bytes32","indexed":true,"internalType":"bytes32"},{"name":"account","type":"address","indexed":true,"internalType":"address"},{"name":"sender","type":"address","indexed":true,"internalType":"address"}],"anonymous":false},{"type":"event","name":"RoleRevoked","inputs":[{"name":"role","type":"bytes32","indexed":true,"internalType":"bytes32"},{"name":"account","type":"address","indexed":true,"internalType":"address"},{"name":"sender","type":"address","indexed":true,"internalType":"address"}],"anonymous":false},{"type":"error","name":"AccessControlBadConfirmation","inputs":[]},{"type":"error","name":"AccessControlUnauthorizedAccount","inputs":[{"name":"account","type":"address","internalType":"address"},{"name":"neededRole","type":"bytes32","internalType":"bytes32"}]},{"type":"error","name":"ECDSAInvalidSignature","inputs":[]},{"type":"error","name":"ECDSAInvalidSignatureLength","inputs":[{"name":"length","type":"uint256","internalType":"uint256"}]},{"type":"error","name":"ECDSAInvalidSignatureS","inputs":[{"name":"s","type":"bytes32","internalType":"bytes32"}]}],"bytecode":{"object":"0x608060405234610047576100123361004b565b50604051337fd7767c8ec5d0dfdebd6f4cf286b982e7f803e9990d022e75f3c27a850e1928c25f80a2610c3c90816100db8239f35b5f80fd5b6001600160a01b03165f8181527fad3228b676f7d3cd4284a5443f17f1962b36e491b30a40b2405849e597ba5fb5602052604081205490919060ff166100d657818052816020526040822081835260205260408220600160ff1982541617905533917f2f8788117e7eff1d82e926ec794901d17c78024a50270940304540a733656f0d8180a4600190565b509056fe6080604081815260049081361015610015575f80fd5b5f92833560e01c90816301ffc9a7146106bc5750806319892fd41461066a578063248a9ca3146106405780632f2ff15d1461061857806336568abe146105d15780636394f6e61461059657806388dd23db146102d757806391d1485414610288578063965288b01461024d57806397aba7f9146101d65780639cbed5821461019b578063a217fddf14610180578063a29508fc14610145578063bf313778146101065763d547741f146100c6575f80fd5b346101025780600319360112610102576100fe91356100f960016100e8610710565b9383875286602052862001546107c2565b61088b565b5080f35b8280fd5b838234610141578160031936011261014157602090517f11d2c681bc9c10ed61f9a422c0dbaaddc4054ce58ec726aca73e7e4d31bcd1548152f35b5080fd5b838234610141578160031936011261014157602090517fd1ae8bbdabd60d63e418b84f5ad6f9cba90092c9816d7724d85f0d4e4bea2c608152f35b83823461014157816003193601126101415751908152602090f35b838234610141578160031936011261014157602090517fd9d062b29c8756d894f301c5167d214c34d627724cd7fc859ab9329c9330cf518152f35b50823461024a578160031936011261024a576024359067ffffffffffffffff821161024a575061022660209361021261022f933690830161077c565b90610220604183511461090c565b35610998565b90929192610a60565b6001600160a01b031690610244821515610958565b51908152f35b80fd5b838234610141578160031936011261014157602090517feefb95e842a3287179d933b4460be539a1d5af11aa8b325bb45c5c8dc92de4ed8152f35b50823461024a578160031936011261024a57506102ce6020926102a9610710565b90355f525f60205260405f209060018060a01b03165f5260205260ff60405f20541690565b90519015158152f35b50346101025760603660031901126101025781359160243567ffffffffffffffff81116105925761030b903690830161077c565b6001600160a01b039360443585811692919083900361058e5761034895610335604184511461090c565b61033f8383610998565b90989198610a60565b861695610356871515610958565b878052602097808952868120888252895260ff87818184205416928315610550575b8315610512575b83156104d4575b8315610496575b831561045b575b5050501561041857906103a79291610ae3565b936103b185610958565b036103bf5750519015158152f35b83608492519162461bcd60e51b8352820152602f60248201527f5265636f7665726564207369676e657220646f6573206e6f74206d617463682060448201526e32bc3832b1ba32b21039b4b3b732b960891b6064820152fd5b855162461bcd60e51b8152808601899052601860248201527f556e617574686f72697a6564207369676e657220726f6c6500000000000000006044820152606490fd5b7fd9d062b29c8756d894f301c5167d214c34d627724cd7fc859ab9329c9330cf518152808c528181208b82528c5220541690505f8781610394565b7f11d2c681bc9c10ed61f9a422c0dbaaddc4054ce58ec726aca73e7e4d31bcd1548152808c528981208b82528c52898120548316935089915061038d565b7fa952726ef2588ad078edf35b066f7c7406e207cb0003bbaba8cb53eba9553e728152808c528981208b82528c528981205483169350899150610386565b7fd1ae8bbdabd60d63e418b84f5ad6f9cba90092c9816d7724d85f0d4e4bea2c608152808c528981208b82528c52898120548316935089915061037f565b7feefb95e842a3287179d933b4460be539a1d5af11aa8b325bb45c5c8dc92de4ed8152808c528981208b82528c528981205483169350899150610378565b8680fd5b8480fd5b838234610141578160031936011261014157602090517fa952726ef2588ad078edf35b066f7c7406e207cb0003bbaba8cb53eba9553e728152f35b508290346101415780600319360112610141576105ec610710565b90336001600160a01b0383160361060957506100fe91923561088b565b5163334bd91960e11b81528390fd5b50346101025780600319360112610102576100fe913561063b60016100e8610710565b610802565b50903461010257602036600319011261010257816020936001923581528085522001549051908152f35b50903461010257816003193601126101025735916001600160a01b038316830361024a57506024355f908152602081815260408083206001600160a01b0390951683529381529290205460ff166102ce565b84908434610102576020366003190112610102573563ffffffff60e01b81168091036101025760209250637965db0b60e01b81149081156106ff575b5015158152f35b6301ffc9a760e01b149050836106f8565b602435906001600160a01b038216820361072657565b5f80fd5b90601f8019910116810190811067ffffffffffffffff82111761074c57604052565b634e487b7160e01b5f52604160045260245ffd5b67ffffffffffffffff811161074c57601f01601f191660200190565b81601f820112156107265780359061079382610760565b926107a1604051948561072a565b8284526020838301011161072657815f926020809301838601378301015290565b5f8181526020818152604080832033845290915290205460ff16156107e45750565b6044906040519063e2517d3f60e01b82523360048301526024820152fd5b5f818152602081815260408083206001600160a01b038616845290915290205490919060ff16610885575f828152602081815260408083206001600160a01b03909416808452939091528120805460ff191660011790553392907f2f8788117e7eff1d82e926ec794901d17c78024a50270940304540a733656f0d9080a4600190565b50505f90565b5f818152602081815260408083206001600160a01b038616845290915290205490919060ff1615610885575f828152602081815260408083206001600160a01b03909416808452939091528120805460ff191690553392907ff6391f5c32d9c69d2a47ea670b442974b53935d1edc7fd64eb21e047a839171b9080a4600190565b1561091357565b60405162461bcd60e51b815260206004820152601860248201527f496e76616c6964207369676e6174757265206c656e67746800000000000000006044820152606490fd5b1561095f57565b60405162461bcd60e51b8152602060048201526011602482015270496e76616c6964207369676e617475726560781b6044820152606490fd5b81519190604183036109c8576109c19250602082015190606060408401519301515f1a906109d2565b9192909190565b50505f9160029190565b91907f7fffffffffffffffffffffffffffffff5d576e7357a4501ddfe92f46681b20a08411610a5557926020929160ff6080956040519485521684840152604083015260608201525f92839182805260015afa15610a495780516001600160a01b03811615610a4057918190565b50809160019190565b604051903d90823e3d90fd5b5050505f9160039190565b6004811015610acf5780610a72575050565b60018103610a8c5760405163f645eedf60e01b8152600490fd5b60028103610aad5760405163fce698f760e01b815260048101839052602490fd5b600314610ab75750565b602490604051906335e2f38360e21b82526004820152fd5b634e487b7160e01b5f52602160045260245ffd5b9190823b610b1e5790610af591610998565b506004811015610acf57159182610b0b57505090565b6001600160a01b03918216911614919050565b90916040519260209384810191630b135d3f60e11b94858452602483015260406044830152805190816064840152865f5b838110610bf1575050509181610b84608482865f83819a9899829a010152601f8019910116810103606481018452018261072a565b51915afa913d15610bea573d610b9981610760565b90610ba7604051928361072a565b81523d5f8383013e5b83610bdd575b83610bc2575b50505090565b908092935081805181010312610726570151145f8080610bbc565b9250808351101592610bb6565b6060610bb0565b81818401015160848287010152018790610b4f56fea2646970667358221220fabf67c7b1c4ffa07713514bf2b6d2e5354371fd978ff990d72f52819b24a70d64736f6c63430008140033","linkReferences":{}},"methodIdentifiers":{"DEFAULT_ADMIN_ROLE()":"a217fddf","GOVERNMENT_ROLE()":"9cbed582","MANUFACTURER_ROLE()":"965288b0","MINER_ROLE()":"6394f6e6","RECYCLER_ROLE()":"bf313778","SUPPLIER_ROLE()":"a29508fc","createAndValidateSignature(bytes32,bytes,address)":"88dd23db","getRoleAdmin(bytes32)":"248a9ca3","grantRole(bytes32,address)":"2f2ff15d","hasRole(bytes32,address)":"91d14854","isAuthorizedSigner(address,bytes32)":"19892fd4","recoverSigner(bytes32,bytes)":"97aba7f9","renounceRole(bytes32,address)":"36568abe","revokeRole(bytes32,address)":"d547741f","supportsInterface(bytes4)":"01ffc9a7"},"id":64}