{"abi":[{"type":"constructor","inputs":[],"stateMutability":"nonpayable"},{"type":"function","name":"DEFAULT_ADMIN_ROLE","inputs":[],"outputs":[{"name":"","type":"bytes32","internalType":"bytes32"}],"stateMutability":"view"},{"type":"function","name":"GOVERNMENT_ROLE","inputs":[],"outputs":[{"name":"","type":"bytes32","internalType":"bytes32"}],"stateMutability":"view"},{"type":"function","name":"addRoleToDID","inputs":[{"name":"didHash","type":"bytes32","internalType":"bytes32"},{"name":"role","type":"string","internalType":"string"}],"outputs":[],"stateMutability":"nonpayable"},{"type":"function","name":"exportDID","inputs":[{"name":"did","type":"string","internalType":"string"}],"outputs":[{"name":"exportedData","type":"string","internalType":"string"}],"stateMutability":"pure"},{"type":"function","name":"getBatteryPassport","inputs":[{"name":"tokenId","type":"uint256","internalType":"uint256"}],"outputs":[{"name":"","type":"bytes32","internalType":"bytes32"}],"stateMutability":"view"},{"type":"function","name":"getDID","inputs":[{"name":"didHash","type":"bytes32","internalType":"bytes32"}],"outputs":[{"name":"","type":"tuple","internalType":"struct SharedStructs.GaiaXDID","components":[{"name":"uri","type":"string","internalType":"string"},{"name":"publicKey","type":"address","internalType":"address"},{"name":"trustLevel","type":"uint8","internalType":"uint8"},{"name":"isVerified","type":"bool","internalType":"bool"},{"name":"serviceEndpoints","type":"string[]","internalType":"string[]"},{"name":"roles","type":"string[]","internalType":"string[]"}]}],"stateMutability":"view"},{"type":"function","name":"getIntegrationStatus","inputs":[{"name":"did","type":"string","internalType":"string"},{"name":"systemId","type":"string","internalType":"string"}],"outputs":[{"name":"status","type":"bool","internalType":"bool"}],"stateMutability":"view"},{"type":"function","name":"getRoleAdmin","inputs":[{"name":"role","type":"bytes32","internalType":"bytes32"}],"outputs":[{"name":"","type":"bytes32","internalType":"bytes32"}],"stateMutability":"view"},{"type":"function","name":"grantRole","inputs":[{"name":"role","type":"bytes32","internalType":"bytes32"},{"name":"account","type":"address","internalType":"address"}],"outputs":[],"stateMutability":"nonpayable"},{"type":"function","name":"hasRole","inputs":[{"name":"role","type":"bytes32","internalType":"bytes32"},{"name":"account","type":"address","internalType":"address"}],"outputs":[{"name":"","type":"bool","internalType":"bool"}],"stateMutability":"view"},{"type":"function","name":"integrateWithLegacySystem","inputs":[{"name":"did","type":"string","internalType":"string"},{"name":"systemId","type":"string","internalType":"string"}],"outputs":[{"name":"success","type":"bool","internalType":"bool"}],"stateMutability":"nonpayable"},{"type":"function","name":"isDIDRegistered","inputs":[{"name":"didHash","type":"bytes32","internalType":"bytes32"}],"outputs":[{"name":"","type":"bool","internalType":"bool"}],"stateMutability":"view"},{"type":"function","name":"isVerified","inputs":[{"name":"uri","type":"string","internalType":"string"}],"outputs":[{"name":"","type":"bool","internalType":"bool"}],"stateMutability":"view"},{"type":"function","name":"logDIDAction","inputs":[{"name":"didHash","type":"bytes32","internalType":"bytes32"},{"name":"action","type":"string","internalType":"string"}],"outputs":[],"stateMutability":"nonpayable"},{"type":"function","name":"pingAPI","inputs":[{"name":"did","type":"string","internalType":"string"}],"outputs":[{"name":"success","type":"bool","internalType":"bool"}],"stateMutability":"pure"},{"type":"function","name":"registerDID","inputs":[{"name":"didHash","type":"bytes32","internalType":"bytes32"},{"name":"uri","type":"string","internalType":"string"},{"name":"publicKey","type":"address","internalType":"address"},{"name":"trustLevel","type":"uint8","internalType":"uint8"},{"name":"serviceEndpoints","type":"string[]","internalType":"string[]"},{"name":"roles","type":"string[]","internalType":"string[]"}],"outputs":[],"stateMutability":"nonpayable"},{"type":"function","name":"renounceRole","inputs":[{"name":"role","type":"bytes32","internalType":"bytes32"},{"name":"callerConfirmation","type":"address","internalType":"address"}],"outputs":[],"stateMutability":"nonpayable"},{"type":"function","name":"revokeDID","inputs":[{"name":"didHash","type":"bytes32","internalType":"bytes32"}],"outputs":[],"stateMutability":"nonpayable"},{"type":"function","name":"revokeRole","inputs":[{"name":"role","type":"bytes32","internalType":"bytes32"},{"name":"account","type":"address","internalType":"address"}],"outputs":[],"stateMutability":"nonpayable"},{"type":"function","name":"setBatteryPassport","inputs":[{"name":"tokenId","type":"uint256","internalType":"uint256"},{"name":"didHash","type":"bytes32","internalType":"bytes32"}],"outputs":[],"stateMutability":"nonpayable"},{"type":"function","name":"storeDIDMetadata","inputs":[{"name":"didHash","type":"bytes32","internalType":"bytes32"},{"name":"context","type":"string","internalType":"string"}],"outputs":[{"name":"","type":"bool","internalType":"bool"}],"stateMutability":"nonpayable"},{"type":"function","name":"supportsInterface","inputs":[{"name":"interfaceId","type":"bytes4","internalType":"bytes4"}],"outputs":[{"name":"","type":"bool","internalType":"bool"}],"stateMutability":"view"},{"type":"function","name":"validateDIDRole","inputs":[{"name":"didHash","type":"bytes32","internalType":"bytes32"},{"name":"requiredRole","type":"string","internalType":"string"},{"name":"requiredTrustLevel","type":"uint8","internalType":"uint8"},{"name":"signer","type":"address","internalType":"address"}],"outputs":[{"name":"","type":"bool","internalType":"bool"}],"stateMutability":"view"},{"type":"function","name":"verifyGaiaXDID","inputs":[{"name":"didHash","type":"bytes32","internalType":"bytes32"},{"name":"status","type":"bool","internalType":"bool"}],"outputs":[],"stateMutability":"nonpayable"},{"type":"event","name":"DIDActionLogged","inputs":[{"name":"didHash","type":"bytes32","indexed":true,"internalType":"bytes32"},{"name":"action","type":"string","indexed":false,"internalType":"string"},{"name":"timestamp","type":"uint256","indexed":false,"internalType":"uint256"}],"anonymous":false},{"type":"event","name":"DIDRegistered","inputs":[{"name":"didHash","type":"bytes32","indexed":true,"internalType":"bytes32"},{"name":"role","type":"string","indexed":false,"internalType":"string"},{"name":"timestamp","type":"uint256","indexed":false,"internalType":"uint256"}],"anonymous":false},{"type":"event","name":"DIDVerified","inputs":[{"name":"didHash","type":"bytes32","indexed":true,"internalType":"bytes32"},{"name":"timestamp","type":"uint256","indexed":false,"internalType":"uint256"}],"anonymous":false},{"type":"event","name":"RoleAdminChanged","inputs":[{"name":"role","type":"bytes32","indexed":true,"internalType":"bytes32"},{"name":"previousAdminRole","type":"bytes32","indexed":true,"internalType":"bytes32"},{"name":"newAdminRole","type":"bytes32","indexed":true,"internalType":"bytes32"}],"anonymous":false},{"type":"event","name":"RoleGranted","inputs":[{"name":"role","type":"bytes32","indexed":true,"internalType":"bytes32"},{"name":"account","type":"address","indexed":true,"internalType":"address"},{"name":"sender","type":"address","indexed":true,"internalType":"address"}],"anonymous":false},{"type":"event","name":"RoleRevoked","inputs":[{"name":"role","type":"bytes32","indexed":true,"internalType":"bytes32"},{"name":"account","type":"address","indexed":true,"internalType":"address"},{"name":"sender","type":"address","indexed":true,"internalType":"address"}],"anonymous":false},{"type":"error","name":"AccessControlBadConfirmation","inputs":[]},{"type":"error","name":"AccessControlUnauthorizedAccount","inputs":[{"name":"account","type":"address","internalType":"address"},{"name":"neededRole","type":"bytes32","internalType":"bytes32"}]}],"bytecode":{"object":"0x60806040523461002d5761001233610031565b5061001c336100ae565b506040516119e990816200014e8239f35b5f80fd5b6001600160a01b03165f8181527fad3228b676f7d3cd4284a5443f17f1962b36e491b30a40b2405849e597ba5fb5602052604081205490919060ff166100aa57818052816020526040822081835260205260408220600160ff1982541617905533915f8051602062001b378339815191528180a4600190565b5090565b6001600160a01b03165f8181527f7fce187fe653c3999987939460c2f3aae14502864308dc12f1155791d80cf4ab60205260408120549091907fd9d062b29c8756d894f301c5167d214c34d627724cd7fc859ab9329c9330cf519060ff1661014857808352826020526040832082845260205260408320600160ff198254161790555f8051602062001b37833981519152339380a4600190565b50509056fe6080604081815260049081361015610015575f80fd5b5f92833560e01c90816301ffc9a714610f7957508063234c76d514610f01578063248a9ca314610ed75780632f2ff15d14610eaf57806336568abe14610e6857806339c4afa514610dd35780633e79f92614610d3457806350d2f55314610d145780635662595114610cce57806362f771fa14610b725780637be768b714610a4d5780637e8af53a146105f457806386a9850d146105bd57806391d148541461057757806398e5c417146105075780639cbed582146104cc578063a217fddf146104b1578063bc12991a1461045f578063bea51ad5146103e3578063c3618994146103a8578063d547741f1461036b578063d762989e146102fd578063e1c2c7b31461024a5763f5c60aeb14610129575f80fd5b3461024657806003193601126102465781359160243580151580910361024257610151611232565b83855260016020528285209061017161016a83546113fd565b1515611547565b600182018054909390926003906101926001600160a01b0386161515611588565b6101ae60ff8660a01c1660018110159081610236575b506113bb565b0154156101fb575060ff60a81b1990911660a89190911b60ff60a81b16179055514281527f839515eb8e70c193b339370ba79967d59a423923200cc5441f7aa7451d21193790602090a280f35b606490602086519162461bcd60e51b83528201526015602482015274111251081c9bdb195cc81b9bdd081919599a5b9959605a1b6044820152fd5b6005915011155f6101a8565b8480fd5b8280fd5b5091346102fa575061025b366111ef565b91610264611232565b61027082511515611907565b8251156102b7576020846102a58561029584878186519382858094519384920161108c565b8101600381520301902090611949565b600160ff198254161790555160018152f35b606490602085519162461bcd60e51b8352820152601960248201527f53797374656d2049442063616e6e6f7420626520656d707479000000000000006044820152fd5b80fd5b838234610367576020906103587f2796f664c3613272b3e67169325b5e3d26b8774d525ddce2700068e5bd11f261610334366110d2565b6103476103428395936118ee565b61196f565b8451918291868352868301906110ad565b42878301520390a25160018152f35b5080fd5b50346102465780600319360112610246576103a4913561039f600161038e611076565b9383875286602052862001546112ab565b611348565b5080f35b8382346103675760209060ff6103d8836102956103c4366111ef565b92908187519382858094519384920161108c565b541690519015158152f35b5091346102fa5760203660031901126102fa57829082358152600260205220549061040d826118ee565b1561041c575060209151908152f35b606490602084519162461bcd60e51b8352820152601760248201527f444944206e6f74206c696e6b656420746f20746f6b656e0000000000000000006044820152fd5b838234610367577f2796f664c3613272b3e67169325b5e3d26b8774d525ddce2700068e5bd11f261610490366110d2565b90926104a581519282849384528301906110ad565b4260208301520390a280f35b83823461036757816003193601126103675751908152602090f35b838234610367578160031936011261036757602090517fd9d062b29c8756d894f301c5167d214c34d627724cd7fc859ab9329c9330cf518152f35b509034610246576080366003190112610246576024356001600160401b03811161057357610538903690830161101d565b6044359160ff8316830361024257606435946001600160a01b03861686036102fa5750916020949161056a9335611704565b90519015158152f35b8380fd5b5090346102465781600319360112610246578160209360ff92610598611076565b903582528186528282206001600160a01b039091168252855220549151911615158152f35b5034610246578060031936011261024657602435916105da611232565b6105e6610342846118ee565b358352600260205282205580f35b509190346103675760c0366003190112610367578035906024938435916001600160401b0392838111610a495761062e903690830161101d565b6044356001600160a01b0381169290839003610a45576064359460ff8616808703610a4157608435828111610a3d5761066a903690850161116f565b9360a435838111610a3957610682903690860161116f565b9761068b611232565b815115610a015786156109bf576106ae60019384811015908161023657506113bb565b898b52602096838852888c20926106c584546113fd565b610983576106d3908461144b565b82840180546001600160b01b03191660a09390931b60ff60a01b16929092171790558451600160401b9560028301908783116109715788908d848454918186558282106108ef575b50505001908c528b848980832092935b8585106108d2575050505050506003019387519081116108c057845481865580821061084f575b5085880180958b52868b20878c925b84841061083257505050505050845190848201908282109082111761082057855287815294511580156107d5575b505050907f18490df446b73e314a85158f23bec81e7545e114322057d14d2a18cc3707ca2892916107c982519383859485528401906110ad565b9042908301520390a280f35b909192945061080e5750519394508493917f18490df446b73e314a85158f23bec81e7545e114322057d14d2a18cc3707ca285f8061078f565b634e487b7160e01b8652603290528585fd5b634e487b7160e01b8952604183528989fd5b8591816108418493518661144b565b019201920191908890610761565b858b528282888d2092830192015b82811061086b575050610752565b8c61087682546113fd565b80610886575b505001839061085d565b601f80821160011461089e57505081555b8c5f61087c565b6108b7908484528c8420920160051c8201858301611435565b81835555610897565b634e487b7160e01b8a52604184528a8afd5b90816108e08493518661144b565b0192019201919089869161072b565b889150858152868582209384019301905b83821061091157905086915061071b565b90919293945061092182546113fd565b80610936575b50500190868f928c9493610900565b8d601f8083116001146109505750505081555b8f5f610927565b610968918585528420920160051c8201858301611435565b81835555610949565b634e487b7160e01b8d52604187528d8dfd5b50885162461bcd60e51b81528087018990526016818f01527511125108185b1c9958591e481c9959da5cdd195c995960521b6044820152606490fd5b875162461bcd60e51b8152602081870152601a818e01527f5075626c6963206b65792063616e6e6f7420626520656d7074790000000000006044820152606490fd5b875162461bcd60e51b81526020818701526013818e0152725552492063616e6e6f7420626520656d70747960681b6044820152606490fd5b8a80fd5b8980fd5b8880fd5b8680fd5b8580fd5b50903461024657602092836003193601126102fa578290815192610a7084610fcd565b6060848180965283888201528385820152838282015281608082015260a00152358152600185522091600183015492815193610aab85610fcd565b610ab4826115cd565b855285850193600160a01b60019003938483168652808701908360a01c60ff1682528288019360a81c60ff161515845260028501610af19061166e565b9460808901958652600301610b059061166e565b9560a089019687528151998a99818b5251908a0160c0905260e08a01610b2a916110ad565b975116908801525160ff1690860152511515608085015251601f1992838582030160a0860152610b5991611104565b9051918382030160c0840152610b6e91611104565b0390f35b5082903461036757610b83366110d2565b9190825115610c9457808452600191602091838352610bac60ff85848920015460a81c166116c2565b7fd9d062b29c8756d894f301c5167d214c34d627724cd7fc859ab9329c9330cf518652858352818620338752835260ff828720541615610c45575b85528282528420600301805492600160401b841015610c32578301808255831015610c1f5784610c1c9596505284200161144b565b80f35b634e487b7160e01b855260328652602485fd5b634e487b7160e01b865260418752602486fd5b8086528383528186208401546001600160a01b03163314610be757815162461bcd60e51b8152808801849052600e60248201526d139bdd08185d5d1a1bdc9a5e995960921b6044820152606490fd5b815162461bcd60e51b81526020818701526014602482015273526f6c652063616e6e6f7420626520656d70747960601b6044820152606490fd5b5082346102fa5760203660031901126102fa578235906001600160401b0382116102fa5750610d05602093610d0d9236910161101d565b511515611907565b5160018152f35b5082346102fa5760203660031901126102fa575061056a602092356118ee565b5090346102465760203660031901126102465760807f2796f664c3613272b3e67169325b5e3d26b8774d525ddce2700068e5bd11f261913592610d75611232565b83855260016020526001818620610d8f61016a82546113fd565b018054610da160ff8260a81c166116c2565b60ff60a81b19169055600b8151918083528201526a1112510814995d9bdad95960aa1b6060820152426020820152a280f35b5082346102fa5760203660031901126102fa578235906001600160401b0382116102fa5750610b6e92610e089136910161101d565b90610e1582511515611907565b610e56602c825180946b3234b21d32bc30b6b836329d60a11b6020830152610e46815180926020868601910161108c565b810103600c810185520183610ffc565b519182916020835260208301906110ad565b50829034610367578060031936011261036757610e83611076565b90336001600160a01b03831603610ea057506103a4919235611348565b5163334bd91960e11b81528390fd5b50346102465780600319360112610246576103a49135610ed2600161038e611076565b6112cc565b50903461024657602036600319011261024657816020936001923581528085522001549051908152f35b5082346102fa57602092836003193601126103675780356001600160401b0381116102465760ff92610f39600193869336910161101d565b8251610f61888281610f54818301968781519384920161108c565b8101038084520182610ffc565b519020815282865220015460a81c1690519015158152f35b84908434610246576020366003190112610246573563ffffffff60e01b81168091036102465760209250637965db0b60e01b8114908115610fbc575b5015158152f35b6301ffc9a760e01b14905083610fb5565b60c081019081106001600160401b03821117610fe857604052565b634e487b7160e01b5f52604160045260245ffd5b90601f801991011681019081106001600160401b03821117610fe857604052565b81601f82011215611072578035906001600160401b038211610fe85760405192611051601f8401601f191660200185610ffc565b8284526020838301011161107257815f926020809301838601378301015290565b5f80fd5b602435906001600160a01b038216820361107257565b5f5b83811061109d5750505f910152565b818101518382015260200161108e565b906020916110c68151809281855285808601910161108c565b601f01601f1916010190565b9060406003198301126110725760043591602435906001600160401b038211611072576111019160040161101d565b90565b90815180825260208092019182818360051b85019501935f915b84831061112e5750505050505090565b909192939495848061114883856001950387528a516110ad565b980193019301919493929061111e565b6001600160401b038111610fe85760051b60200190565b9080601f830112156110725781359061118782611158565b926111956040519485610ffc565b828452602092838086019160051b8301019280841161107257848301915b8483106111c35750505050505090565b82356001600160401b0381116110725786916111e48484809489010161101d565b8152019201916111b3565b906040600319830112611072576001600160401b03600435818111611072578361121b9160040161101d565b92602435918211611072576111019160040161101d565b335f9081527f7fce187fe653c3999987939460c2f3aae14502864308dc12f1155791d80cf4ab60205260409020547fd9d062b29c8756d894f301c5167d214c34d627724cd7fc859ab9329c9330cf519060ff161561128d5750565b6044906040519063e2517d3f60e01b82523360048301526024820152fd5b805f525f60205260405f20335f5260205260ff60405f2054161561128d5750565b905f9180835282602052604083209160018060a01b03169182845260205260ff604084205416155f1461134357808352826020526040832082845260205260408320600160ff198254161790557f2f8788117e7eff1d82e926ec794901d17c78024a50270940304540a733656f0d339380a4600190565b505090565b905f9180835282602052604083209160018060a01b03169182845260205260ff6040842054165f146113435780835282602052604083208284526020526040832060ff1981541690557ff6391f5c32d9c69d2a47ea670b442974b53935d1edc7fd64eb21e047a839171b339380a4600190565b156113c257565b60405162461bcd60e51b8152602060048201526013602482015272125b9d985b1a59081d1c9d5cdd081b195d995b606a1b6044820152606490fd5b90600182811c9216801561142b575b602083101461141757565b634e487b7160e01b5f52602260045260245ffd5b91607f169161140c565b818110611440575050565b5f8155600101611435565b91909182516001600160401b038111610fe85761146882546113fd565b601f811161150c575b50602080601f83116001146114ac5750819293945f926114a1575b50508160011b915f199060031b1c1916179055565b015190505f8061148c565b90601f19831695845f52825f20925f905b8882106114f4575050836001959697106114dc575b505050811b019055565b01515f1960f88460031b161c191690555f80806114d2565b806001859682949686015181550195019301906114bd565b61153790835f5260205f20601f840160051c8101916020851061153d575b601f0160051c0190611435565b5f611471565b909150819061152a565b1561154e57565b60405162461bcd60e51b8152602060048201526012602482015271111251081b9bdd081c9959da5cdd195c995960721b6044820152606490fd5b1561158f57565b60405162461bcd60e51b8152602060048201526016602482015275444944207075626c6963206b6579206d697373696e6760501b6044820152606490fd5b9060405191825f8254926115e0846113fd565b9081845260019485811690815f1461164b575060011461160b575b505061160992500383610ffc565b565b909391505f52602090815f20935f915b81831061163357505061160993508201015f806115fb565b8554888401850152948501948794509183019161161b565b91505061160994506020925060ff191682840152151560051b8201015f806115fb565b90815461167a81611158565b926116886040519485610ffc565b8184525f90815260208082208186015b8484106116a6575050505050565b60018381926116b4856115cd565b815201920193019290611698565b156116c957565b60405162461bcd60e51b8152602060048201526013602482015272111251081a5cc81b9bdd081d995c9a599a5959606a1b6044820152606490fd5b9193925f92835260019160208381526040928386208451986117258a610fcd565b61172e826115cd565b8a5286820154908a8581019261177f600360018060a01b039687841687528b85019460ff8560a01c16865260ff606082019560a81c161515855260806117766002840161166e565b9101520161166e565b9c60a081019d8e52858716156118e6575b916117bc60ff93926117a6859451511515611547565b6117b4888851161515611588565b5115156116c2565b51169116116118a25751811691160361186d57839685975b6117e3575b5093955050505050565b805180518910156118675782908960051b0101518451611812848281610f54818301968781519384920161108c565b51902084518381019061182f85828851610f548187858d0161108c565b5190201461185d575f1988146118495796840196846117d4565b634e487b7160e01b86526011600452602486fd5b5092955050505050565b506117d9565b60649083519062461bcd60e51b82526004820152600f60248201526e0a6d2cedccae440dad2e6dac2e8c6d608b1b6044820152fd5b855162461bcd60e51b815260048101859052601860248201527f496e73756666696369656e74207472757374206c6576656c00000000000000006044820152606490fd5b339650611790565b5f52600160205261190260405f20546113fd565b151590565b1561190e57565b60405162461bcd60e51b81526020600482015260136024820152724449442063616e6e6f7420626520656d70747960681b6044820152606490fd5b60209061196392826040519483868095519384920161108c565b82019081520301902090565b1561197657565b60405162461bcd60e51b8152602060048201526015602482015274111251081a5cc81b9bdd081c9959da5cdd195c9959605a1b6044820152606490fdfea2646970667358221220247be3f455b77e95f303f9bc7319003105ca81443a8c56d7dc5255346c1632df64736f6c634300081400332f8788117e7eff1d82e926ec794901d17c78024a50270940304540a733656f0d","linkReferences":{}},"methodIdentifiers":{"DEFAULT_ADMIN_ROLE()":"a217fddf","GOVERNMENT_ROLE()":"9cbed582","addRoleToDID(bytes32,string)":"62f771fa","exportDID(string)":"39c4afa5","getBatteryPassport(uint256)":"bea51ad5","getDID(bytes32)":"7be768b7","getIntegrationStatus(string,string)":"c3618994","getRoleAdmin(bytes32)":"248a9ca3","grantRole(bytes32,address)":"2f2ff15d","hasRole(bytes32,address)":"91d14854","integrateWithLegacySystem(string,string)":"e1c2c7b3","isDIDRegistered(bytes32)":"50d2f553","isVerified(string)":"234c76d5","logDIDAction(bytes32,string)":"bc12991a","pingAPI(string)":"56625951","registerDID(bytes32,string,address,uint8,string[],string[])":"7e8af53a","renounceRole(bytes32,address)":"36568abe","revokeDID(bytes32)":"3e79f926","revokeRole(bytes32,address)":"d547741f","setBatteryPassport(uint256,bytes32)":"86a9850d","storeDIDMetadata(bytes32,string)":"d762989e","supportsInterface(bytes4)":"01ffc9a7","validateDIDRole(bytes32,string,uint8,address)":"98e5c417","verifyGaiaXDID(bytes32,bool)":"f5c60aeb"},"id":67}