{"abi":[{"type":"constructor","inputs":[{"name":"didManagerAddr","type":"address","internalType":"address"},{"name":"credentialManagerAddr","type":"address","internalType":"address"},{"name":"signatureManagerAddr","type":"address","internalType":"address"},{"name":"discrepancyManagerAddr","type":"address","internalType":"address"},{"name":"governmentDID","type":"bytes32","internalType":"bytes32"}],"stateMutability":"nonpayable"},{"type":"function","name":"DEFAULT_ADMIN_ROLE","inputs":[],"outputs":[{"name":"","type":"bytes32","internalType":"bytes32"}],"stateMutability":"view"},{"type":"function","name":"GLOBAL_AUDITOR_ROLE","inputs":[],"outputs":[{"name":"","type":"bytes32","internalType":"bytes32"}],"stateMutability":"view"},{"type":"function","name":"GOVERNMENT_ROLE","inputs":[],"outputs":[{"name":"","type":"bytes32","internalType":"bytes32"}],"stateMutability":"view"},{"type":"function","name":"MANUFACTURER_ROLE","inputs":[],"outputs":[{"name":"","type":"bytes32","internalType":"bytes32"}],"stateMutability":"view"},{"type":"function","name":"MINER_ROLE","inputs":[],"outputs":[{"name":"","type":"bytes32","internalType":"bytes32"}],"stateMutability":"view"},{"type":"function","name":"QUERY_CARBON_FOOTPRINT_TYPEHASH","inputs":[],"outputs":[{"name":"","type":"bytes32","internalType":"bytes32"}],"stateMutability":"view"},{"type":"function","name":"QUERY_DUE_DILIGENCE_TYPEHASH","inputs":[],"outputs":[{"name":"","type":"bytes32","internalType":"bytes32"}],"stateMutability":"view"},{"type":"function","name":"QUERY_GENERAL_PRODUCT_INFO_TYPEHASH","inputs":[],"outputs":[{"name":"","type":"bytes32","internalType":"bytes32"}],"stateMutability":"view"},{"type":"function","name":"QUERY_MATERIAL_COMPOSITION_TYPEHASH","inputs":[],"outputs":[{"name":"","type":"bytes32","internalType":"bytes32"}],"stateMutability":"view"},{"type":"function","name":"QUERY_PUBLIC_PRODUCT_INFO_TYPEHASH","inputs":[],"outputs":[{"name":"","type":"bytes32","internalType":"bytes32"}],"stateMutability":"view"},{"type":"function","name":"RECYCLER_ROLE","inputs":[],"outputs":[{"name":"","type":"bytes32","internalType":"bytes32"}],"stateMutability":"view"},{"type":"function","name":"SUPPLIER_ROLE","inputs":[],"outputs":[{"name":"","type":"bytes32","internalType":"bytes32"}],"stateMutability":"view"},{"type":"function","name":"TENANT_ADMIN_ROLE","inputs":[],"outputs":[{"name":"","type":"bytes32","internalType":"bytes32"}],"stateMutability":"view"},{"type":"function","name":"THIRD_PARTY_ROLE","inputs":[],"outputs":[{"name":"","type":"bytes32","internalType":"bytes32"}],"stateMutability":"view"},{"type":"function","name":"TRANSFER_PASSPORT_OWNERSHIP_TYPEHASH","inputs":[],"outputs":[{"name":"","type":"bytes32","internalType":"bytes32"}],"stateMutability":"view"},{"type":"function","name":"TRANSFER_TYPEHASH","inputs":[],"outputs":[{"name":"","type":"bytes32","internalType":"bytes32"}],"stateMutability":"view"},{"type":"function","name":"UPDATE_BATTERY_STATUS_TYPEHASH","inputs":[],"outputs":[{"name":"","type":"bytes32","internalType":"bytes32"}],"stateMutability":"view"},{"type":"function","name":"UPDATE_CARBON_FOOTPRINT_TYPEHASH","inputs":[],"outputs":[{"name":"","type":"bytes32","internalType":"bytes32"}],"stateMutability":"view"},{"type":"function","name":"UPDATE_MATERIAL_AND_DUE_DILIGENCE_TYPEHASH","inputs":[],"outputs":[{"name":"","type":"bytes32","internalType":"bytes32"}],"stateMutability":"view"},{"type":"function","name":"UPDATE_PASSPORT_TYPEHASH","inputs":[],"outputs":[{"name":"","type":"bytes32","internalType":"bytes32"}],"stateMutability":"view"},{"type":"function","name":"VERIFY_IPFS_HASH_TYPEHASH","inputs":[],"outputs":[{"name":"","type":"bytes32","internalType":"bytes32"}],"stateMutability":"view"},{"type":"function","name":"VERIFY_TYPEHASH","inputs":[],"outputs":[{"name":"","type":"bytes32","internalType":"bytes32"}],"stateMutability":"view"},{"type":"function","name":"addBatteryPassportsBatch","inputs":[{"name":"didHash","type":"bytes32","internalType":"bytes32"},{"name":"batch","type":"tuple","internalType":"struct BatteryPassportLib.PassportBatch","components":[{"name":"passports","type":"string[]","internalType":"string[]"},{"name":"externalURNs","type":"string[]","internalType":"string[]"},{"name":"materialHashes","type":"bytes32[]","internalType":"bytes32[]"},{"name":"carbonHashes","type":"bytes32[]","internalType":"bytes32[]"},{"name":"performanceHashes","type":"bytes32[]","internalType":"bytes32[]"},{"name":"circularityHashes","type":"bytes32[]","internalType":"bytes32[]"},{"name":"labelsHashes","type":"bytes32[]","internalType":"bytes32[]"},{"name":"dueDiligenceHashes","type":"bytes32[]","internalType":"bytes32[]"},{"name":"generalProductInfoHashes","type":"bytes32[]","internalType":"bytes32[]"},{"name":"qrCodeUrls","type":"string[]","internalType":"string[]"},{"name":"batchId","type":"uint256","internalType":"uint256"},{"name":"offChainMultihashes","type":"string[]","internalType":"string[]"}]},{"name":"credentialId","type":"string","internalType":"string"},{"name":"signature","type":"bytes","internalType":"bytes"}],"outputs":[],"stateMutability":"nonpayable"},{"type":"function","name":"approve","inputs":[{"name":"to","type":"address","internalType":"address"},{"name":"tokenId","type":"uint256","internalType":"uint256"}],"outputs":[],"stateMutability":"nonpayable"},{"type":"function","name":"assignOrganization","inputs":[{"name":"account","type":"address","internalType":"address"},{"name":"organizationId","type":"bytes32","internalType":"bytes32"}],"outputs":[],"stateMutability":"nonpayable"},{"type":"function","name":"balanceOf","inputs":[{"name":"owner","type":"address","internalType":"address"}],"outputs":[{"name":"","type":"uint256","internalType":"uint256"}],"stateMutability":"view"},{"type":"function","name":"batteryPassportUpdater","inputs":[],"outputs":[{"name":"","type":"address","internalType":"contract IBatteryPassportUpdater"}],"stateMutability":"view"},{"type":"function","name":"configureTenantAdmin","inputs":[{"name":"tenantAdmin","type":"address","internalType":"address"},{"name":"organizationId","type":"bytes32","internalType":"bytes32"}],"outputs":[],"stateMutability":"nonpayable"},{"type":"function","name":"createBatteryPassport","inputs":[{"name":"didHash","type":"bytes32","internalType":"bytes32"},{"name":"uid","type":"string","internalType":"string"},{"name":"externalURN","type":"string","internalType":"string"},{"name":"materialCompositionHash","type":"bytes32","internalType":"bytes32"},{"name":"carbonFootprintHash","type":"bytes32","internalType":"bytes32"},{"name":"performanceDataHash","type":"bytes32","internalType":"bytes32"},{"name":"circularityDataHash","type":"bytes32","internalType":"bytes32"},{"name":"labelsDataHash","type":"bytes32","internalType":"bytes32"},{"name":"dueDiligenceHash","type":"bytes32","internalType":"bytes32"},{"name":"generalProductInfoHash","type":"bytes32","internalType":"bytes32"},{"name":"batchId","type":"uint256","internalType":"uint256"},{"name":"qrCodeUrl","type":"string","internalType":"string"},{"name":"credentialId","type":"string","internalType":"string"},{"name":"signature","type":"bytes","internalType":"bytes"},{"name":"claimedMfgAddress","type":"address","internalType":"address"},{"name":"offChainMultihash","type":"string","internalType":"string"},{"name":"organizationId","type":"bytes32","internalType":"bytes32"},{"name":"nonce","type":"uint256","internalType":"uint256"}],"outputs":[],"stateMutability":"nonpayable"},{"type":"function","name":"eip712Domain","inputs":[],"outputs":[{"name":"fields","type":"bytes1","internalType":"bytes1"},{"name":"name","type":"string","internalType":"string"},{"name":"version","type":"string","internalType":"string"},{"name":"chainId","type":"uint256","internalType":"uint256"},{"name":"verifyingContract","type":"address","internalType":"address"},{"name":"salt","type":"bytes32","internalType":"bytes32"},{"name":"extensions","type":"uint256[]","internalType":"uint256[]"}],"stateMutability":"view"},{"type":"function","name":"exists","inputs":[{"name":"tokenId","type":"uint256","internalType":"uint256"}],"outputs":[{"name":"","type":"bool","internalType":"bool"}],"stateMutability":"view"},{"type":"function","name":"getApproved","inputs":[{"name":"tokenId","type":"uint256","internalType":"uint256"}],"outputs":[{"name":"","type":"address","internalType":"address"}],"stateMutability":"view"},{"type":"function","name":"getBatteryPassport","inputs":[{"name":"tokenId","type":"uint256","internalType":"uint256"}],"outputs":[{"name":"","type":"tuple","internalType":"struct BatteryPassportLib.BatteryPassport","components":[{"name":"uniqueIdentifier","type":"string","internalType":"string"},{"name":"externalURN","type":"string","internalType":"string"},{"name":"materialCompositionHash","type":"bytes32","internalType":"bytes32"},{"name":"carbonFootprintHash","type":"bytes32","internalType":"bytes32"},{"name":"performanceDataHash","type":"bytes32","internalType":"bytes32"},{"name":"circularityDataHash","type":"bytes32","internalType":"bytes32"},{"name":"labelsDataHash","type":"bytes32","internalType":"bytes32"},{"name":"dueDiligenceHash","type":"bytes32","internalType":"bytes32"},{"name":"generalProductInfoHash","type":"bytes32","internalType":"bytes32"},{"name":"batchId","type":"uint256","internalType":"uint256"},{"name":"qrCodeUrl","type":"string","internalType":"string"},{"name":"version","type":"uint256","internalType":"uint256"},{"name":"exists","type":"bool","internalType":"bool"},{"name":"status","type":"uint8","internalType":"enum BatteryPassportLib.BatteryStatus"},{"name":"offChainMultihash","type":"string","internalType":"string"},{"name":"offChainKeccak256","type":"bytes32","internalType":"bytes32"},{"name":"offChainSha256","type":"bytes32","internalType":"bytes32"},{"name":"organizationId","type":"bytes32","internalType":"bytes32"}]}],"stateMutability":"view"},{"type":"function","name":"getLifecycleStatus","inputs":[{"name":"passportId","type":"bytes32","internalType":"bytes32"}],"outputs":[{"name":"","type":"uint8","internalType":"enum EVBatteryPassportCore.LifecycleStatus"}],"stateMutability":"view"},{"type":"function","name":"getPassport","inputs":[{"name":"tokenId","type":"uint256","internalType":"uint256"}],"outputs":[{"name":"","type":"tuple","internalType":"struct BatteryPassportLib.BatteryPassport","components":[{"name":"uniqueIdentifier","type":"string","internalType":"string"},{"name":"externalURN","type":"string","internalType":"string"},{"name":"materialCompositionHash","type":"bytes32","internalType":"bytes32"},{"name":"carbonFootprintHash","type":"bytes32","internalType":"bytes32"},{"name":"performanceDataHash","type":"bytes32","internalType":"bytes32"},{"name":"circularityDataHash","type":"bytes32","internalType":"bytes32"},{"name":"labelsDataHash","type":"bytes32","internalType":"bytes32"},{"name":"dueDiligenceHash","type":"bytes32","internalType":"bytes32"},{"name":"generalProductInfoHash","type":"bytes32","internalType":"bytes32"},{"name":"batchId","type":"uint256","internalType":"uint256"},{"name":"qrCodeUrl","type":"string","internalType":"string"},{"name":"version","type":"uint256","internalType":"uint256"},{"name":"exists","type":"bool","internalType":"bool"},{"name":"status","type":"uint8","internalType":"enum BatteryPassportLib.BatteryStatus"},{"name":"offChainMultihash","type":"string","internalType":"string"},{"name":"offChainKeccak256","type":"bytes32","internalType":"bytes32"},{"name":"offChainSha256","type":"bytes32","internalType":"bytes32"},{"name":"organizationId","type":"bytes32","internalType":"bytes32"}]}],"stateMutability":"view"},{"type":"function","name":"getPassportUniqueIdentifier","inputs":[{"name":"tokenId","type":"uint256","internalType":"uint256"}],"outputs":[{"name":"","type":"string","internalType":"string"}],"stateMutability":"view"},{"type":"function","name":"getPassportsByBatchCore","inputs":[{"name":"batchId","type":"uint256","internalType":"uint256"}],"outputs":[{"name":"","type":"uint256[]","internalType":"uint256[]"}],"stateMutability":"view"},{"type":"function","name":"getPassportsByStatusCore","inputs":[{"name":"status","type":"uint8","internalType":"enum BatteryPassportLib.BatteryStatus"}],"outputs":[{"name":"","type":"uint256[]","internalType":"uint256[]"}],"stateMutability":"view"},{"type":"function","name":"getRoleAdmin","inputs":[{"name":"role","type":"bytes32","internalType":"bytes32"}],"outputs":[{"name":"","type":"bytes32","internalType":"bytes32"}],"stateMutability":"view"},{"type":"function","name":"getTokenCounter","inputs":[],"outputs":[{"name":"","type":"uint256","internalType":"uint256"}],"stateMutability":"view"},{"type":"function","name":"getUserOrganization","inputs":[{"name":"user","type":"address","internalType":"address"}],"outputs":[{"name":"","type":"bytes32","internalType":"bytes32"}],"stateMutability":"view"},{"type":"function","name":"grantRole","inputs":[{"name":"role","type":"bytes32","internalType":"bytes32"},{"name":"account","type":"address","internalType":"address"}],"outputs":[],"stateMutability":"nonpayable"},{"type":"function","name":"hasRole","inputs":[{"name":"role","type":"bytes32","internalType":"bytes32"},{"name":"account","type":"address","internalType":"address"}],"outputs":[{"name":"","type":"bool","internalType":"bool"}],"stateMutability":"view"},{"type":"function","name":"hashTypedDataV4","inputs":[{"name":"structHash","type":"bytes32","internalType":"bytes32"}],"outputs":[{"name":"","type":"bytes32","internalType":"bytes32"}],"stateMutability":"view"},{"type":"function","name":"incrementNonce","inputs":[{"name":"account","type":"address","internalType":"address"}],"outputs":[],"stateMutability":"nonpayable"},{"type":"function","name":"initializeRoles","inputs":[],"outputs":[],"stateMutability":"nonpayable"},{"type":"function","name":"isApprovedForAll","inputs":[{"name":"owner","type":"address","internalType":"address"},{"name":"operator","type":"address","internalType":"address"}],"outputs":[{"name":"","type":"bool","internalType":"bool"}],"stateMutability":"view"},{"type":"function","name":"isAuthorizedLifecycleUpdater","inputs":[{"name":"passportId","type":"bytes32","internalType":"bytes32"},{"name":"signer","type":"address","internalType":"address"}],"outputs":[{"name":"","type":"bool","internalType":"bool"}],"stateMutability":"view"},{"type":"function","name":"name","inputs":[],"outputs":[{"name":"","type":"string","internalType":"string"}],"stateMutability":"view"},{"type":"function","name":"nonces","inputs":[{"name":"","type":"address","internalType":"address"}],"outputs":[{"name":"","type":"uint256","internalType":"uint256"}],"stateMutability":"view"},{"type":"function","name":"orgConfigUri","inputs":[{"name":"","type":"bytes32","internalType":"bytes32"}],"outputs":[{"name":"","type":"string","internalType":"string"}],"stateMutability":"view"},{"type":"function","name":"ownerOf","inputs":[{"name":"tokenId","type":"uint256","internalType":"uint256"}],"outputs":[{"name":"","type":"address","internalType":"address"}],"stateMutability":"view"},{"type":"function","name":"paused","inputs":[],"outputs":[{"name":"","type":"bool","internalType":"bool"}],"stateMutability":"view"},{"type":"function","name":"renounceRole","inputs":[{"name":"role","type":"bytes32","internalType":"bytes32"},{"name":"callerConfirmation","type":"address","internalType":"address"}],"outputs":[],"stateMutability":"nonpayable"},{"type":"function","name":"revokeRole","inputs":[{"name":"role","type":"bytes32","internalType":"bytes32"},{"name":"account","type":"address","internalType":"address"}],"outputs":[],"stateMutability":"nonpayable"},{"type":"function","name":"safeTransferFrom","inputs":[{"name":"from","type":"address","internalType":"address"},{"name":"to","type":"address","internalType":"address"},{"name":"tokenId","type":"uint256","internalType":"uint256"}],"outputs":[],"stateMutability":"nonpayable"},{"type":"function","name":"safeTransferFrom","inputs":[{"name":"from","type":"address","internalType":"address"},{"name":"to","type":"address","internalType":"address"},{"name":"tokenId","type":"uint256","internalType":"uint256"},{"name":"data","type":"bytes","internalType":"bytes"}],"outputs":[],"stateMutability":"nonpayable"},{"type":"function","name":"setApprovalForAll","inputs":[{"name":"operator","type":"address","internalType":"address"},{"name":"approved","type":"bool","internalType":"bool"}],"outputs":[],"stateMutability":"nonpayable"},{"type":"function","name":"setBatteryPassportUpdater","inputs":[{"name":"updater","type":"address","internalType":"address"}],"outputs":[],"stateMutability":"nonpayable"},{"type":"function","name":"setLifecycleStatus","inputs":[{"name":"passportId","type":"bytes32","internalType":"bytes32"},{"name":"status","type":"uint8","internalType":"enum EVBatteryPassportCore.LifecycleStatus"}],"outputs":[],"stateMutability":"nonpayable"},{"type":"function","name":"setTenantUpdater","inputs":[{"name":"organizationId","type":"bytes32","internalType":"bytes32"},{"name":"updater","type":"address","internalType":"address"}],"outputs":[],"stateMutability":"nonpayable"},{"type":"function","name":"supportsInterface","inputs":[{"name":"interfaceId","type":"bytes4","internalType":"bytes4"}],"outputs":[{"name":"","type":"bool","internalType":"bool"}],"stateMutability":"view"},{"type":"function","name":"symbol","inputs":[],"outputs":[{"name":"","type":"string","internalType":"string"}],"stateMutability":"view"},{"type":"function","name":"tenantUpdater","inputs":[{"name":"","type":"bytes32","internalType":"bytes32"}],"outputs":[{"name":"","type":"address","internalType":"address"}],"stateMutability":"view"},{"type":"function","name":"tokenURI","inputs":[{"name":"tokenId","type":"uint256","internalType":"uint256"}],"outputs":[{"name":"","type":"string","internalType":"string"}],"stateMutability":"view"},{"type":"function","name":"transferFrom","inputs":[{"name":"from","type":"address","internalType":"address"},{"name":"to","type":"address","internalType":"address"},{"name":"tokenId","type":"uint256","internalType":"uint256"}],"outputs":[],"stateMutability":"nonpayable"},{"type":"function","name":"transferPassportOwnership","inputs":[{"name":"from","type":"address","internalType":"address"},{"name":"to","type":"address","internalType":"address"},{"name":"tokenId","type":"uint256","internalType":"uint256"},{"name":"signature","type":"bytes","internalType":"bytes"},{"name":"nonce","type":"uint256","internalType":"uint256"}],"outputs":[],"stateMutability":"nonpayable"},{"type":"function","name":"updateBatteryPassport","inputs":[{"name":"tokenId","type":"uint256","internalType":"uint256"},{"name":"didHash","type":"bytes32","internalType":"bytes32"},{"name":"materialCompositionHash","type":"bytes32","internalType":"bytes32"},{"name":"carbonFootprintHash","type":"bytes32","internalType":"bytes32"},{"name":"performanceDataHash","type":"bytes32","internalType":"bytes32"},{"name":"circularityDataHash","type":"bytes32","internalType":"bytes32"},{"name":"labelsDataHash","type":"bytes32","internalType":"bytes32"},{"name":"dueDiligenceHash","type":"bytes32","internalType":"bytes32"},{"name":"generalProductInfoHash","type":"bytes32","internalType":"bytes32"},{"name":"credentialId","type":"string","internalType":"string"},{"name":"signature","type":"bytes","internalType":"bytes"}],"outputs":[],"stateMutability":"nonpayable"},{"type":"function","name":"updateBatteryStatusFromUpdater","inputs":[{"name":"tokenId","type":"uint256","internalType":"uint256"},{"name":"newStatus","type":"uint8","internalType":"enum BatteryPassportLib.BatteryStatus"}],"outputs":[],"stateMutability":"nonpayable"},{"type":"function","name":"updateCarbonFootprintCore","inputs":[{"name":"tokenId","type":"uint256","internalType":"uint256"},{"name":"carbonFootprintHash","type":"bytes32","internalType":"bytes32"}],"outputs":[],"stateMutability":"nonpayable"},{"type":"function","name":"updateMaterialAndDueDiligenceCore","inputs":[{"name":"tokenId","type":"uint256","internalType":"uint256"},{"name":"materialCompositionHash","type":"bytes32","internalType":"bytes32"},{"name":"dueDiligenceHash","type":"bytes32","internalType":"bytes32"}],"outputs":[],"stateMutability":"nonpayable"},{"type":"function","name":"updateMaterialComposition","inputs":[{"name":"tokenId","type":"uint256","internalType":"uint256"},{"name":"materialCompositionHash","type":"bytes32","internalType":"bytes32"}],"outputs":[],"stateMutability":"nonpayable"},{"type":"function","name":"updateOrgConfigUri","inputs":[{"name":"organizationId","type":"bytes32","internalType":"bytes32"},{"name":"configUri","type":"string","internalType":"string"}],"outputs":[],"stateMutability":"nonpayable"},{"type":"function","name":"updatePassportData","inputs":[{"name":"tokenId","type":"uint256","internalType":"uint256"},{"name":"materialCompositionHash","type":"bytes32","internalType":"bytes32"},{"name":"carbonFootprintHash","type":"bytes32","internalType":"bytes32"},{"name":"performanceDataHash","type":"bytes32","internalType":"bytes32"},{"name":"circularityDataHash","type":"bytes32","internalType":"bytes32"},{"name":"labelsDataHash","type":"bytes32","internalType":"bytes32"},{"name":"dueDiligenceHash","type":"bytes32","internalType":"bytes32"},{"name":"generalProductInfoHash","type":"bytes32","internalType":"bytes32"}],"outputs":[],"stateMutability":"nonpayable"},{"type":"function","name":"updaterContract","inputs":[],"outputs":[{"name":"","type":"address","internalType":"address"}],"stateMutability":"view"},{"type":"function","name":"validateStatusTransition","inputs":[{"name":"current","type":"uint8","internalType":"enum BatteryPassportLib.BatteryStatus"},{"name":"next","type":"uint8","internalType":"enum BatteryPassportLib.BatteryStatus"}],"outputs":[{"name":"","type":"bool","internalType":"bool"}],"stateMutability":"pure"},{"type":"function","name":"verifyIPFSHash","inputs":[{"name":"tokenId","type":"uint256","internalType":"uint256"},{"name":"didHash","type":"bytes32","internalType":"bytes32"},{"name":"ipfsHash","type":"bytes32","internalType":"bytes32"},{"name":"signature","type":"bytes","internalType":"bytes"},{"name":"nonce","type":"uint256","internalType":"uint256"}],"outputs":[{"name":"","type":"bool","internalType":"bool"}],"stateMutability":"nonpayable"},{"type":"event","name":"Approval","inputs":[{"name":"owner","type":"address","indexed":true,"internalType":"address"},{"name":"approved","type":"address","indexed":true,"internalType":"address"},{"name":"tokenId","type":"uint256","indexed":true,"internalType":"uint256"}],"anonymous":false},{"type":"event","name":"ApprovalForAll","inputs":[{"name":"owner","type":"address","indexed":true,"internalType":"address"},{"name":"operator","type":"address","indexed":true,"internalType":"address"},{"name":"approved","type":"bool","indexed":false,"internalType":"bool"}],"anonymous":false},{"type":"event","name":"BatchCreated","inputs":[{"name":"batchId","type":"uint256","indexed":true,"internalType":"uint256"},{"name":"count","type":"uint256","indexed":false,"internalType":"uint256"},{"name":"startTokenId","type":"uint256","indexed":false,"internalType":"uint256"},{"name":"endTokenId","type":"uint256","indexed":false,"internalType":"uint256"}],"anonymous":false},{"type":"event","name":"BatchMetadataUpdate","inputs":[{"name":"_fromTokenId","type":"uint256","indexed":false,"internalType":"uint256"},{"name":"_toTokenId","type":"uint256","indexed":false,"internalType":"uint256"}],"anonymous":false},{"type":"event","name":"DIDRegistered","inputs":[{"name":"didHash","type":"bytes32","indexed":true,"internalType":"bytes32"},{"name":"role","type":"string","indexed":false,"internalType":"string"},{"name":"timestamp","type":"uint256","indexed":false,"internalType":"uint256"}],"anonymous":false},{"type":"event","name":"EIP712DomainChanged","inputs":[],"anonymous":false},{"type":"event","name":"IPFSHashVerified","inputs":[{"name":"tokenId","type":"uint256","indexed":true,"internalType":"uint256"},{"name":"isValid","type":"bool","indexed":false,"internalType":"bool"}],"anonymous":false},{"type":"event","name":"MetadataUpdate","inputs":[{"name":"_tokenId","type":"uint256","indexed":false,"internalType":"uint256"}],"anonymous":false},{"type":"event","name":"OrgConfigUriUpdated","inputs":[{"name":"organizationId","type":"bytes32","indexed":true,"internalType":"bytes32"},{"name":"configUri","type":"string","indexed":false,"internalType":"string"}],"anonymous":false},{"type":"event","name":"OrganizationAssigned","inputs":[{"name":"account","type":"address","indexed":true,"internalType":"address"},{"name":"organizationId","type":"bytes32","indexed":true,"internalType":"bytes32"}],"anonymous":false},{"type":"event","name":"OwnershipTransferred","inputs":[{"name":"from","type":"address","indexed":true,"internalType":"address"},{"name":"to","type":"address","indexed":true,"internalType":"address"},{"name":"tokenId","type":"uint256","indexed":true,"internalType":"uint256"}],"anonymous":false},{"type":"event","name":"PassportCreated","inputs":[{"name":"tokenId","type":"uint256","indexed":true,"internalType":"uint256"},{"name":"uniqueIdentifier","type":"string","indexed":false,"internalType":"string"},{"name":"qrCodeUrl","type":"string","indexed":false,"internalType":"string"},{"name":"credentialId","type":"string","indexed":false,"internalType":"string"}],"anonymous":false},{"type":"event","name":"PassportStatusUpdated","inputs":[{"name":"tokenId","type":"uint256","indexed":true,"internalType":"uint256"},{"name":"status","type":"uint8","indexed":false,"internalType":"uint8"}],"anonymous":false},{"type":"event","name":"PassportUpdated","inputs":[{"name":"tokenId","type":"uint256","indexed":true,"internalType":"uint256"},{"name":"uniqueIdentifier","type":"string","indexed":false,"internalType":"string"}],"anonymous":false},{"type":"event","name":"Paused","inputs":[{"name":"account","type":"address","indexed":false,"internalType":"address"}],"anonymous":false},{"type":"event","name":"RoleAdminChanged","inputs":[{"name":"role","type":"bytes32","indexed":true,"internalType":"bytes32"},{"name":"previousAdminRole","type":"bytes32","indexed":true,"internalType":"bytes32"},{"name":"newAdminRole","type":"bytes32","indexed":true,"internalType":"bytes32"}],"anonymous":false},{"type":"event","name":"RoleGranted","inputs":[{"name":"role","type":"bytes32","indexed":true,"internalType":"bytes32"},{"name":"account","type":"address","indexed":true,"internalType":"address"},{"name":"sender","type":"address","indexed":true,"internalType":"address"}],"anonymous":false},{"type":"event","name":"RoleRevoked","inputs":[{"name":"role","type":"bytes32","indexed":true,"internalType":"bytes32"},{"name":"account","type":"address","indexed":true,"internalType":"address"},{"name":"sender","type":"address","indexed":true,"internalType":"address"}],"anonymous":false},{"type":"event","name":"StatusChanged","inputs":[{"name":"tokenId","type":"uint256","indexed":true,"internalType":"uint256"},{"name":"oldStatus","type":"uint8","indexed":false,"internalType":"enum BatteryPassportLib.BatteryStatus"},{"name":"newStatus","type":"uint8","indexed":false,"internalType":"enum BatteryPassportLib.BatteryStatus"}],"anonymous":false},{"type":"event","name":"Transfer","inputs":[{"name":"from","type":"address","indexed":true,"internalType":"address"},{"name":"to","type":"address","indexed":true,"internalType":"address"},{"name":"tokenId","type":"uint256","indexed":true,"internalType":"uint256"}],"anonymous":false},{"type":"event","name":"Unpaused","inputs":[{"name":"account","type":"address","indexed":false,"internalType":"address"}],"anonymous":false},{"type":"event","name":"UpdaterContractSet","inputs":[{"name":"updater","type":"address","indexed":false,"internalType":"address"}],"anonymous":false},{"type":"error","name":"AccessControlBadConfirmation","inputs":[]},{"type":"error","name":"AccessControlUnauthorizedAccount","inputs":[{"name":"account","type":"address","internalType":"address"},{"name":"neededRole","type":"bytes32","internalType":"bytes32"}]},{"type":"error","name":"CredentialExpired","inputs":[]},{"type":"error","name":"ERC721IncorrectOwner","inputs":[{"name":"sender","type":"address","internalType":"address"},{"name":"tokenId","type":"uint256","internalType":"uint256"},{"name":"owner","type":"address","internalType":"address"}]},{"type":"error","name":"ERC721InsufficientApproval","inputs":[{"name":"operator","type":"address","internalType":"address"},{"name":"tokenId","type":"uint256","internalType":"uint256"}]},{"type":"error","name":"ERC721InvalidApprover","inputs":[{"name":"approver","type":"address","internalType":"address"}]},{"type":"error","name":"ERC721InvalidOperator","inputs":[{"name":"operator","type":"address","internalType":"address"}]},{"type":"error","name":"ERC721InvalidOwner","inputs":[{"name":"owner","type":"address","internalType":"address"}]},{"type":"error","name":"ERC721InvalidReceiver","inputs":[{"name":"receiver","type":"address","internalType":"address"}]},{"type":"error","name":"ERC721InvalidSender","inputs":[{"name":"sender","type":"address","internalType":"address"}]},{"type":"error","name":"ERC721NonexistentToken","inputs":[{"name":"tokenId","type":"uint256","internalType":"uint256"}]},{"type":"error","name":"EnforcedPause","inputs":[]},{"type":"error","name":"ExpectedPause","inputs":[]},{"type":"error","name":"InvalidShortString","inputs":[]},{"type":"error","name":"ReentrancyGuardReentrantCall","inputs":[]},{"type":"error","name":"StringTooLong","inputs":[{"name":"str","type":"string","internalType":"string"}]}],"bytecode":{"object":"0x61016034620006e757601f62006aba38819003918201601f19168301916001600160401b03831184841017620004e45780849260a094604052833981010312620006e7576200004e8162000707565b906200005d6020820162000707565b906200006c6040820162000707565b9160806200007d6060840162000707565b920151604051906200008f82620006eb565b6011825270115590985d1d195c9e54185cdcdc1bdc9d607a1b9182602082015260405192620000be84620006eb565b60018452603160f81b602085015260405190620000db82620006eb565b60118252602082015260405190620000f382620006eb565b60048252630455642560e41b60208301528051906001600160401b038211620004e4575f5490600182811c92168015620006dc575b6020831014620005dd5781601f8493116200067c575b50602090601f831160011462000608575f92620005fc575b50508160011b915f199060031b1c1916175f555b8051906001600160401b038211620004e45760015490600182811c92168015620005f1575b6020831014620005dd5781601f8493116200057f575b50602090601f831160011462000504575f92620004f8575b50508160011b915f199060031b1c1916176001555b6001600955620001e2816200083c565b61012052620001f183620009f7565b6101405260208151910120918260e052602081519101209081610100524660a0526040519160208301937f8b73c3c69bb8fe3d512ecc4cf759cc79239f7b179b0ffacaa9a75d522b39400f8552604084015260608301524660808301523060a083015260a0825260c082019282841060018060401b03851117620004e45783604052825190206080523060c0527f570c1c7ec6e0e0255dab26d069d4653c1cae6e13b5726a35d4d84efdfbe08b8e601b5515620004a0575050620002b5336200071c565b50620002c1336200079b565b507f798ae02a8a98b2d778a6d3c5765a7054603f9d24f4509b1ec066ac9a6a77da965f81815260076020527f33cc4dc29538b759089d38e52757cd781fffb929d8cd58599b41743e12f783098054908290557fbd79b86ffe0ab8e8776151514217cd7cacd52c909f66475c3af44e129f0b00ff919083838380a4817feefb95e842a3287179d933b4460be539a1d5af11aa8b325bb45c5c8dc92de4ed805f52600160405f2001908282549255835f80a4817fd1ae8bbdabd60d63e418b84f5ad6f9cba90092c9816d7724d85f0d4e4bea2c60805f52600160405f2001908282549255835f80a4817fa952726ef2588ad078edf35b066f7c7406e207cb0003bbaba8cb53eba9553e72805f52600160405f2001908282549255835f80a47f11d2c681bc9c10ed61f9a422c0dbaaddc4054ce58ec726aca73e7e4d31bcd154805f52600160405f20019183835493555f80a460018060a01b03928380928160018060a01b03199716876011541617601155168560125416176012551683601354161760135516906014541617601455604051615eb5908162000ba582396080518161566f015260a0518161572a015260c05181615639015260e051816156be015261010051816156e401526101205181613b5b01526101405181613b850152f35b62461bcd60e51b8252602060c4820152601660e48201527f496e76616c696420676f7665726e6d656e74204449440000000000000000000061010490910152606490fd5b634e487b7160e01b5f52604160045260245ffd5b015190505f80620001bd565b60015f90815293505f8051602062006a9a83398151915291905b601f198416851062000563576001945083601f198116106200054a575b505050811b01600155620001d2565b01515f1960f88460031b161c191690555f80806200053b565b818101518355602094850194600190930192909101906200051e565b60015f529091505f8051602062006a9a833981519152601f840160051c810160208510620005d5575b90849392915b601f830160051c82018110620005c6575050620001a5565b5f8155859450600101620005ae565b5080620005a8565b634e487b7160e01b5f52602260045260245ffd5b91607f16916200018f565b015190505f8062000156565b5f8080525f8051602062006a7a8339815191529350601f198516905b8181106200066357509084600195949392106200064a575b505050811b015f556200016a565b01515f1960f88460031b161c191690555f80806200063c565b9293602060018192878601518155019501930162000624565b5f80529091505f8051602062006a7a833981519152601f840160051c81019160208510620006d1575b90601f859493920160051c01905b818110620006c257506200013e565b5f8155849350600101620006b3565b9091508190620006a5565b91607f169162000128565b5f80fd5b604081019081106001600160401b03821117620004e457604052565b51906001600160a01b0382168203620006e757565b6001600160a01b03165f8181527f6d5257204ebe7d88fd91ae87941cb2dd9d8062b64ae5a2bd2d28ec40b9fbf6df602052604081205490919060ff16620007975781805260076020526040822081835260205260408220600160ff1982541617905533915f8051602062006a5a8339815191528180a4600190565b5090565b6001600160a01b03165f8181527f6c0e0b097a5c4c516f197236a2d876fd96f28e4016ba3a4405aa2090c303311860205260408120549091907fd9d062b29c8756d894f301c5167d214c34d627724cd7fc859ab9329c9330cf519060ff16620008375780835260076020526040832082845260205260408320600160ff198254161790555f8051602062006a5a833981519152339380a4600190565b505090565b805160209081811015620008d65750601f8251116200087757808251920151908083106200086957501790565b825f19910360031b1b161790565b90604051809263305a27a960e01b82528060048301528251908160248401525f935b828510620008bc575050604492505f838284010152601f80199101168101030190fd5b848101820151868601604401529381019385935062000899565b906001600160401b038211620004e457600a54926001938481811c91168015620009ec575b83821014620005dd57601f8111620009b5575b5081601f84116001146200094d57509282939183925f9462000941575b50501b915f199060031b1c191617600a5560ff90565b015192505f806200092b565b919083601f198116600a5f52845f20945f905b888383106200099a575050501062000981575b505050811b01600a5560ff90565b01515f1960f88460031b161c191690555f808062000973565b85870151885590960195948501948793509081019062000960565b600a5f5284601f845f20920160051c820191601f860160051c015b828110620009e05750506200090e565b5f8155018590620009d0565b90607f1690620008fb565b80516020908181101562000a835750601f82511162000a2457808251920151908083106200086957501790565b90604051809263305a27a960e01b82528060048301528251908160248401525f935b82851062000a69575050604492505f838284010152601f80199101168101030190fd5b848101820151868601604401529381019385935062000a46565b906001600160401b038211620004e457600b54926001938481811c9116801562000b99575b83821014620005dd57601f811162000b62575b5081601f841160011462000afa57509282939183925f9462000aee575b50501b915f199060031b1c191617600b5560ff90565b015192505f8062000ad8565b919083601f198116600b5f52845f20945f905b8883831062000b47575050501062000b2e575b505050811b01600b5560ff90565b01515f1960f88460031b161c191690555f808062000b20565b85870151885590960195948501948793509081019062000b0d565b600b5f5284601f845f20920160051c820191601f860160051c015b82811062000b8d57505062000abb565b5f815501859062000b7d565b90607f169062000aa856fe6080806040526004361015610012575f80fd5b5f90813560e01c908162bf26f414614a645750806301ffc9a7146149c157806306fdde03146148f2578063081812fc146148b5578063095ea7b3146147d25780631815a20d146147975780631cd505f21461476057806323b872dd14614748578063248a9ca31461471b5780632a003e71146146e25780632f2ff15d146146a457806334ecfd501461466957806336568abe14614621578063411cffa4146145d457806342842e0e146145ac57806348079e39146145715780634980f288146145475780634f558e791461451557806350d5daaf146141f757806357296196146141cf5780635c975abb146141ac5780635d716fcf1461413f5780636118acd3146140c65780636352211e146140955780636394f6e61461405a57806366ad63f31461402957806367ec423714613f1a5780636a7a080314613eae5780636e02007d14613e905780637029cd7614613d0e57806370a0823114613cb657806370edfb7414613c7b5780637ecebe0014613c42578063800b520814613c0757806384b0196e14613b3e57806387675d9a146139875780638b79162e1461395e5780638c5b613f146129775780638c6fdb8f146127155780638ecbed22146126da57806391aea4731461261457806391d14854146125ca57806395d89b4114612501578063965288b0146124d95780639998f039146120ac5780639cbed582146120715780639f5679f414611f2c578063a1eb3eaf14611e29578063a203e1a814611dee578063a217fddf14611dd2578063a22cb46514611d26578063a29508fc14611ceb578063a31fbf4214611c93578063a757ffc714611c5e578063a89b35db14611c23578063a915151b14611bb4578063acd72b4214611b5c578063af7eb47514611b29578063b301ba3b14611ae0578063b71253c614611a7b578063b88d4fde14611a29578063b9bd717f146119ee578063b9d96fa3146119c5578063bea51ad514611831578063bf31377814611809578063c2aed54514611746578063c66921c81461170b578063c87b56dd1461169f578063cac626c314611664578063cb6535b514611629578063d547741f146115e7578063dc01ebf41461153d578063e6c6a87114611502578063e985e9c5146114b0578063ec34f503146103f8578063f45224c3146103bd5763f5743c4c1461036c575f80fd5b346103ba5760203660031901126103ba57610385614ae4565b601c546001600160a01b03919061039f9083163314615a19565b168152601a602052604081206103b5815461584d565b905580f35b80fd5b50346103ba57806003193601126103ba5760206040517fabc26171f82949f45fa4d1f9e5494902b2842977ebc8ebcb550d0fe752ecf5d48152f35b50346103ba576102403660031901126103ba576024356001600160401b038111610d0a5761042a903690600401614c01565b6044356001600160401b0381116114ac57610449903690600401614c01565b610164356001600160401b0381116114a857610469903690600401614c01565b610184356001600160401b038111610cfb57610489903690600401614c01565b906101a4356001600160401b0381116114a4576104aa903690600401614c01565b6101c43593906001600160a01b03851685036114a0576101e4356001600160401b03811161149c576104e0903690600401614c01565b9460026009541461148a5760026009556104ff60ff6008541615615750565b338852601a6020526105196040892054610224351461578f565b33885260166020526102043560408920540361144d5760ff604051602081816105488c83815193849201614a9e565b8101600e8152030190205416611418576040516020818161056f8b83815193849201614a9e565b600e90820190815203019020805460ff191660011790556011546040516398e5c41760e01b81529060209082906001600160a01b031681806105b73360048035908401615809565b03915afa9081156112e45789916113f9575b50156113aa5760125460405163ae76a8d360e01b8152602060048201819052909182906001600160a01b03168180610604602482018c614abf565b03915afa899181611389575b506106275760405163f6f992e760e01b8152600490fd5b15611377576106f960206106c08951828b0120604051907f1319cc9277950585b4fb528474b420527240c55bc4030762c0003175643a7ef384830152604082015261014435606082015260018060a01b03851660808201526102243560a082015260a0815261069581614b8f565b8281519101206106a3615636565b6042916040519161190160f01b8352600283015260228201522090565b601354604080516397aba7f960e01b8152600481019390935260248301526001600160a01b031694909283918291906044830190614abf565b0381865afa9081156112e4578991611331575b50604051630965288b60e41b8152602081600481875afa8015611326578a906112ef575b60209150604460405180948193632474521560e21b8352600483015260018060a01b0316968760248301525afa9081156112e45789916112c5575b5015611281576001600160a01b03160361122157338652601a60205260408620610795815461584d565b90556107a38451151561586f565b60125460408051630d0ca4df60e11b8152602060048201529182906001600160a01b031681806107d6602482018b614abf565b03915afa90811561121657879088926111e4575b50600c54956001870187116111d05760018701600c818155908a52600f60205260408a20015460ff1661118b576040519361082485614b58565b88855260208501526064356040850152608435606085015260a435608085015260c43560a085015260e43560c08501526101043560e085015261012435610100850152610144356101208501528461014085015260016101608501526001610180850152886101a08501526101c08401526101e083015261020082015261020435610220820152600184018652600f602052604086209080518051906001600160401b038211610f115781906108da8554614eb2565b601f811161113e575b50602090601f83116001146110d6578a926110cb575b50508160011b915f199060031b1c19161782555b60208101518051906001600160401b038211610f115781906109326001860154614eb2565b601f811161107b575b50602090601f831160011461100d578a92611002575b50508160011b915f199060031b1c19161760018301555b60408101516002830155606081015160038301556080810151600483015560a0810151600583015560c0810151600683015560e08101516007830155610100810151600883015561012081015160098301556101408101518051906001600160401b038211610f115781906109e0600a860154614eb2565b601f8111610fb2575b50602090601f8311600114610f44578a92610f39575b50508160011b915f199060031b1c191617600a8301555b610160810151600b830155600c8201610a426101808301511515829060ff801983541691151516179055565b6101a0820151906004821015610f255790610a5c916158e9565b6101c08101518051906001600160401b038211610f1157610a80600d850154614eb2565b601f8111610ecd575b50602090601f8311600114610e5b57918060109492610220948c92610e50575b50508160011b915f199060031b1c191617600d8501555b6101e0810151600e850155610200810151600f8501550151910155610ae8600184013361593f565b60018301855260066020526040852081516001600160401b038111610e3c57610b118254614eb2565b601f8111610dfb575b50806020601f8211600114610d98578891610d8d575b508160011b915f199060031b1c19161790555b7ff8e1a15aba9398e019f0b49df1a4fde98ee17ae345cb5f6b5e2c27f5033e8ce76020604051600186018152a15f80526017602052610ba5600184017fd840e16649f6b9a295d95876f4633d3a6b10b55e8162971cf78afd886d5ec89b615d51565b6101443585526018602052610bc06001840160408720615d51565b84602060018060a01b0360115416608460405180948193636bb14c4f60e11b8352600435600484015260406024840152601960448401527f426174746572792050617373706f7274204372656174696f6e0000000000000060648401525af1908115610d82578691610d53575b5015610d0e5760115485906001600160a01b0316803b15610d0a57818091608460405180948193635e094c8d60e11b8352600435600484015260406024840152601560448401527410dc99585d1950985d1d195c9e54185cdcdc1bdc9d605a1b60648401525af18015610cff57610ce3575b505091610cd86001927fff7bb2a465832b3bcb642eb1abbae49c278c03cc04d696b442cff2ebaab2ee9294604051948594019684615908565b0390a2600160095580f35b610cef90949294614b45565b610cfb5791845f610c9f565b8480fd5b6040513d84823e3d90fd5b5080fd5b60405162461bcd60e51b815260206004820152601b60248201527f444944206d657461646174612073746f72616765206661696c656400000000006044820152606490fd5b610d75915060203d602011610d7b575b610d6d8183614bc5565b8101906157f1565b5f610c2d565b503d610d63565b6040513d88823e3d90fd5b90508301515f610b30565b91508288526020882088925b601f1983168410610de3576001935082601f19811610610dcb575b5050811b019055610b43565b8501515f1960f88460031b161c191690555f80610dbf565b85810151825560209384019360019092019101610da4565b82885260208820601f830160051c810160208410610e35575b601f830160051c82018110610e2a575050610b1a565b5f8155600101610e14565b5080610e14565b634e487b7160e01b87526041600452602487fd5b015190505f80610aa9565b90600d85018a5260208a20918a5b601f1985168110610eb5575092601094926001926102209583601f19811610610e9d575b505050811b01600d850155610ac0565b01515f1960f88460031b161c191690555f8080610e8d565b91926020600181928685015181550194019201610e69565b600d85018a5260208a20601f840160051c810160208510610f0a575b601f830160051c82018110610eff575050610a89565b5f8155600101610ee9565b5080610ee9565b634e487b7160e01b89526041600452602489fd5b634e487b7160e01b89526021600452602489fd5b015190505f806109ff565b9250600a85018a5260208a20908a935b601f1984168510610f97576001945083601f19811610610f7f575b505050811b01600a830155610a16565b01515f1960f88460031b161c191690555f8080610f6f565b81810151835560209485019460019093019290910190610f54565b909150600a85018a5260208a20601f840160051c810160208510610ffb575b90849392915b601f830160051c82018110610fed5750506109e9565b5f8155859450600101610fd7565b5080610fd1565b015190505f80610951565b9250600185018a5260208a20908a935b601f1984168510611060576001945083601f19811610611048575b505050811b016001830155610968565b01515f1960f88460031b161c191690555f8080611038565b8181015183556020948501946001909301929091019061101d565b909150600185018a5260208a20601f840160051c8101602085106110c4575b90849392915b601f830160051c820181106110b657505061093b565b5f81558594506001016110a0565b508061109a565b015190505f806108f9565b9250848a5260208a20908a935b601f1984168510611123576001945083601f1981161061110b575b505050811b01825561090d565b01515f1960f88460031b161c191690555f80806110fe565b818101518355602094850194600190930192909101906110e3565b909150848a5260208a20601f840160051c810160208510611184575b90849392915b601f830160051c820181106111765750506108e3565b5f8155859450600101611160565b508061115a565b60405162461bcd60e51b815260206004820152601760248201527f50617373706f727420616c7265616479206578697374730000000000000000006044820152606490fd5b634e487b7160e01b89526011600452602489fd5b9050611208915060403d60401161120f575b6112008183614bc5565b8101906158c7565b905f6107ea565b503d6111f6565b6040513d89823e3d90fd5b60405162461bcd60e51b815260206004820152603260248201527f5369676e657220646f6573206e6f74206d6174636820636c61696d6564206d616044820152716e756661637475726572206164647265737360701b6064820152608490fd5b606460405162461bcd60e51b815260206004820152602060248201527f556e617574686f72697a6564206d616e756661637475726572207369676e65726044820152fd5b6112de915060203d602011610d7b57610d6d8183614bc5565b5f61076b565b6040513d8b823e3d90fd5b506020813d60201161131e575b8161130960209383614bc5565b8101031261131a5760209051610730565b8980fd5b3d91506112fc565b6040513d8c823e3d90fd5b90506020813d60201161136f575b8161134c60209383614bc5565b8101031261136b57516001600160a01b038116810361136b575f61070c565b8880fd5b3d915061133f565b60405163f6f992e760e01b8152600490fd5b6113a391925060203d602011610d7b57610d6d8183614bc5565b905f610610565b60405162461bcd60e51b815260206004820152602160248201527f4e6f7420617574686f72697a656420746f206372656174652070617373706f726044820152601d60fa1b6064820152608490fd5b611412915060203d602011610d7b57610d6d8183614bc5565b5f6105c9565b60405162461bcd60e51b815260206004820152600d60248201526c111d5c1b1a58d85d1948155251609a1b6044820152606490fd5b60405162461bcd60e51b815260206004820152601560248201527409ee4cec2dcd2f4c2e8d2dedc40dad2e6dac2e8c6d605b1b6044820152606490fd5b604051633ee5aeb560e01b8152600490fd5b8780fd5b5f80fd5b8580fd5b8380fd5b8280fd5b50346103ba5760403660031901126103ba576114ca614ae4565b60406114d4614afa565b9260018060a01b03809316815260056020522091165f52602052602060ff60405f2054166040519015158152f35b50346103ba57806003193601126103ba5760206040517f07a218f84cdb6c48f349d707566068bc1c40e43e8256b7e8f3e3bd1669f595208152f35b50346103ba576101003660031901126103ba5760043561156860018060a01b03601c54163314615a19565b808252600f6020525f80516020615e608339815191526115e160408420602435600282015560443560038201556064356004820155608435600582015560a435600682015560c435600782015560e4356008820155600b81016115cb815461584d565b9055604051918291602083526020830190614eea565b0390a280f35b50346103ba5760403660031901126103ba57611625600435611607614afa565b9080845260076020526116206001604086200154614fb4565b6150ee565b5080f35b50346103ba57806003193601126103ba5760206040517f4ac299203a70b1f705d2585128834f345acce43cfed3633e4145f0706268731f8152f35b50346103ba57806003193601126103ba5760206040517f5e77091f7df842f2e6a41024019dc3cfd32130297bcde9da6f722e74e08f758a8152f35b50346103ba5760203660031901126103ba576004356116bd8161544a565b505f5260066020526117076116de6116e560405f2060405192838092614eea565b0382614bc5565b5f6040516116f281614b74565b52604051918291602083526020830190614abf565b0390f35b50346103ba57806003193601126103ba5760206040517fd5741920163941ae662c0bd52a22b5635d8e1ae84187bb6016d40512a4a861b38152f35b50346103ba5760203660031901126103ba57611760614ae4565b611768614f7b565b6015546001600160a01b0391908281166117ce577f0dba703a99c240ace562e2ac6f72a53e29308f321e85e99380201d9d50fdcec192602092168091816bffffffffffffffffffffffff60a01b80921617601555601c541617601c55604051908152a180f35b60405162461bcd60e51b8152602060048201526013602482015272155c19185d195c88185b1c9958591e481cd95d606a1b6044820152606490fd5b50346103ba57806003193601126103ba5760206040515f80516020615e408339815191528152f35b50346103ba5760203660031901126103ba5760409061184e615c76565b506004358152600f602052206040519061186782614b58565b604051611878816116de8185614eea565b825260405161188e816116de8160018601614eea565b6020830152600281015460408301526003810154606083015260048101546080830152600581015460a0830152600681015460c0830152600781015460e0830152600881015461010083015260098101546101208301526040516118f9816116de81600a8601614eea565b610140830152600b8101546101608301526010600c8201549161193260ff6101808601948181161515865260081c166101a086016158dd565b604051611946816116de81600d8601614eea565b6101c0850152600e8101546101e0850152600f81015461020085015201546102208301525115611980576117079060405191829182614d90565b60405162461bcd60e51b815260206004820152601f60248201527f426174746572792050617373706f727420646f6573206e6f74206578697374006044820152606490fd5b50346103ba57806003193601126103ba57601c546040516001600160a01b039091168152602090f35b50346103ba57806003193601126103ba5760206040517fbdaf57f0666825eb077b4746cc97954d4df573fd7dc37b8d4287eb2f831ff4158152f35b50346103ba5760803660031901126103ba57611a43614ae4565b611a4b614afa565b606435916001600160401b0383116114a857611a6e611a78933690600401614c01565b91604435916152fe565b80f35b50346103ba5760603660031901126103ba57600435611aa560018060a01b03601c54163314615a19565b808252600f6020525f80516020615e608339815191526115e16040842060243560028201556044356007820155600b81016115cb815461584d565b50346103ba5760203660031901126103ba576116de611b15604061170793600435815260196020522060405192838092614eea565b604051918291602083526020830190614abf565b50346103ba5760203660031901126103ba576020906004358152600d8252604060018060a01b0391205416604051908152f35b50346103ba576115e15f80516020615e60833981519152611b7c36614e9c565b611b9460018060a09694961b03601c54163314615a19565b838552600f60205260408520906002820155600b81016115cb815461584d565b50346103ba5760403660031901126103ba57611bce614ae4565b60243590611bda614f7b565b611be381614fd6565b506001600160a01b03168083526016602052604083208290557f315a045ad580a17f9377f8731118f35a61ff5a4fc3702fd5d669c953ad9f1ba08380a380f35b50346103ba57806003193601126103ba5760206040517f9e06f7f53e4c4563f1e45465f53d3d1dcfeb879178a900bb605483612a57cc358152f35b50346103ba5760203660031901126103ba576116de611b156040611707936004358152600f6020522060405192838092614eea565b50346103ba576115e15f80516020615e60833981519152611cb336614e9c565b611ccb60018060a09694961b03601c54163314615a19565b838552600f60205260408520906003820155600b81016115cb815461584d565b50346103ba57806003193601126103ba5760206040517fd1ae8bbdabd60d63e418b84f5ad6f9cba90092c9816d7724d85f0d4e4bea2c608152f35b50346103ba5760403660031901126103ba57611d40614ae4565b60243590811515908183036114a8576001600160a01b0316918215611db957611d8a90338552600560205260408520845f5260205260405f209060ff801983541691151516179055565b6040519081527f17307eab39ab6107e8899845ad3d59bd9653f200f220920489ca2b5937696c3160203392a380f35b604051630b61174360e31b815260048101849052602490fd5b50346103ba57806003193601126103ba57602090604051908152f35b50346103ba57806003193601126103ba5760206040517fca2c9e1d39cc13f66578011e3a7832c40c4fd7cc04915db3d6fa36c4c340987d8152f35b50346103ba57806003193601126103ba57611e42614f7b565b5f80516020615e20833981519152805f526007602052600160405f2001908154915f80516020615e0083398151915292838092557fbd79b86ffe0ab8e8776151514217cd7cacd52c909f66475c3af44e129f0b00ff92835f80a4817fd1ae8bbdabd60d63e418b84f5ad6f9cba90092c9816d7724d85f0d4e4bea2c60805f52600160405f2001908282549255835f80a4817fa952726ef2588ad078edf35b066f7c7406e207cb0003bbaba8cb53eba9553e72805f52600160405f2001908282549255835f80a45f80516020615e40833981519152805f52600160405f20019183835493555f80a480f35b50346103ba5760203660031901126103ba57604061170791611f4c615c76565b506004358152600f60205220601060405191611f6783614b58565b604051611f78816116de8185614eea565b8352604051611f8e816116de8160018601614eea565b6020840152600281015460408401526003810154606084015260048101546080840152600581015460a0840152600681015460c0840152600781015460e084015260088101546101008401526009810154610120840152604051611ff9816116de81600a8601614eea565b610140840152600b81015461016084015261202d60ff600c830154818116151561018087015260081c166101a085016158dd565b604051612041816116de81600d8601614eea565b6101c0840152600e8101546101e0840152600f810154610200840152015461022082015260405191829182614d90565b50346103ba57806003193601126103ba5760206040517fd9d062b29c8756d894f301c5167d214c34d627724cd7fc859ab9329c9330cf518152f35b50346103ba5760a03660031901126103ba576120c6614ae4565b6120ce614afa565b90604435916064356001600160401b038111610cfb576120f2903690600401614c01565b608435927fd5741920163941ae662c0bd52a22b5635d8e1ae84187bb6016d40512a4a861b386526020916007835260408720335f52835260ff60405f205416156124b0575b6121408661544a565b6001600160a01b038381169591811686148015612492575b1561244d575f80516020615e2083398151915290818a526007865260408a209781841698895f52875260ff60405f205416801561240f575b80156123e4575b1561239357888b526016875260408b20548a8c52600f8852601060408d2001540361234e5761225b9291612238898b8a948f8f9060406121e191338152601a8a522054831461578f565b60405192878401947f8d7e54533aebf2dbf839e7368c2bfd0db5c51ac149f918bccf03000b7a7d7c8c865260408501526060840152608083015260a082015260a0815261222d81614b8f565b5190206106a3615636565b90601354169560405194859283926388dd23db60e01b8452339160048501615b7a565b0381875afa91821561132657869261227a918c91612331575b50615ba8565b6044604051809581936306624bf560e21b835233600484015260248301525afa8015612326576122e2946122b9601a928a958c91612309575b50615be8565b338a5252604088206122cb815461584d565b9055604051926122da84614b74565b8884526152fe565b7fc13a1166d81cd3b0b352a367aebab95f3a6f6bc695fdab8e9a9d335239c3861b8480a480f35b6123209150833d8511610d7b57610d6d8183614bc5565b5f6122b3565b6040513d8a823e3d90fd5b6123489150843d8611610d7b57610d6d8183614bc5565b5f612274565b60405162461bcd60e51b815260048101889052601f60248201527f526563697069656e74206f7267616e697a6174696f6e206d69736d61746368006044820152606490fd5b60405162461bcd60e51b8152600481018890526024808201527f526563697069656e7420646f6573206e6f74206861766520612076616c696420604482015263726f6c6560e01b6064820152608490fd5b505f80516020615e408339815191528b526007875260408b20895f52875260ff60405f205416612197565b507fd1ae8bbdabd60d63e418b84f5ad6f9cba90092c9816d7724d85f0d4e4bea2c608b526007875260408b20895f52875260ff60405f205416612190565b60405162461bcd60e51b815260048101869052601f60248201527f53656e646572206973206e6f74206f776e6572206f7220617070726f766564006044820152606490fd5b508589526005855260408920335f52855260ff60405f205416612158565b858752600f83526124d4601060408920015433895260168552604089205414615b22565b612137565b50346103ba57806003193601126103ba5760206040515f80516020615e208339815191528152f35b50346103ba57806003193601126103ba576040515f600180549061252482614eb2565b808552918181169081156125a3575060011461254b575b61170784611b1581860382614bc5565b5f81815292507fb10e2d527612073b26eecdfd717e6a320cf44b4afac2b0732d9fcbe2b7fa0cf65b82841061258b575050508101602001611b158261253b565b80546020858701810191909152909301928101612573565b60ff191660208087019190915292151560051b85019092019250611b15915083905061253b565b50346103ba5760403660031901126103ba5760406125e6614afa565b9160043581526007602052209060018060a01b03165f52602052602060ff60405f2054166040519015158152f35b50346103ba5760403660031901126103ba57600435612631614afa565b335f9081527f33cc4dc29538b759089d38e52757cd781fffb929d8cd58599b41743e12f7830860205260409020549091905f80516020615e008339815191529060ff16156126bc5750338352601660205261269181604085205414615b22565b8252600d6020526040822080546001600160a01b0319166001600160a01b0390921691909117905580f35b6044906040519063e2517d3f60e01b82523360048301526024820152fd5b50346103ba57806003193601126103ba5760206040517f2d899ede8ca37f12c1a7a45b556f9587320db01ffe4feba254ae0c853a5ef9808152f35b50346103ba5760403660031901126103ba576001600160401b03906004356024358381116114ac5761274b903690600401614c01565b82805260206007815260408420335f52815260ff60405f2054168015612937575b156128dc57828452601981526040842082519586116128c85761278f8154614eb2565b601f8111612885575b508195601f8111600114612804578086977f992c6ed2fd27d535869219ab9913363966a2d587d8dd7ef1388e8e0229f48b989697916127f9575b508160011b915f199060031b1c19161790555b6115e1604051928284938452830190614abf565b90508401515f6127d2565b81865282862096601f198216875b81811061286e57509782916001937f992c6ed2fd27d535869219ab9913363966a2d587d8dd7ef1388e8e0229f48b9898999a10612856575b5050811b0190556127e5565b8601515f1960f88460031b161c191690555f8061284a565b868301518a55600190990198918501918501612812565b818652828620601f880160051c8101918489106128be575b601f0160051c01905b8181106128b35750612798565b5f81556001016128a6565b909150819061289d565b634e487b7160e01b85526041600452602485fd5b6084906040519062461bcd60e51b82526004820152602e60248201527f4e6f7420617574686f72697a656420746f2075706461746520636f6e6669677560448201526d3930ba34b7b7103837b4b73a32b960911b6064820152fd5b505f80516020615e0083398151915284526007815260408420335f52815260ff60405f205416801561276c5750338452601681528260408520541461276c565b50346103ba57600319608036820112610d0a576001600160401b0360243511610d0a5761018090602435360301126103ba5760405161018081018181106001600160401b0382111761382f57604052602435600401356001600160401b0381116114ac576129ed90600436916024350101614c91565b81526024803501356001600160401b0381116114ac57612a1590600436916024350101614c91565b6020820152604460243501356001600160401b0381116114ac57612a4190600436916024350101614d11565b6040820152606460243501356001600160401b0381116114ac57612a6d90600436916024350101614d11565b6060820152608460243501356001600160401b0381116114ac57612a9990600436916024350101614d11565b60808201526001600160401b0360a4602435013511610d0a57612ac73660243560a481013501600401614d11565b60a08201526001600160401b0360c4602435013511610d0a57612af53660243560c481013501600401614d11565b60c08201526001600160401b0360e4602435013511610d0a57612b233660243560e481013501600401614d11565b60e08201526001600160401b03610104602435013511610d0a57612b533660243561010481013501600401614d11565b6101008201526001600160401b03610124602435013511610d0a57612b843660243561012481013501600401614c91565b61012082015261014460243501356101408201526001600160401b03610164602435013511610d0a57612bc33660243561016481013501600401614c91565b6101608201526001600160401b0360443511610d0a57612be836604435600401614c01565b6001600160401b03606435116114ac57612c0736606435600401614c01565b91612c1760ff6008541615615750565b6011546040516398e5c41760e01b81529060209082906001600160a01b03168180612c483360048035908401615809565b03915afa9081156137c057859161393f575b50156138ec5760125460405163ae76a8d360e01b8152602060048201819052909182906001600160a01b03168180612c956024820189614abf565b03915afa9081156137c05785916138cd575b501561388857805151926032841161384357601b546101408301516040519160208301526040820152336060820152606081528060808101106001600160401b0360808301111761382f576020612d10826080612d3d94016040528281519101206106a3615636565b6013546040516388dd23db60e01b81526001600160a01b0390911694909384928392339160048501615b7a565b0381855afa908115610d82578691613810575b50156137cb576020604491604051928380926306624bf560e21b82523360048301525f80516020615e2083398151915260248301525afa80156137c057612d9d9186916137a75750615be8565b600c54926001840184116137935791849285915b818310612e8b5750506011548591506001600160a01b0316803b15610d0a57818091608460405180948193635e094c8d60e11b8352600435600484015260406024840152601860448401527f4164644261747465727950617373706f7274734261746368000000000000000060648401525af18015610cff57612e77575b50507f3f4885000dcfbb6799ee05ca18d15569363186b6ef17fecd1842249038718b79916101406060920151936001600c54916040519384520160208301526040820152a280f35b612e8090614b45565b6114a857835f612e2f565b90919360ff612ea4612e9e878751615cfd565b516157cb565b541661374e57612eb8612e9e868651615cfd565b600160ff19825416179055600c5460018101811161373a5760018101600c55612ef2612ee987610160880151615cfd565b5151151561586f565b612f35604060018060a01b0360125416612f11896101608a0151615cfd565b519082518080958194630d0ca4df60e11b8352602060048401526024830190614abf565b03915afa80156112e45789918a91613719575b5087875190612f5691615cfd565b519088602089015190612f6891615cfd565b51928b898b80604083015190612f7d91615cfd565b5181606084015190612f8e91615cfd565b5182608085015190612f9f91615cfd565b518360a086015190612fb091615cfd565b518460c087015190612fc191615cfd565b51918560e088015190612fd391615cfd565b51938661010089015190612fe691615cfd565b519561014089015197806101208b01519061300091615cfd565b519961016001519061301191615cfd565b5199338152601660205260409020549c6040519e8f9161303083614b58565b825260208201526040015260608d015260808c015260a08b015260c08a015260e08901526101008801526101208701526101408601526101608501600190526101808501600190528c6101a08601526101c08501526101e0840152610200830152610220820152600182018952600f602052604089209080518051906001600160401b03821161349f5781906130c68554614eb2565b601f81116136cc575b50602090601f8311600114613664578d92613659575b50508160011b915f199060031b1c19161782555b60208101518051906001600160401b03821161349f57819061311e6001860154614eb2565b601f8111613609575b50602090601f831160011461359b578d92613590575b50508160011b915f199060031b1c19161760018301555b60408101516002830155606081015160038301556080810151600483015560a0810151600583015560c0810151600683015560e08101516007830155610100810151600883015561012081015160098301556101408101518051906001600160401b03821161349f5781906131cc600a860154614eb2565b601f8111613540575b50602090601f83116001146134d2578d926134c7575b50508160011b915f199060031b1c191617600a8301555b610160810151600b83015561322d6101808201511515600c84019060ff801983541691151516179055565b6101a081015160048110156134b35761324990600c84016158e9565b6101c08101518051906001600160401b03821161349f5790839291613273600d8b97960154614eb2565b601f8111613447575b506020908d601f84116001146133a6576102207fff7bb2a465832b3bcb642eb1abbae49c278c03cc04d696b442cff2ebaab2ee9295856001966133949c9a9661338e9c9a966010969261339b575b50505f19600383901b1c191690871b17600d8501555b6101e0810151600e850155610200810151600f85015501519101556133078282013361593f565b5f8052601760205261333b8183017fd840e16649f6b9a295d95876f4633d3a6b10b55e8162971cf78afd886d5ec89b615d51565b6101408401518d5260186020526133588d60408484019120615d51565b613386886133778d61012061336e828a51615cfd565b51980151615cfd565b51604051948594019684615908565b0390a261584d565b9461584d565b9190612db1565b015190505f806132ca565b9190600d8601835260208320925b601f198516811061342c57506102207fff7bb2a465832b3bcb642eb1abbae49c278c03cc04d696b442cff2ebaab2ee92956001866133949c9a9661338e9c9a96601096849a601f19811610613414575b505050811b01600d8501556132e0565b01515f1960f88460031b161c191690555f8080613404565b8183015184558c9850600190930192602092830192016133b4565b90919293949550600d85018d5260208d20601f840160051c810160208510613498575b908b979695949392915b601f830160051c8201811061348a57505061327c565b5f81558c9850600101613474565b508061346a565b634e487b7160e01b8c52604160045260248cfd5b634e487b7160e01b8b52602160045260248bfd5b015190505f806131eb565b9250600a85018d5260208d20908d935b601f1984168510613525576001945083601f1981161061350d575b505050811b01600a830155613202565b01515f1960f88460031b161c191690555f80806134fd565b818101518355602094850194600190930192909101906134e2565b909150600a85018d5260208d20601f840160051c810160208510613589575b90849392915b601f830160051c8201811061357b5750506131d5565b5f8155859450600101613565565b508061355f565b015190505f8061313d565b9250600185018d5260208d20908d935b601f19841685106135ee576001945083601f198116106135d6575b505050811b016001830155613154565b01515f1960f88460031b161c191690555f80806135c6565b818101518355602094850194600190930192909101906135ab565b909150600185018d5260208d20601f840160051c810160208510613652575b90849392915b601f830160051c82018110613644575050613127565b5f815585945060010161362e565b5080613628565b015190505f806130e5565b9250848d5260208d20908d935b601f19841685106136b1576001945083601f19811610613699575b505050811b0182556130f9565b01515f1960f88460031b161c191690555f808061368c565b81810151835560209485019460019093019290910190613671565b909150848d5260208d20601f840160051c810160208510613712575b90849392915b601f830160051c820181106137045750506130cf565b5f81558594506001016136ee565b50806136e8565b9050613734915060403d60401161120f576112008183614bc5565b5f612f48565b634e487b7160e01b88526011600452602488fd5b60405162461bcd60e51b815260206004820152601860248201527f556e69717565206964656e7469666965722065786973747300000000000000006044820152606490fd5b634e487b7160e01b85526011600452602485fd5b612320915060203d602011610d7b57610d6d8183614bc5565b6040513d87823e3d90fd5b60405162461bcd60e51b815260206004820152601760248201527f496e76616c6964206261746368207369676e61747572650000000000000000006044820152606490fd5b613829915060203d602011610d7b57610d6d8183614bc5565b5f612d50565b634e487b7160e01b5f52604160045260245ffd5b60405162461bcd60e51b815260206004820152601860248201527f42617463682073697a652065786365656473206c696d697400000000000000006044820152606490fd5b60405162461bcd60e51b815260206004820152601d60248201527f496e76616c6964206f7220657870697265642063726564656e7469616c0000006044820152606490fd5b6138e6915060203d602011610d7b57610d6d8183614bc5565b5f612ca7565b60405162461bcd60e51b815260206004820152602560248201527f4e6f7420617574686f72697a656420746f206164642070617373706f727473206044820152640c4c2e8c6d60db1b6064820152608490fd5b613958915060203d602011610d7b57610d6d8183614bc5565b5f612c5a565b50346103ba57806003193601126103ba576015546040516001600160a01b039091168152602090f35b50346103ba5760403660031901126103ba57600435602490813560048110156114a8576139bf60018060a01b03601c54163314615a19565b818452600f602052600c6040852001906139e18160ff845460081c16936158e9565b6139ea82615d25565b855b815480821015613b0b578590613a028385615d3c565b929054600393841b1c14613a20575050613a1b9061584d565b6139ec565b915f9791949596971992838101908111613af85790613a52613a45613a6a9387615d3c565b905490881b1c9186615d3c565b90919082549060031b91821b915f19901b1916179055565b8254908115613ae6575092613ae29282604096937fd98efe2dd5b76c52df27ca251c889b2339e9f49fdd2e02e72abbae1136a1f01498960192613aad8484615d3c565b81939154921b1b19169055555b613acc86613ac783615d25565b615d51565b613ad884518094614d6f565b6020830190614d6f565ba280f35b634e487b7160e01b8952603160045288fd5b634e487b7160e01b8a526011600452828afd5b5050507fd98efe2dd5b76c52df27ca251c889b2339e9f49fdd2e02e72abbae1136a1f01492935090613ae2604092613aba565b50346103ba57806003193601126103ba57613bda90611707613b7f7f0000000000000000000000000000000000000000000000000000000000000000615484565b91613ba97f000000000000000000000000000000000000000000000000000000000000000061557e565b613be860405191613bb983614b74565b838352604051968796600f60f81b885260e0602089015260e0880190614abf565b908682036040880152614abf565b9146606086015230608086015260a085015283820360c0850152614c47565b50346103ba57806003193601126103ba5760206040517f6cbbb06b96faa45b6c02620cd9a9c6c9c2762dc624af664528c737566c7cc31c8152f35b50346103ba5760203660031901126103ba576020906040906001600160a01b03613c6a614ae4565b168152601a83522054604051908152f35b50346103ba57806003193601126103ba5760206040517f1203ca9b7d3a78a83976944ace24a0441d3b3c7fa60699f4ac7653920fc464c18152f35b50346103ba5760203660031901126103ba576001600160a01b03613cd8614ae4565b168015613cf5578160409160209352600383522054604051908152f35b6040516322718ad960e21b815260048101839052602490fd5b50346103ba5760403660031901126103ba57613d28614ae4565b602435908280526020906007825260408420335f52825260ff60405f2054168015613e50575b15613df8576001600160a01b0316808452601682526040842054909190613da357601690828552528160408420557f315a045ad580a17f9377f8731118f35a61ff5a4fc3702fd5d669c953ad9f1ba08380a380f35b6084906040519062461bcd60e51b82526004820152602860248201527f5573657220616c72656164792061737369676e656420746f20616e206f7267616044820152673734bd30ba34b7b760c11b6064820152fd5b60405162461bcd60e51b815260048101839052602a60248201527f4e6f7420617574686f72697a656420746f2061737369676e2074686973206f7260448201526933b0b734bd30ba34b7b760b11b6064820152608490fd5b505f80516020615e0083398151915284526007825260408420335f52825260ff60405f2054168015613d4e57503384526016825282604085205414613d4e565b50346103ba57806003193601126103ba576020600c54604051908152f35b50346103ba5760403660031901126103ba5760243560043560058210156114ac57613ee460018060a01b03601c54163314615a19565b808352600f602052613eff60ff600c60408620015416615c2a565b82526010602052604082209060ff8019835416911617905580f35b50346103ba57600319816101603683018113610d0a57610124906001600160401b03908235828111610cfb57613f54903690600401614c01565b926101449283359081116114a457613f70903690600401614c01565b6015546001600160a01b031693909190843b1561402557613ffc97879361400a926040519a8b998a9889976367ec423760e01b895260043560048a015260243560248a015260443560448a015260643560648a015260843560848a015260a43560a48a015260c43560c48a015260e43560e48a01526101048035908a0152880152610164870190614abf565b928584030190850152614abf565b03925af18015610cff5761401c575080f35b611a7890614b45565b8680fd5b50346103ba5760403660031901126103ba576020614050614048614afa565b600435615d7b565b6040519015158152f35b50346103ba57806003193601126103ba5760206040517fa952726ef2588ad078edf35b066f7c7406e207cb0003bbaba8cb53eba9553e728152f35b50346103ba5760203660031901126103ba5760206140b460043561544a565b6040516001600160a01b039091168152f35b50346103ba57602080600319360112610d0a576004358252601881526040822091604051809384918482549182815201918452848420935b858282106141295750505061411592500383614bc5565b611707604051928284938452830190614c47565b85548452600195860195889550930192016140fe565b50346103ba57602080600319360112610d0a5760043560048110156114ac5761416790615d25565b91604051809384918482549182815201918452848420935b858282106141965750505061411592500383614bc5565b855484526001958601958895509301920161417f565b50346103ba57806003193601126103ba57602060ff600854166040519015158152f35b50346103ba57806003193601126103ba5760206040515f80516020615e008339815191528152f35b50346103ba5760a03660031901126103ba576004359060243591604435916064356001600160401b038111610d0a57614234903690600401614c01565b9360843593838352602095600f875261425660ff600c60408720015416615c2a565b6011546040516398e5c41760e01b81526004810185905260806024820152600a60848201526911d3d59154939351539560b21b60a4820152600560448201523360648201526001600160a01b0397918990829060c49082908c165afa908115610d825786916144f8575b50156144c2578761433261435592338852601a83526142e46040892054821461578f565b604051838101917f4ac299203a70b1f705d2585128834f345acce43cfed3633e4145f0706268731f83528a604083015287606083015233608083015260a082015260a0815261222d81614b8f565b88601354169360405193849283926388dd23db60e01b8452339160048501615b7a565b0381855afa9081156137c05791614376899260449488916123315750615ba8565b6040516306624bf560e21b81523360048201527fd9d062b29c8756d894f301c5167d214c34d627724cd7fc859ab9329c9330cf51602482015292839182905afa9081156144b757906143ce9185916144a05750615be8565b338352601a8652604083206143e3815461584d565b9055838352600f8652600260408420015414936011541690813b156114ac578291608483926040519586938492635e094c8d60e11b8452600484015260406024840152600e60448401526d0accae4d2ccf292a08ca690c2e6d60931b60648401525af19081156144945750614485575b507f107f61729677c389f833abbaf4dca3b0be03658e521808ae2f3d43db81d2fd6783604051848152a2604051908152f35b61448e90614b45565b5f614453565b604051903d90823e3d90fd5b6123209150883d8a11610d7b57610d6d8183614bc5565b6040513d86823e3d90fd5b60405162461bcd60e51b815260048101899052600e60248201526d139bdd08185d5d1a1bdc9a5e995960921b6044820152606490fd5b61450f9150893d8b11610d7b57610d6d8183614bc5565b5f6142c0565b50346103ba5760203660031901126103ba5760ff600c60406020936004358152600f8552200154166040519015158152f35b50346103ba5760203660031901126103ba5760206145696004356106a3615636565b604051908152f35b50346103ba57806003193601126103ba5760206040517f959d096b76b975954c193956b80051190cd72afac15771d80be1b39cc467df1e8152f35b50346103ba57611a786145be36614b10565b90604051926145cc84614b74565b8584526152fe565b50346103ba5760203660031901126103ba576004358152601060205260ff60408220541660405190600581101561460d57602092508152f35b634e487b7160e01b83526021600452602483fd5b50346103ba5760403660031901126103ba5761463b614afa565b336001600160a01b0382160361465757611625906004356150ee565b60405163334bd91960e11b8152600490fd5b50346103ba57806003193601126103ba5760206040517f217f5ffca62d5083ec665e1d33f7e548fbaf071a93e2e31389ed30f15f564b8b8152f35b50346103ba5760403660031901126103ba576116256004356146c4614afa565b9080845260076020526146dd6001604086200154614fb4565b615075565b50346103ba5760203660031901126103ba576020906040906001600160a01b0361470a614ae4565b168152601683522054604051908152f35b50346103ba5760203660031901126103ba5760016040602092600435815260078452200154604051908152f35b50346103ba57611a7861475a36614b10565b91615163565b50346103ba5760403660031901126103ba576004356004811015610d0a576024359160048310156103ba5760206140508484615a7b565b50346103ba57806003193601126103ba5760206040517f7a058cfbe75cff3639a9a3b32a4f919b6575f89299ddef736bd0f6262d67c1858152f35b50346103ba5760403660031901126103ba576147ec614ae4565b6024356147f88161544a565b331515806148a2575b80614877575b61485f576001600160a01b039283169282918491167f8c5be1e5ebec7d5bd14f71427d1e84f3dd0314c0f7b2291e5b200ac8c7c3b9258680a4825260046020526040822080546001600160a01b031916909117905580f35b60405163a9fbf51f60e01b8152336004820152602490fd5b506001600160a01b038116845260056020908152604080862033875290915284205460ff1615614807565b506001600160a01b038116331415614801565b50346103ba5760203660031901126103ba576020906004356148d68161544a565b50815260048252604060018060a01b0391205416604051908152f35b50346103ba57806003193601126103ba576040519080805461491381614eb2565b80855291600191808316908115614997575060011461493d575b61170785611b1581870382614bc5565b80809450527f290decd9548b62a8d60345a988386fc84ba6bc95484008f6362f93160ef3e5635b82841061497f575050508101602001611b158261170761492d565b80546020858701810191909152909301928101614964565b86955061170796935060209250611b1594915060ff191682840152151560051b820101929361492d565b50346103ba5760203660031901126103ba5760043563ffffffff60e01b8116809103610d0a57602090637965db0b60e01b8114908115614a07575b506040519015158152f35b632483248360e11b811491508115614a21575b50826149fc565b6380ac58cd60e01b811491508115614a53575b8115614a42575b5082614a1a565b6301ffc9a760e01b14905082614a3b565b635b5e139f60e01b81149150614a34565b905034610d0a5781600319360112610d0a57807f8d7e54533aebf2dbf839e7368c2bfd0db5c51ac149f918bccf03000b7a7d7c8c60209252f35b5f5b838110614aaf5750505f910152565b8181015183820152602001614aa0565b90602091614ad881518092818552858086019101614a9e565b601f01601f1916010190565b600435906001600160a01b03821682036114a057565b602435906001600160a01b03821682036114a057565b60609060031901126114a0576001600160a01b039060043582811681036114a0579160243590811681036114a0579060443590565b6001600160401b03811161382f57604052565b61024081019081106001600160401b0382111761382f57604052565b602081019081106001600160401b0382111761382f57604052565b60c081019081106001600160401b0382111761382f57604052565b604081019081106001600160401b0382111761382f57604052565b90601f801991011681019081106001600160401b0382111761382f57604052565b6001600160401b03811161382f57601f01601f191660200190565b81601f820112156114a057803590614c1882614be6565b92614c266040519485614bc5565b828452602083830101116114a057815f926020809301838601378301015290565b9081518082526020808093019301915f5b828110614c66575050505090565b835185529381019392810192600101614c58565b6001600160401b03811161382f5760051b60200190565b9080601f830112156114a057813590614ca982614c7a565b92614cb76040519485614bc5565b828452602092838086019160051b830101928084116114a057848301915b848310614ce55750505050505090565b82356001600160401b0381116114a0578691614d0684848094890101614c01565b815201920191614cd5565b81601f820112156114a057803591614d2883614c7a565b92614d366040519485614bc5565b808452602092838086019260051b8201019283116114a0578301905b828210614d60575050505090565b81358152908301908301614d52565b906004821015614d7c5752565b634e487b7160e01b5f52602160045260245ffd5b602081528151614dae61024091826020850152610260840190614abf565b92614e7c614dce602083015195601f199687878303016040880152614abf565b6040830151606086015260608301516080860152608083015160a086015260a083015160c086015260c083015160e0860152614e3c60e08401516101009081880152840151610120908188015284015161014090818801528401519161016092888883030184890152614abf565b90830151610180908187015283015115156101a09081870152830151614e686101c09182880190614d6f565b8301516101e0968683030187870152614abf565b938101516102009081850152810151906102209182850152015191015290565b60409060031901126114a0576004359060243590565b90600182811c92168015614ee0575b6020831014614ecc57565b634e487b7160e01b5f52602260045260245ffd5b91607f1691614ec1565b905f9291805491614efa83614eb2565b9182825260019384811690815f14614f585750600114614f1b575b50505050565b90919394505f52602092835f2092845f945b838610614f4457505050500101905f808080614f15565b805485870183015294019385908201614f2d565b9294505050602093945060ff191683830152151560051b0101905f808080614f15565b335f9081527f6d5257204ebe7d88fd91ae87941cb2dd9d8062b64ae5a2bd2d28ec40b9fbf6df602052604081205460ff16156126bc5750565b805f52600760205260405f20335f5260205260ff60405f205416156126bc5750565b6001600160a01b03165f8181527f33cc4dc29538b759089d38e52757cd781fffb929d8cd58599b41743e12f7830860205260408120549091905f80516020615e008339815191529060ff166150705780835260076020526040832082845260205260408320600160ff198254161790557f2f8788117e7eff1d82e926ec794901d17c78024a50270940304540a733656f0d339380a4600190565b505090565b905f918083526007602052604083209160018060a01b03169182845260205260ff604084205416155f146150705780835260076020526040832082845260205260408320600160ff198254161790557f2f8788117e7eff1d82e926ec794901d17c78024a50270940304540a733656f0d339380a4600190565b905f918083526007602052604083209160018060a01b03169182845260205260ff6040842054165f14615070578083526007602052604083208284526020526040832060ff1981541690557ff6391f5c32d9c69d2a47ea670b442974b53935d1edc7fd64eb21e047a839171b339380a4600190565b6001600160a01b0391821692909183156152e6575f92828452826020956002875260409684888820541696879133151580615250575b509060027fddf252ad1be2c89b69c2b068fc378daa952ba7f163c4a11628f55a4df523b3ef928461521f575b858352600381528b8320805460010190558683525289812080546001600160a01b0319168517905580a416928383036151fe5750505050565b6064945051926364283d7b60e01b8452600484015260248301526044820152fd5b5f87815260046020526040902080546001600160a01b0319169055848352600381528b832080545f190190556151c5565b919394509150806152a5575b1561526c5785929187915f615199565b878688615289576024915190637e27328960e01b82526004820152fd5b604491519063177e802f60e01b82523360048301526024820152fd5b5033871480156152ca575b8061525c575085825260048152338589842054161461525c565b5086825260058152878220338352815260ff88832054166152b0565b604051633250574960e11b81525f6004820152602490fd5b615309838383615163565b813b6153155750505050565b604051630a85bd0160e11b8082523360048301526001600160a01b03928316602483015260448201949094526080606482015260209592909116939092908390615363906084830190614abf565b039285815f958187895af184918161540a575b506153d5575050503d5f146153cd573d61538f81614be6565b9061539d6040519283614bc5565b81528091843d92013e5b805192836153c857604051633250574960e11b815260048101849052602490fd5b019050fd5b5060606153a7565b919450915063ffffffff60e01b16036153f257505f808080614f15565b60249060405190633250574960e11b82526004820152fd5b9091508681813d8311615443575b6154228183614bc5565b81010312610cfb57516001600160e01b031981168103610cfb57905f615376565b503d615418565b5f818152600260205260409020546001600160a01b031690811561546c575090565b60249060405190637e27328960e01b82526004820152fd5b60ff81146154c25760ff811690601f82116154b057604051916154a683614baa565b8252602082015290565b604051632cd44ac360e21b8152600490fd5b50604051600a54815f6154d483614eb2565b8083529260019081811690811561555c57506001146154fe575b506154fb92500382614bc5565b90565b600a5f90815291507fc65a7bb8d6351c1cf70c95a316cc6a92839c986682d98bc35f958f4883f9d2a85b84831061554157506154fb93505081016020015f6154ee565b81935090816020925483858901015201910190918492615528565b9050602092506154fb94915060ff191682840152151560051b8201015f6154ee565b60ff81146155a05760ff811690601f82116154b057604051916154a683614baa565b50604051600b54815f6155b283614eb2565b8083529260019081811690811561555c57506001146155d857506154fb92500382614bc5565b600b5f90815291507f0175b7a638427703f0dbe7bb9bbf987a2551717b34e79f33b5b1008d1fa01db95b84831061561b57506154fb93505081016020015f6154ee565b81935090816020925483858901015201910190918492615602565b307f00000000000000000000000000000000000000000000000000000000000000006001600160a01b03161480615727575b15615691577f000000000000000000000000000000000000000000000000000000000000000090565b60405160208101907f8b73c3c69bb8fe3d512ecc4cf759cc79239f7b179b0ffacaa9a75d522b39400f82527f000000000000000000000000000000000000000000000000000000000000000060408201527f000000000000000000000000000000000000000000000000000000000000000060608201524660808201523060a082015260a0815261572181614b8f565b51902090565b507f00000000000000000000000000000000000000000000000000000000000000004614615668565b1561575757565b60405162461bcd60e51b815260206004820152601060248201526f14185d5cd8589b194e881c185d5cd95960821b6044820152606490fd5b1561579657565b60405162461bcd60e51b815260206004820152600d60248201526c496e76616c6964206e6f6e636560981b6044820152606490fd5b60206157e4918160405193828580945193849201614a9e565b8101600e81520301902090565b908160209103126114a0575180151581036114a05790565b908152608060208201819052600c908201526b26a0a72aa320a1aa2aa922a960a11b60a0820152600460408201526001600160a01b03909116606082015260c00190565b5f19811461585b5760010190565b634e487b7160e01b5f52601160045260245ffd5b1561587657565b60405162461bcd60e51b815260206004820152602360248201527f4f66662d636861696e206d756c7469686173682063616e6e6f7420626520656d60448201526270747960e81b6064820152608490fd5b91908260409103126114a0576020825192015190565b6004821015614d7c5752565b906004811015614d7c5761ff0082549160081b169061ff001916179055565b91615931906159236154fb9593606086526060860190614abf565b908482036020860152614abf565b916040818403910152614abf565b6001600160a01b03919082169081156152e6575f9281845260026020526040842054169182151592836159e6575b81855260036020526040852060018154019055828552600260205260408520826bffffffffffffffffffffffff60a01b8254161790557fddf252ad1be2c89b69c2b068fc378daa952ba7f163c4a11628f55a4df523b3ef8580a46159ce5750565b602490604051906339e3563760e11b82526004820152fd5b5f83815260046020526040902080546001600160a01b031916905580855260036020526040852080545f1901905561596d565b15615a2057565b60405162461bcd60e51b815260206004820152602d60248201527f4e6f7420617574686f72697a65643a204f6e6c79207570646174657220636f6e60448201526c1d1c9858dd08185b1b1bddd959609a1b6064820152608490fd5b9060049182811015615afd57801580615b10575b615ae3576001811480615aeb575b615ae3576002149182615aba575b5050615ab5575f90565b600190565b81819293501015615ad057506003145f80615aab565b602190634e487b7160e01b5f525260245ffd5b505050600190565b5082821015615afd5760028214615a9d565b602183634e487b7160e01b5f525260245ffd5b5082821015615afd5760018214615a8f565b15615b2957565b60405162461bcd60e51b8152602060048201526024808201527f4e6f7420617574686f72697a656420666f722074686973206f7267616e697a616044820152633a34b7b760e11b6064820152608490fd5b91615b98906040929594958452606060208501526060840190614abf565b6001600160a01b03909416910152565b15615baf57565b60405162461bcd60e51b8152602060048201526011602482015270496e76616c6964207369676e617475726560781b6044820152606490fd5b15615bef57565b60405162461bcd60e51b81526020600482015260136024820152722ab730baba3437b934bd32b21039b4b3b732b960691b6044820152606490fd5b15615c3157565b60405162461bcd60e51b815260206004820152601760248201527f546f6b656e20494420646f6573206e6f742065786973740000000000000000006044820152606490fd5b60405190615c8382614b58565b8160608152606060208201526102205f918260408201528260608201528260808201528260a08201528260c08201528260e0820152826101008201528261012082015260606101408201528261016082015282610180820152826101a082015260606101c0820152826101e0820152826102008201520152565b8051821015615d115760209160051b010190565b634e487b7160e01b5f52603260045260245ffd5b6004811015614d7c575f52601760205260405f2090565b8054821015615d11575f5260205f2001905f90565b908154916801000000000000000083101561382f5782613a52916001615d7995018155615d3c565b565b905f918252602090600f8252604090601082852001548452600d835260018060a01b038083862054169116809114615df6575f80516020615e40833981519152845260078352818420818552835260ff8285205416615df65760ff92848052600781528285209185525282205416615df05790565b50600190565b5050505060019056fe798ae02a8a98b2d778a6d3c5765a7054603f9d24f4509b1ec066ac9a6a77da96eefb95e842a3287179d933b4460be539a1d5af11aa8b325bb45c5c8dc92de4ed11d2c681bc9c10ed61f9a422c0dbaaddc4054ce58ec726aca73e7e4d31bcd154d1eff831ab7c9a2f08b5050a7f516d13974bebd5d8810b81566969ce1651dfb8a264697066735822122077c33e47fd5a25f4f0cbd1568243f806adce7139cf32162fc9dce55b056d04a664736f6c634300081400332f8788117e7eff1d82e926ec794901d17c78024a50270940304540a733656f0d290decd9548b62a8d60345a988386fc84ba6bc95484008f6362f93160ef3e563b10e2d527612073b26eecdfd717e6a320cf44b4afac2b0732d9fcbe2b7fa0cf6","linkReferences":{}},"methodIdentifiers":{"DEFAULT_ADMIN_ROLE()":"a217fddf","GLOBAL_AUDITOR_ROLE()":"c66921c8","GOVERNMENT_ROLE()":"9cbed582","MANUFACTURER_ROLE()":"965288b0","MINER_ROLE()":"6394f6e6","QUERY_CARBON_FOOTPRINT_TYPEHASH()":"a203e1a8","QUERY_DUE_DILIGENCE_TYPEHASH()":"a89b35db","QUERY_GENERAL_PRODUCT_INFO_TYPEHASH()":"34ecfd50","QUERY_MATERIAL_COMPOSITION_TYPEHASH()":"f45224c3","QUERY_PUBLIC_PRODUCT_INFO_TYPEHASH()":"1815a20d","RECYCLER_ROLE()":"bf313778","SUPPLIER_ROLE()":"a29508fc","TENANT_ADMIN_ROLE()":"57296196","THIRD_PARTY_ROLE()":"8ecbed22","TRANSFER_PASSPORT_OWNERSHIP_TYPEHASH()":"e6c6a871","TRANSFER_TYPEHASH()":"00bf26f4","UPDATE_BATTERY_STATUS_TYPEHASH()":"b9bd717f","UPDATE_CARBON_FOOTPRINT_TYPEHASH()":"800b5208","UPDATE_MATERIAL_AND_DUE_DILIGENCE_TYPEHASH()":"70edfb74","UPDATE_PASSPORT_TYPEHASH()":"cac626c3","VERIFY_IPFS_HASH_TYPEHASH()":"48079e39","VERIFY_TYPEHASH()":"cb6535b5","addBatteryPassportsBatch(bytes32,(string[],string[],bytes32[],bytes32[],bytes32[],bytes32[],bytes32[],bytes32[],bytes32[],string[],uint256,string[]),string,bytes)":"8c5b613f","approve(address,uint256)":"095ea7b3","assignOrganization(address,bytes32)":"7029cd76","balanceOf(address)":"70a08231","batteryPassportUpdater()":"8b79162e","configureTenantAdmin(address,bytes32)":"a915151b","createBatteryPassport(bytes32,string,string,bytes32,bytes32,bytes32,bytes32,bytes32,bytes32,bytes32,uint256,string,string,bytes,address,string,bytes32,uint256)":"ec34f503","eip712Domain()":"84b0196e","exists(uint256)":"4f558e79","getApproved(uint256)":"081812fc","getBatteryPassport(uint256)":"bea51ad5","getLifecycleStatus(bytes32)":"411cffa4","getPassport(uint256)":"9f5679f4","getPassportUniqueIdentifier(uint256)":"a757ffc7","getPassportsByBatchCore(uint256)":"6118acd3","getPassportsByStatusCore(uint8)":"5d716fcf","getRoleAdmin(bytes32)":"248a9ca3","getTokenCounter()":"6e02007d","getUserOrganization(address)":"2a003e71","grantRole(bytes32,address)":"2f2ff15d","hasRole(bytes32,address)":"91d14854","hashTypedDataV4(bytes32)":"4980f288","incrementNonce(address)":"f5743c4c","initializeRoles()":"a1eb3eaf","isApprovedForAll(address,address)":"e985e9c5","isAuthorizedLifecycleUpdater(bytes32,address)":"66ad63f3","name()":"06fdde03","nonces(address)":"7ecebe00","orgConfigUri(bytes32)":"b301ba3b","ownerOf(uint256)":"6352211e","paused()":"5c975abb","renounceRole(bytes32,address)":"36568abe","revokeRole(bytes32,address)":"d547741f","safeTransferFrom(address,address,uint256)":"42842e0e","safeTransferFrom(address,address,uint256,bytes)":"b88d4fde","setApprovalForAll(address,bool)":"a22cb465","setBatteryPassportUpdater(address)":"c2aed545","setLifecycleStatus(bytes32,uint8)":"6a7a0803","setTenantUpdater(bytes32,address)":"91aea473","supportsInterface(bytes4)":"01ffc9a7","symbol()":"95d89b41","tenantUpdater(bytes32)":"af7eb475","tokenURI(uint256)":"c87b56dd","transferFrom(address,address,uint256)":"23b872dd","transferPassportOwnership(address,address,uint256,bytes,uint256)":"9998f039","updateBatteryPassport(uint256,bytes32,bytes32,bytes32,bytes32,bytes32,bytes32,bytes32,bytes32,string,bytes)":"67ec4237","updateBatteryStatusFromUpdater(uint256,uint8)":"87675d9a","updateCarbonFootprintCore(uint256,bytes32)":"a31fbf42","updateMaterialAndDueDiligenceCore(uint256,bytes32,bytes32)":"b71253c6","updateMaterialComposition(uint256,bytes32)":"acd72b42","updateOrgConfigUri(bytes32,string)":"8c6fdb8f","updatePassportData(uint256,bytes32,bytes32,bytes32,bytes32,bytes32,bytes32,bytes32)":"dc01ebf4","updaterContract()":"b9d96fa3","validateStatusTransition(uint8,uint8)":"1cd505f2","verifyIPFSHash(uint256,bytes32,bytes32,bytes,uint256)":"50d5daaf"},"id":48}