{"abi":[{"type":"function","name":"estimateFees","inputs":[{"name":"","type":"uint16","internalType":"uint16"},{"name":"","type":"address","internalType":"address"},{"name":"","type":"bytes","internalType":"bytes"},{"name":"","type":"bool","internalType":"bool"},{"name":"","type":"bytes","internalType":"bytes"}],"outputs":[{"name":"nativeFee","type":"uint256","internalType":"uint256"},{"name":"zroFee","type":"uint256","internalType":"uint256"}],"stateMutability":"pure"},{"type":"function","name":"forceResumeReceive","inputs":[{"name":"","type":"uint16","internalType":"uint16"},{"name":"","type":"bytes","internalType":"bytes"}],"outputs":[],"stateMutability":"nonpayable"},{"type":"function","name":"getChainId","inputs":[],"outputs":[{"name":"","type":"uint16","internalType":"uint16"}],"stateMutability":"pure"},{"type":"function","name":"getConfig","inputs":[{"name":"","type":"uint16","internalType":"uint16"},{"name":"","type":"uint16","internalType":"uint16"},{"name":"","type":"address","internalType":"address"},{"name":"","type":"uint256","internalType":"uint256"}],"outputs":[{"name":"","type":"bytes","internalType":"bytes"}],"stateMutability":"pure"},{"type":"function","name":"getInboundNonce","inputs":[{"name":"","type":"uint16","internalType":"uint16"},{"name":"","type":"bytes","internalType":"bytes"}],"outputs":[{"name":"","type":"uint64","internalType":"uint64"}],"stateMutability":"pure"},{"type":"function","name":"getOutboundNonce","inputs":[{"name":"","type":"uint16","internalType":"uint16"},{"name":"","type":"address","internalType":"address"}],"outputs":[{"name":"","type":"uint64","internalType":"uint64"}],"stateMutability":"pure"},{"type":"function","name":"getReceiveLibraryAddress","inputs":[{"name":"","type":"address","internalType":"address"}],"outputs":[{"name":"","type":"address","internalType":"address"}],"stateMutability":"view"},{"type":"function","name":"getReceiveVersion","inputs":[{"name":"","type":"address","internalType":"address"}],"outputs":[{"name":"","type":"uint16","internalType":"uint16"}],"stateMutability":"pure"},{"type":"function","name":"getSendLibraryAddress","inputs":[{"name":"","type":"address","internalType":"address"}],"outputs":[{"name":"","type":"address","internalType":"address"}],"stateMutability":"view"},{"type":"function","name":"getSendVersion","inputs":[{"name":"","type":"address","internalType":"address"}],"outputs":[{"name":"","type":"uint16","internalType":"uint16"}],"stateMutability":"pure"},{"type":"function","name":"hasStoredPayload","inputs":[{"name":"","type":"uint16","internalType":"uint16"},{"name":"","type":"bytes","internalType":"bytes"}],"outputs":[{"name":"","type":"bool","internalType":"bool"}],"stateMutability":"pure"},{"type":"function","name":"isReceivingPayload","inputs":[],"outputs":[{"name":"","type":"bool","internalType":"bool"}],"stateMutability":"pure"},{"type":"function","name":"isSendingPayload","inputs":[],"outputs":[{"name":"","type":"bool","internalType":"bool"}],"stateMutability":"pure"},{"type":"function","name":"receivePayload","inputs":[{"name":"","type":"uint16","internalType":"uint16"},{"name":"","type":"bytes","internalType":"bytes"},{"name":"","type":"address","internalType":"address"},{"name":"","type":"uint64","internalType":"uint64"},{"name":"","type":"uint256","internalType":"uint256"},{"name":"","type":"bytes","internalType":"bytes"}],"outputs":[],"stateMutability":"nonpayable"},{"type":"function","name":"retryPayload","inputs":[{"name":"","type":"uint16","internalType":"uint16"},{"name":"","type":"bytes","internalType":"bytes"},{"name":"","type":"bytes","internalType":"bytes"}],"outputs":[],"stateMutability":"nonpayable"},{"type":"function","name":"send","inputs":[{"name":"_dstChainId","type":"uint16","internalType":"uint16"},{"name":"_destination","type":"bytes","internalType":"bytes"},{"name":"_payload","type":"bytes","internalType":"bytes"},{"name":"","type":"address","internalType":"address payable"},{"name":"","type":"address","internalType":"address"},{"name":"","type":"bytes","internalType":"bytes"}],"outputs":[],"stateMutability":"payable"},{"type":"function","name":"setConfig","inputs":[{"name":"","type":"uint16","internalType":"uint16"},{"name":"","type":"uint16","internalType":"uint16"},{"name":"","type":"uint256","internalType":"uint256"},{"name":"","type":"bytes","internalType":"bytes"}],"outputs":[],"stateMutability":"nonpayable"},{"type":"function","name":"setReceiveVersion","inputs":[{"name":"","type":"uint16","internalType":"uint16"}],"outputs":[],"stateMutability":"nonpayable"},{"type":"function","name":"setSendVersion","inputs":[{"name":"","type":"uint16","internalType":"uint16"}],"outputs":[],"stateMutability":"nonpayable"}],"bytecode":{"object":"0x60808060405234610016576105e1908161001b8239f35b5f80fdfe60406080815260049081361015610014575f80fd5b5f91823560e01c90816307e0db171461043f578163096568f6146101c65781630eaf6ea61461044457816310ddb1371461043f5781633408e4701461042257816340a7bb10146103aa57816342d65a8d1461039557816371ba2fd6146103625781637a145748146103675781639c729da114610362578163aaff5f161461030d578163c2fa4813146102a4578163c580310014610218578163ca066b35146101c1578163cbed8b9c146101cb578163da1a7c9a146101c6578163e97a448a146101c1578163f5ecbdbc14610110575063fdc07c70146100f1575f80fd5b3461010c57906020916101033661052e565b50505051908152f35b5080fd5b8284346101be5760803660031901126101be5761012b610458565b5061013461046d565b5061013d6104af565b508151906020938483019083821067ffffffffffffffff8311176101ab575083949291945283815282519382859384528251928382860152825b84811061019557505050828201840152601f01601f19168101030190f35b8181018301518882018801528795508201610177565b634e487b7160e01b835260419052602482fd5b80fd5b610591565b6104db565b83903461010c57608036600319011261010c576101e6610458565b506101ef61046d565b506064359067ffffffffffffffff82116102145761020f91369101610500565b505080f35b8280fd5b839060c036600319011261010c5761022e610458565b5067ffffffffffffffff906024358281116102a0576102509036908301610500565b50506044358281116102a0576102699036908301610500565b506001600160a01b039050606435818116036102a057608435908116036102145760a4359182116102145761020f91369101610500565b8380fd5b83903461010c5760c036600319011261010c576102bf610458565b5067ffffffffffffffff906024358281116102a0576102e19036908301610500565b50506102eb6104af565b50606435828116036102145760a4359182116102145761020f91369101610500565b83903461010c57606036600319011261010c57610328610458565b5067ffffffffffffffff906024358281116102a05761034a9036908301610500565b50506044359182116102145761020f91369101610500565b61056d565b50503461010c578060031936011261010c5790602091610385610458565b5061038e610499565b5051908152f35b83346101be576103a43661052e565b50505080f35b8391503461010c5760a036600319011261010c576103c6610458565b506103cf610499565b5067ffffffffffffffff6044358181116102a0576103f09036908401610500565b505060643580151503610214576084359081116102145761041391369101610500565b50508151908082526020820152f35b50503461010c578160031936011261010c576020905161270f8152f35b61047e565b50503461010c57906020916101033661052e565b6004359061ffff8216820361046957565b5f80fd5b6024359061ffff8216820361046957565b3461046957602036600319011261046957610497610458565b005b602435906001600160a01b038216820361046957565b604435906001600160a01b038216820361046957565b600435906001600160a01b038216820361046957565b34610469576020366003190112610469576104f46104c5565b50602060405160018152f35b9181601f840112156104695782359167ffffffffffffffff8311610469576020838186019501011161046957565b9060406003198301126104695760043561ffff8116810361046957916024359067ffffffffffffffff82116104695761056991600401610500565b9091565b34610469576020366003190112610469576105866104c5565b506020604051308152f35b34610469575f3660031901126104695760206040515f8152f3fea26469706673582212206ba7e6f1b48f0e4356a5ed0ee2bb0115188a9e78932d09211094917f2ba844ac64736f6c63430008140033","linkReferences":{}},"methodIdentifiers":{"estimateFees(uint16,address,bytes,bool,bytes)":"40a7bb10","forceResumeReceive(uint16,bytes)":"42d65a8d","getChainId()":"3408e470","getConfig(uint16,uint16,address,uint256)":"f5ecbdbc","getInboundNonce(uint16,bytes)":"fdc07c70","getOutboundNonce(uint16,address)":"7a145748","getReceiveLibraryAddress(address)":"71ba2fd6","getReceiveVersion(address)":"da1a7c9a","getSendLibraryAddress(address)":"9c729da1","getSendVersion(address)":"096568f6","hasStoredPayload(uint16,bytes)":"0eaf6ea6","isReceivingPayload()":"ca066b35","isSendingPayload()":"e97a448a","receivePayload(uint16,bytes,address,uint64,uint256,bytes)":"c2fa4813","retryPayload(uint16,bytes,bytes)":"aaff5f16","send(uint16,bytes,bytes,address,address,bytes)":"c5803100","setConfig(uint16,uint16,uint256,bytes)":"cbed8b9c","setReceiveVersion(uint16)":"10ddb137","setSendVersion(uint16)":"07e0db17"},"id":70}